{
	"contract/ModelRegistry.sol": {
		"ModelRegistry": {
			"abi": [
				{
					"inputs": [],
					"stateMutability": "nonpayable",
					"type": "constructor"
				},
				{
					"inputs": [
						{
							"internalType": "address",
							"name": "owner",
							"type": "address"
						}
					],
					"name": "OwnableInvalidOwner",
					"type": "error"
				},
				{
					"inputs": [
						{
							"internalType": "address",
							"name": "account",
							"type": "address"
						}
					],
					"name": "OwnableUnauthorizedAccount",
					"type": "error"
				},
				{
					"anonymous": false,
					"inputs": [
						{
							"indexed": true,
							"internalType": "uint256",
							"name": "modelId",
							"type": "uint256"
						},
						{
							"indexed": false,
							"internalType": "string",
							"name": "newMetrics",
							"type": "string"
						}
					],
					"name": "ModelPerformanceUpdated",
					"type": "event"
				},
				{
					"anonymous": false,
					"inputs": [
						{
							"indexed": true,
							"internalType": "uint256",
							"name": "modelId",
							"type": "uint256"
						},
						{
							"indexed": false,
							"internalType": "enum ModelRegistry.ModelStatus",
							"name": "newStatus",
							"type": "uint8"
						}
					],
					"name": "ModelStatusUpdated",
					"type": "event"
				},
				{
					"anonymous": false,
					"inputs": [
						{
							"indexed": true,
							"internalType": "uint256",
							"name": "modelId",
							"type": "uint256"
						},
						{
							"indexed": true,
							"internalType": "bytes32",
							"name": "modelHash",
							"type": "bytes32"
						},
						{
							"indexed": true,
							"internalType": "address",
							"name": "submitter",
							"type": "address"
						}
					],
					"name": "ModelSubmitted",
					"type": "event"
				},
				{
					"anonymous": false,
					"inputs": [
						{
							"indexed": true,
							"internalType": "address",
							"name": "previousOwner",
							"type": "address"
						},
						{
							"indexed": true,
							"internalType": "address",
							"name": "newOwner",
							"type": "address"
						}
					],
					"name": "OwnershipTransferred",
					"type": "event"
				},
				{
					"inputs": [],
					"name": "modelCount",
					"outputs": [
						{
							"internalType": "uint256",
							"name": "",
							"type": "uint256"
						}
					],
					"stateMutability": "view",
					"type": "function"
				},
				{
					"inputs": [
						{
							"internalType": "uint256",
							"name": "",
							"type": "uint256"
						}
					],
					"name": "models",
					"outputs": [
						{
							"internalType": "bytes32",
							"name": "modelHash",
							"type": "bytes32"
						},
						{
							"internalType": "address",
							"name": "submitter",
							"type": "address"
						},
						{
							"internalType": "enum ModelRegistry.ModelStatus",
							"name": "status",
							"type": "uint8"
						},
						{
							"internalType": "string",
							"name": "performanceMetrics",
							"type": "string"
						},
						{
							"internalType": "bool",
							"name": "isVerified",
							"type": "bool"
						}
					],
					"stateMutability": "view",
					"type": "function"
				},
				{
					"inputs": [],
					"name": "owner",
					"outputs": [
						{
							"internalType": "address",
							"name": "",
							"type": "address"
						}
					],
					"stateMutability": "view",
					"type": "function"
				},
				{
					"inputs": [],
					"name": "renounceOwnership",
					"outputs": [],
					"stateMutability": "nonpayable",
					"type": "function"
				},
				{
					"inputs": [
						{
							"internalType": "bytes32",
							"name": "_modelHash",
							"type": "bytes32"
						},
						{
							"internalType": "string",
							"name": "_initialMetrics",
							"type": "string"
						}
					],
					"name": "submitModel",
					"outputs": [],
					"stateMutability": "nonpayable",
					"type": "function"
				},
				{
					"inputs": [
						{
							"internalType": "address",
							"name": "newOwner",
							"type": "address"
						}
					],
					"name": "transferOwnership",
					"outputs": [],
					"stateMutability": "nonpayable",
					"type": "function"
				},
				{
					"inputs": [
						{
							"internalType": "uint256",
							"name": "_modelId",
							"type": "uint256"
						},
						{
							"internalType": "enum ModelRegistry.ModelStatus",
							"name": "_status",
							"type": "uint8"
						}
					],
					"name": "updateModelStatus",
					"outputs": [],
					"stateMutability": "nonpayable",
					"type": "function"
				},
				{
					"inputs": [
						{
							"internalType": "uint256",
							"name": "_modelId",
							"type": "uint256"
						},
						{
							"internalType": "string",
							"name": "_newMetrics",
							"type": "string"
						}
					],
					"name": "updatePerformanceMetrics",
					"outputs": [],
					"stateMutability": "nonpayable",
					"type": "function"
				},
				{
					"inputs": [
						{
							"internalType": "uint256",
							"name": "_modelId",
							"type": "uint256"
						}
					],
					"name": "verifyModel",
					"outputs": [],
					"stateMutability": "nonpayable",
					"type": "function"
				}
			],
			"devdoc": {
				"errors": {
					"OwnableInvalidOwner(address)": [
						{
							"details": "The owner is not a valid owner account. (eg. `address(0)`)"
						}
					],
					"OwnableUnauthorizedAccount(address)": [
						{
							"details": "The caller account is not authorized to perform an operation."
						}
					]
				},
				"kind": "dev",
				"methods": {
					"owner()": {
						"details": "Returns the address of the current owner."
					},
					"renounceOwnership()": {
						"details": "Leaves the contract without owner. It will not be possible to call `onlyOwner` functions. Can only be called by the current owner. NOTE: Renouncing ownership will leave the contract without an owner, thereby disabling any functionality that is only available to the owner."
					},
					"transferOwnership(address)": {
						"details": "Transfers ownership of the contract to a new account (`newOwner`). Can only be called by the current owner."
					}
				},
				"version": 1
			},
			"evm": {
				"assembly": "    /* \"contract/ModelRegistry.sol\":117:2118  contract ModelRegistry is Ownable {... */\n  mstore(0x40, 0x80)\n    /* \"contract/ModelRegistry.sol\":808:844  constructor() Ownable(msg.sender) {} */\n  callvalue\n  dup1\n  iszero\n  tag_1\n  jumpi\n  revert(0x00, 0x00)\ntag_1:\n  pop\n    /* \"contract/ModelRegistry.sol\":830:840  msg.sender */\n  caller\n    /* \"@openzeppelin/contracts/access/Ownable.sol\":1297:1298  0 */\n  0x00\n    /* \"@openzeppelin/contracts/access/Ownable.sol\":1273:1299  initialOwner == address(0) */\n  0xffffffffffffffffffffffffffffffffffffffff\n  and\n    /* \"@openzeppelin/contracts/access/Ownable.sol\":1273:1285  initialOwner */\n  dup2\n    /* \"@openzeppelin/contracts/access/Ownable.sol\":1273:1299  initialOwner == address(0) */\n  0xffffffffffffffffffffffffffffffffffffffff\n  and\n  sub\n    /* \"@openzeppelin/contracts/access/Ownable.sol\":1269:1364  if (initialOwner == address(0)) {... */\n  tag_5\n  jumpi\n    /* \"@openzeppelin/contracts/access/Ownable.sol\":1350:1351  0 */\n  0x00\n    /* \"@openzeppelin/contracts/access/Ownable.sol\":1322:1353  OwnableInvalidOwner(address(0)) */\n  mload(0x40)\n  0x1e4fbdf700000000000000000000000000000000000000000000000000000000\n  dup2\n  mstore\n  0x04\n  add\n  tag_6\n  swap2\n  swap1\n  tag_7\n  jump\t// in\ntag_6:\n  mload(0x40)\n  dup1\n  swap2\n  sub\n  swap1\n  revert\n    /* \"@openzeppelin/contracts/access/Ownable.sol\":1269:1364  if (initialOwner == address(0)) {... */\ntag_5:\n    /* \"@openzeppelin/contracts/access/Ownable.sol\":1373:1405  _transferOwnership(initialOwner) */\n  tag_8\n    /* \"@openzeppelin/contracts/access/Ownable.sol\":1392:1404  initialOwner */\n  dup2\n    /* \"@openzeppelin/contracts/access/Ownable.sol\":1373:1391  _transferOwnership */\n  shl(0x20, tag_9)\n    /* \"@openzeppelin/contracts/access/Ownable.sol\":1373:1405  _transferOwnership(initialOwner) */\n  0x20\n  shr\n  jump\t// in\ntag_8:\n    /* \"@openzeppelin/contracts/access/Ownable.sol\":1225:1412  constructor(address initialOwner) {... */\n  pop\n    /* \"contract/ModelRegistry.sol\":117:2118  contract ModelRegistry is Ownable {... */\n  jump(tag_11)\n    /* \"@openzeppelin/contracts/access/Ownable.sol\":2912:3099  function _transferOwnership(address newOwner) internal virtual {... */\ntag_9:\n    /* \"@openzeppelin/contracts/access/Ownable.sol\":2985:3001  address oldOwner */\n  0x00\n    /* \"@openzeppelin/contracts/access/Ownable.sol\":3004:3010  _owner */\n  0x00\n  0x00\n  swap1\n  sload\n  swap1\n  0x0100\n  exp\n  swap1\n  div\n  0xffffffffffffffffffffffffffffffffffffffff\n  and\n    /* \"@openzeppelin/contracts/access/Ownable.sol\":2985:3010  address oldOwner = _owner */\n  swap1\n  pop\n    /* \"@openzeppelin/contracts/access/Ownable.sol\":3029:3037  newOwner */\n  dup2\n    /* \"@openzeppelin/contracts/access/Ownable.sol\":3020:3026  _owner */\n  0x00\n  0x00\n    /* \"@openzeppelin/contracts/access/Ownable.sol\":3020:3037  _owner = newOwner */\n  0x0100\n  exp\n  dup2\n  sload\n  dup2\n  0xffffffffffffffffffffffffffffffffffffffff\n  mul\n  not\n  and\n  swap1\n  dup4\n  0xffffffffffffffffffffffffffffffffffffffff\n  and\n  mul\n  or\n  swap1\n  sstore\n  pop\n    /* \"@openzeppelin/contracts/access/Ownable.sol\":3083:3091  newOwner */\n  dup2\n    /* \"@openzeppelin/contracts/access/Ownable.sol\":3052:3092  OwnershipTransferred(oldOwner, newOwner) */\n  0xffffffffffffffffffffffffffffffffffffffff\n  and\n    /* \"@openzeppelin/contracts/access/Ownable.sol\":3073:3081  oldOwner */\n  dup2\n    /* \"@openzeppelin/contracts/access/Ownable.sol\":3052:3092  OwnershipTransferred(oldOwner, newOwner) */\n  0xffffffffffffffffffffffffffffffffffffffff\n  and\n  0x8be0079c531659141344cd1fd0a4f28419497f9722a3daafe3b4186f6b6457e0\n  mload(0x40)\n  mload(0x40)\n  dup1\n  swap2\n  sub\n  swap1\n  log3\n    /* \"@openzeppelin/contracts/access/Ownable.sol\":2975:3099  {... */\n  pop\n    /* \"@openzeppelin/contracts/access/Ownable.sol\":2912:3099  function _transferOwnership(address newOwner) internal virtual {... */\n  pop\n  jump\t// out\n    /* \"#utility.yul\":7:133   */\ntag_13:\n    /* \"#utility.yul\":44:51   */\n  0x00\n    /* \"#utility.yul\":84:126   */\n  0xffffffffffffffffffffffffffffffffffffffff\n    /* \"#utility.yul\":77:82   */\n  dup3\n    /* \"#utility.yul\":73:127   */\n  and\n    /* \"#utility.yul\":62:127   */\n  swap1\n  pop\n    /* \"#utility.yul\":7:133   */\n  swap2\n  swap1\n  pop\n  jump\t// out\n    /* \"#utility.yul\":139:235   */\ntag_14:\n    /* \"#utility.yul\":176:183   */\n  0x00\n    /* \"#utility.yul\":205:229   */\n  tag_19\n    /* \"#utility.yul\":223:228   */\n  dup3\n    /* \"#utility.yul\":205:229   */\n  tag_13\n  jump\t// in\ntag_19:\n    /* \"#utility.yul\":194:229   */\n  swap1\n  pop\n    /* \"#utility.yul\":139:235   */\n  swap2\n  swap1\n  pop\n  jump\t// out\n    /* \"#utility.yul\":241:359   */\ntag_15:\n    /* \"#utility.yul\":328:352   */\n  tag_21\n    /* \"#utility.yul\":346:351   */\n  dup2\n    /* \"#utility.yul\":328:352   */\n  tag_14\n  jump\t// in\ntag_21:\n    /* \"#utility.yul\":323:326   */\n  dup3\n    /* \"#utility.yul\":316:353   */\n  mstore\n    /* \"#utility.yul\":241:359   */\n  pop\n  pop\n  jump\t// out\n    /* \"#utility.yul\":365:587   */\ntag_7:\n    /* \"#utility.yul\":458:462   */\n  0x00\n    /* \"#utility.yul\":496:498   */\n  0x20\n    /* \"#utility.yul\":485:494   */\n  dup3\n    /* \"#utility.yul\":481:499   */\n  add\n    /* \"#utility.yul\":473:499   */\n  swap1\n  pop\n    /* \"#utility.yul\":509:580   */\n  tag_23\n    /* \"#utility.yul\":577:578   */\n  0x00\n    /* \"#utility.yul\":566:575   */\n  dup4\n    /* \"#utility.yul\":562:579   */\n  add\n    /* \"#utility.yul\":553:559   */\n  dup5\n    /* \"#utility.yul\":509:580   */\n  tag_15\n  jump\t// in\ntag_23:\n    /* \"#utility.yul\":365:587   */\n  swap3\n  swap2\n  pop\n  pop\n  jump\t// out\n    /* \"contract/ModelRegistry.sol\":117:2118  contract ModelRegistry is Ownable {... */\ntag_11:\n  dataSize(sub_0)\n  dup1\n  dataOffset(sub_0)\n  0x00\n  codecopy\n  0x00\n  return\nstop\n\nsub_0: assembly {\n        /* \"contract/ModelRegistry.sol\":117:2118  contract ModelRegistry is Ownable {... */\n      mstore(0x40, 0x80)\n      callvalue\n      dup1\n      iszero\n      tag_1\n      jumpi\n      revert(0x00, 0x00)\n    tag_1:\n      pop\n      jumpi(tag_2, lt(calldatasize, 0x04))\n      shr(0xe0, calldataload(0x00))\n      dup1\n      0x715018a6\n      gt\n      tag_12\n      jumpi\n      dup1\n      0x715018a6\n      eq\n      tag_7\n      jumpi\n      dup1\n      0x8da5cb5b\n      eq\n      tag_8\n      jumpi\n      dup1\n      0x9cab93c7\n      eq\n      tag_9\n      jumpi\n      dup1\n      0xc6a645fe\n      eq\n      tag_10\n      jumpi\n      dup1\n      0xf2fde38b\n      eq\n      tag_11\n      jumpi\n      jump(tag_2)\n    tag_12:\n      dup1\n      0x1d395f75\n      eq\n      tag_3\n      jumpi\n      dup1\n      0x2f30187b\n      eq\n      tag_4\n      jumpi\n      dup1\n      0x6a030ca9\n      eq\n      tag_5\n      jumpi\n      dup1\n      0x7051ad51\n      eq\n      tag_6\n      jumpi\n    tag_2:\n      revert(0x00, 0x00)\n        /* \"contract/ModelRegistry.sol\":1580:1903  function updatePerformanceMetrics(uint256 _modelId, string calldata _newMetrics) external onlyOwner {... */\n    tag_3:\n      tag_13\n      0x04\n      dup1\n      calldatasize\n      sub\n      dup2\n      add\n      swap1\n      tag_14\n      swap2\n      swap1\n      tag_15\n      jump\t// in\n    tag_14:\n      tag_16\n      jump\t// in\n    tag_13:\n      stop\n        /* \"contract/ModelRegistry.sol\":1289:1572  function updateModelStatus(uint256 _modelId, ModelStatus _status) external onlyOwner {... */\n    tag_4:\n      tag_17\n      0x04\n      dup1\n      calldatasize\n      sub\n      dup2\n      add\n      swap1\n      tag_18\n      swap2\n      swap1\n      tag_19\n      jump\t// in\n    tag_18:\n      tag_20\n      jump\t// in\n    tag_17:\n      stop\n        /* \"contract/ModelRegistry.sol\":459:500  mapping(uint256 => AIModel) public models */\n    tag_5:\n      tag_21\n      0x04\n      dup1\n      calldatasize\n      sub\n      dup2\n      add\n      swap1\n      tag_22\n      swap2\n      swap1\n      tag_23\n      jump\t// in\n    tag_22:\n      tag_24\n      jump\t// in\n    tag_21:\n      mload(0x40)\n      tag_25\n      swap6\n      swap5\n      swap4\n      swap3\n      swap2\n      swap1\n      tag_26\n      jump\t// in\n    tag_25:\n      mload(0x40)\n      dup1\n      swap2\n      sub\n      swap1\n      return\n        /* \"contract/ModelRegistry.sol\":1911:2115  function verifyModel(uint256 _modelId) external onlyOwner {... */\n    tag_6:\n      tag_27\n      0x04\n      dup1\n      calldatasize\n      sub\n      dup2\n      add\n      swap1\n      tag_28\n      swap2\n      swap1\n      tag_23\n      jump\t// in\n    tag_28:\n      tag_29\n      jump\t// in\n    tag_27:\n      stop\n        /* \"@openzeppelin/contracts/access/Ownable.sol\":2293:2394  function renounceOwnership() public virtual onlyOwner {... */\n    tag_7:\n      tag_30\n      tag_31\n      jump\t// in\n    tag_30:\n      stop\n        /* \"@openzeppelin/contracts/access/Ownable.sol\":1638:1723  function owner() public view virtual returns (address) {... */\n    tag_8:\n      tag_32\n      tag_33\n      jump\t// in\n    tag_32:\n      mload(0x40)\n      tag_34\n      swap2\n      swap1\n      tag_35\n      jump\t// in\n    tag_34:\n      mload(0x40)\n      dup1\n      swap2\n      sub\n      swap1\n      return\n        /* \"contract/ModelRegistry.sol\":852:1281  function submitModel(bytes32 _modelHash, string calldata _initialMetrics) external {... */\n    tag_9:\n      tag_36\n      0x04\n      dup1\n      calldatasize\n      sub\n      dup2\n      add\n      swap1\n      tag_37\n      swap2\n      swap1\n      tag_38\n      jump\t// in\n    tag_37:\n      tag_39\n      jump\t// in\n    tag_36:\n      stop\n        /* \"contract/ModelRegistry.sol\":507:532  uint256 public modelCount */\n    tag_10:\n      tag_40\n      tag_41\n      jump\t// in\n    tag_40:\n      mload(0x40)\n      tag_42\n      swap2\n      swap1\n      tag_43\n      jump\t// in\n    tag_42:\n      mload(0x40)\n      dup1\n      swap2\n      sub\n      swap1\n      return\n        /* \"@openzeppelin/contracts/access/Ownable.sol\":2543:2758  function transferOwnership(address newOwner) public virtual onlyOwner {... */\n    tag_11:\n      tag_44\n      0x04\n      dup1\n      calldatasize\n      sub\n      dup2\n      add\n      swap1\n      tag_45\n      swap2\n      swap1\n      tag_46\n      jump\t// in\n    tag_45:\n      tag_47\n      jump\t// in\n    tag_44:\n      stop\n        /* \"contract/ModelRegistry.sol\":1580:1903  function updatePerformanceMetrics(uint256 _modelId, string calldata _newMetrics) external onlyOwner {... */\n    tag_16:\n        /* \"@openzeppelin/contracts/access/Ownable.sol\":1531:1544  _checkOwner() */\n      tag_49\n        /* \"@openzeppelin/contracts/access/Ownable.sol\":1531:1542  _checkOwner */\n      tag_50\n        /* \"@openzeppelin/contracts/access/Ownable.sol\":1531:1544  _checkOwner() */\n      jump\t// in\n    tag_49:\n        /* \"contract/ModelRegistry.sol\":1710:1711  0 */\n      0x00\n        /* \"contract/ModelRegistry.sol\":1699:1707  _modelId */\n      dup4\n        /* \"contract/ModelRegistry.sol\":1699:1711  _modelId > 0 */\n      gt\n        /* \"contract/ModelRegistry.sol\":1699:1737  _modelId > 0 && _modelId <= modelCount */\n      dup1\n      iszero\n      tag_52\n      jumpi\n      pop\n        /* \"contract/ModelRegistry.sol\":1727:1737  modelCount */\n      sload(0x02)\n        /* \"contract/ModelRegistry.sol\":1715:1723  _modelId */\n      dup4\n        /* \"contract/ModelRegistry.sol\":1715:1737  _modelId <= modelCount */\n      gt\n      iszero\n        /* \"contract/ModelRegistry.sol\":1699:1737  _modelId > 0 && _modelId <= modelCount */\n    tag_52:\n        /* \"contract/ModelRegistry.sol\":1691:1773  require(_modelId > 0 && _modelId <= modelCount, \"ModelRegistry: Invalid model ID\") */\n      tag_53\n      jumpi\n      mload(0x40)\n      0x08c379a000000000000000000000000000000000000000000000000000000000\n      dup2\n      mstore\n      0x04\n      add\n      tag_54\n      swap1\n      tag_55\n      jump\t// in\n    tag_54:\n      mload(0x40)\n      dup1\n      swap2\n      sub\n      swap1\n      revert\n    tag_53:\n        /* \"contract/ModelRegistry.sol\":1822:1833  _newMetrics */\n      dup2\n      dup2\n        /* \"contract/ModelRegistry.sol\":1784:1790  models */\n      0x01\n        /* \"contract/ModelRegistry.sol\":1784:1800  models[_modelId] */\n      0x00\n        /* \"contract/ModelRegistry.sol\":1791:1799  _modelId */\n      dup7\n        /* \"contract/ModelRegistry.sol\":1784:1800  models[_modelId] */\n      dup2\n      mstore\n      0x20\n      add\n      swap1\n      dup2\n      mstore\n      0x20\n      add\n      0x00\n      keccak256\n        /* \"contract/ModelRegistry.sol\":1784:1819  models[_modelId].performanceMetrics */\n      0x02\n      add\n        /* \"contract/ModelRegistry.sol\":1784:1833  models[_modelId].performanceMetrics = _newMetrics */\n      swap2\n      dup3\n      tag_56\n      swap3\n      swap2\n      swap1\n      tag_57\n      jump\t// in\n    tag_56:\n      pop\n        /* \"contract/ModelRegistry.sol\":1873:1881  _modelId */\n      dup3\n        /* \"contract/ModelRegistry.sol\":1849:1895  ModelPerformanceUpdated(_modelId, _newMetrics) */\n      0xe910a1c7caa001791659755db8e33ad3145e761a629460804ee022e3c94b8313\n        /* \"contract/ModelRegistry.sol\":1883:1894  _newMetrics */\n      dup4\n      dup4\n        /* \"contract/ModelRegistry.sol\":1849:1895  ModelPerformanceUpdated(_modelId, _newMetrics) */\n      mload(0x40)\n      tag_58\n      swap3\n      swap2\n      swap1\n      tag_59\n      jump\t// in\n    tag_58:\n      mload(0x40)\n      dup1\n      swap2\n      sub\n      swap1\n      log2\n        /* \"contract/ModelRegistry.sol\":1580:1903  function updatePerformanceMetrics(uint256 _modelId, string calldata _newMetrics) external onlyOwner {... */\n      pop\n      pop\n      pop\n      jump\t// out\n        /* \"contract/ModelRegistry.sol\":1289:1572  function updateModelStatus(uint256 _modelId, ModelStatus _status) external onlyOwner {... */\n    tag_20:\n        /* \"@openzeppelin/contracts/access/Ownable.sol\":1531:1544  _checkOwner() */\n      tag_61\n        /* \"@openzeppelin/contracts/access/Ownable.sol\":1531:1542  _checkOwner */\n      tag_50\n        /* \"@openzeppelin/contracts/access/Ownable.sol\":1531:1544  _checkOwner() */\n      jump\t// in\n    tag_61:\n        /* \"contract/ModelRegistry.sol\":1404:1405  0 */\n      0x00\n        /* \"contract/ModelRegistry.sol\":1393:1401  _modelId */\n      dup3\n        /* \"contract/ModelRegistry.sol\":1393:1405  _modelId > 0 */\n      gt\n        /* \"contract/ModelRegistry.sol\":1393:1431  _modelId > 0 && _modelId <= modelCount */\n      dup1\n      iszero\n      tag_63\n      jumpi\n      pop\n        /* \"contract/ModelRegistry.sol\":1421:1431  modelCount */\n      sload(0x02)\n        /* \"contract/ModelRegistry.sol\":1409:1417  _modelId */\n      dup3\n        /* \"contract/ModelRegistry.sol\":1409:1431  _modelId <= modelCount */\n      gt\n      iszero\n        /* \"contract/ModelRegistry.sol\":1393:1431  _modelId > 0 && _modelId <= modelCount */\n    tag_63:\n        /* \"contract/ModelRegistry.sol\":1385:1467  require(_modelId > 0 && _modelId <= modelCount, \"ModelRegistry: Invalid model ID\") */\n      tag_64\n      jumpi\n      mload(0x40)\n      0x08c379a000000000000000000000000000000000000000000000000000000000\n      dup2\n      mstore\n      0x04\n      add\n      tag_65\n      swap1\n      tag_55\n      jump\t// in\n    tag_65:\n      mload(0x40)\n      dup1\n      swap2\n      sub\n      swap1\n      revert\n    tag_64:\n        /* \"contract/ModelRegistry.sol\":1504:1511  _status */\n      dup1\n        /* \"contract/ModelRegistry.sol\":1478:1484  models */\n      0x01\n        /* \"contract/ModelRegistry.sol\":1478:1494  models[_modelId] */\n      0x00\n        /* \"contract/ModelRegistry.sol\":1485:1493  _modelId */\n      dup5\n        /* \"contract/ModelRegistry.sol\":1478:1494  models[_modelId] */\n      dup2\n      mstore\n      0x20\n      add\n      swap1\n      dup2\n      mstore\n      0x20\n      add\n      0x00\n      keccak256\n        /* \"contract/ModelRegistry.sol\":1478:1501  models[_modelId].status */\n      0x01\n      add\n      0x14\n        /* \"contract/ModelRegistry.sol\":1478:1511  models[_modelId].status = _status */\n      0x0100\n      exp\n      dup2\n      sload\n      dup2\n      0xff\n      mul\n      not\n      and\n      swap1\n      dup4\n      0x03\n      dup2\n      gt\n      iszero\n      tag_66\n      jumpi\n      tag_67\n      tag_68\n      jump\t// in\n    tag_67:\n    tag_66:\n      mul\n      or\n      swap1\n      sstore\n      pop\n        /* \"contract/ModelRegistry.sol\":1546:1554  _modelId */\n      dup2\n        /* \"contract/ModelRegistry.sol\":1527:1564  ModelStatusUpdated(_modelId, _status) */\n      0xbfb0438a1ae05f61e561fea2dd930342b4ab667be8da8a67ef114cd4ca3636e5\n        /* \"contract/ModelRegistry.sol\":1556:1563  _status */\n      dup3\n        /* \"contract/ModelRegistry.sol\":1527:1564  ModelStatusUpdated(_modelId, _status) */\n      mload(0x40)\n      tag_69\n      swap2\n      swap1\n      tag_70\n      jump\t// in\n    tag_69:\n      mload(0x40)\n      dup1\n      swap2\n      sub\n      swap1\n      log2\n        /* \"contract/ModelRegistry.sol\":1289:1572  function updateModelStatus(uint256 _modelId, ModelStatus _status) external onlyOwner {... */\n      pop\n      pop\n      jump\t// out\n        /* \"contract/ModelRegistry.sol\":459:500  mapping(uint256 => AIModel) public models */\n    tag_24:\n      mstore(0x20, 0x01)\n      dup1\n      0x00\n      mstore\n      keccak256(0x00, 0x40)\n      0x00\n      swap2\n      pop\n      swap1\n      pop\n      dup1\n      0x00\n      add\n      sload\n      swap1\n      dup1\n      0x01\n      add\n      0x00\n      swap1\n      sload\n      swap1\n      0x0100\n      exp\n      swap1\n      div\n      0xffffffffffffffffffffffffffffffffffffffff\n      and\n      swap1\n      dup1\n      0x01\n      add\n      0x14\n      swap1\n      sload\n      swap1\n      0x0100\n      exp\n      swap1\n      div\n      0xff\n      and\n      swap1\n      dup1\n      0x02\n      add\n      dup1\n      sload\n      tag_71\n      swap1\n      tag_72\n      jump\t// in\n    tag_71:\n      dup1\n      0x1f\n      add\n      0x20\n      dup1\n      swap2\n      div\n      mul\n      0x20\n      add\n      mload(0x40)\n      swap1\n      dup2\n      add\n      0x40\n      mstore\n      dup1\n      swap3\n      swap2\n      swap1\n      dup2\n      dup2\n      mstore\n      0x20\n      add\n      dup3\n      dup1\n      sload\n      tag_73\n      swap1\n      tag_72\n      jump\t// in\n    tag_73:\n      dup1\n      iszero\n      tag_74\n      jumpi\n      dup1\n      0x1f\n      lt\n      tag_75\n      jumpi\n      0x0100\n      dup1\n      dup4\n      sload\n      div\n      mul\n      dup4\n      mstore\n      swap2\n      0x20\n      add\n      swap2\n      jump(tag_74)\n    tag_75:\n      dup3\n      add\n      swap2\n      swap1\n      0x00\n      mstore\n      keccak256(0x00, 0x20)\n      swap1\n    tag_76:\n      dup2\n      sload\n      dup2\n      mstore\n      swap1\n      0x01\n      add\n      swap1\n      0x20\n      add\n      dup1\n      dup4\n      gt\n      tag_76\n      jumpi\n      dup3\n      swap1\n      sub\n      0x1f\n      and\n      dup3\n      add\n      swap2\n    tag_74:\n      pop\n      pop\n      pop\n      pop\n      pop\n      swap1\n      dup1\n      0x03\n      add\n      0x00\n      swap1\n      sload\n      swap1\n      0x0100\n      exp\n      swap1\n      div\n      0xff\n      and\n      swap1\n      pop\n      dup6\n      jump\t// out\n        /* \"contract/ModelRegistry.sol\":1911:2115  function verifyModel(uint256 _modelId) external onlyOwner {... */\n    tag_29:\n        /* \"@openzeppelin/contracts/access/Ownable.sol\":1531:1544  _checkOwner() */\n      tag_78\n        /* \"@openzeppelin/contracts/access/Ownable.sol\":1531:1542  _checkOwner */\n      tag_50\n        /* \"@openzeppelin/contracts/access/Ownable.sol\":1531:1544  _checkOwner() */\n      jump\t// in\n    tag_78:\n        /* \"contract/ModelRegistry.sol\":1999:2000  0 */\n      0x00\n        /* \"contract/ModelRegistry.sol\":1988:1996  _modelId */\n      dup2\n        /* \"contract/ModelRegistry.sol\":1988:2000  _modelId > 0 */\n      gt\n        /* \"contract/ModelRegistry.sol\":1988:2026  _modelId > 0 && _modelId <= modelCount */\n      dup1\n      iszero\n      tag_80\n      jumpi\n      pop\n        /* \"contract/ModelRegistry.sol\":2016:2026  modelCount */\n      sload(0x02)\n        /* \"contract/ModelRegistry.sol\":2004:2012  _modelId */\n      dup2\n        /* \"contract/ModelRegistry.sol\":2004:2026  _modelId <= modelCount */\n      gt\n      iszero\n        /* \"contract/ModelRegistry.sol\":1988:2026  _modelId > 0 && _modelId <= modelCount */\n    tag_80:\n        /* \"contract/ModelRegistry.sol\":1980:2062  require(_modelId > 0 && _modelId <= modelCount, \"ModelRegistry: Invalid model ID\") */\n      tag_81\n      jumpi\n      mload(0x40)\n      0x08c379a000000000000000000000000000000000000000000000000000000000\n      dup2\n      mstore\n      0x04\n      add\n      tag_82\n      swap1\n      tag_55\n      jump\t// in\n    tag_82:\n      mload(0x40)\n      dup1\n      swap2\n      sub\n      swap1\n      revert\n    tag_81:\n        /* \"contract/ModelRegistry.sol\":2103:2107  true */\n      0x01\n        /* \"contract/ModelRegistry.sol\":2073:2079  models */\n      dup1\n        /* \"contract/ModelRegistry.sol\":2073:2089  models[_modelId] */\n      0x00\n        /* \"contract/ModelRegistry.sol\":2080:2088  _modelId */\n      dup4\n        /* \"contract/ModelRegistry.sol\":2073:2089  models[_modelId] */\n      dup2\n      mstore\n      0x20\n      add\n      swap1\n      dup2\n      mstore\n      0x20\n      add\n      0x00\n      keccak256\n        /* \"contract/ModelRegistry.sol\":2073:2100  models[_modelId].isVerified */\n      0x03\n      add\n      0x00\n        /* \"contract/ModelRegistry.sol\":2073:2107  models[_modelId].isVerified = true */\n      0x0100\n      exp\n      dup2\n      sload\n      dup2\n      0xff\n      mul\n      not\n      and\n      swap1\n      dup4\n      iszero\n      iszero\n      mul\n      or\n      swap1\n      sstore\n      pop\n        /* \"contract/ModelRegistry.sol\":1911:2115  function verifyModel(uint256 _modelId) external onlyOwner {... */\n      pop\n      jump\t// out\n        /* \"@openzeppelin/contracts/access/Ownable.sol\":2293:2394  function renounceOwnership() public virtual onlyOwner {... */\n    tag_31:\n        /* \"@openzeppelin/contracts/access/Ownable.sol\":1531:1544  _checkOwner() */\n      tag_84\n        /* \"@openzeppelin/contracts/access/Ownable.sol\":1531:1542  _checkOwner */\n      tag_50\n        /* \"@openzeppelin/contracts/access/Ownable.sol\":1531:1544  _checkOwner() */\n      jump\t// in\n    tag_84:\n        /* \"@openzeppelin/contracts/access/Ownable.sol\":2357:2387  _transferOwnership(address(0)) */\n      tag_86\n        /* \"@openzeppelin/contracts/access/Ownable.sol\":2384:2385  0 */\n      0x00\n        /* \"@openzeppelin/contracts/access/Ownable.sol\":2357:2375  _transferOwnership */\n      tag_87\n        /* \"@openzeppelin/contracts/access/Ownable.sol\":2357:2387  _transferOwnership(address(0)) */\n      jump\t// in\n    tag_86:\n        /* \"@openzeppelin/contracts/access/Ownable.sol\":2293:2394  function renounceOwnership() public virtual onlyOwner {... */\n      jump\t// out\n        /* \"@openzeppelin/contracts/access/Ownable.sol\":1638:1723  function owner() public view virtual returns (address) {... */\n    tag_33:\n        /* \"@openzeppelin/contracts/access/Ownable.sol\":1684:1691  address */\n      0x00\n        /* \"@openzeppelin/contracts/access/Ownable.sol\":1710:1716  _owner */\n      0x00\n      0x00\n      swap1\n      sload\n      swap1\n      0x0100\n      exp\n      swap1\n      div\n      0xffffffffffffffffffffffffffffffffffffffff\n      and\n        /* \"@openzeppelin/contracts/access/Ownable.sol\":1703:1716  return _owner */\n      swap1\n      pop\n        /* \"@openzeppelin/contracts/access/Ownable.sol\":1638:1723  function owner() public view virtual returns (address) {... */\n      swap1\n      jump\t// out\n        /* \"contract/ModelRegistry.sol\":852:1281  function submitModel(bytes32 _modelHash, string calldata _initialMetrics) external {... */\n    tag_39:\n        /* \"contract/ModelRegistry.sol\":946:956  modelCount */\n      0x02\n      0x00\n        /* \"contract/ModelRegistry.sol\":946:958  modelCount++ */\n      dup2\n      sload\n      dup1\n      swap3\n      swap2\n      swap1\n      tag_90\n      swap1\n      tag_91\n      jump\t// in\n    tag_90:\n      swap2\n      swap1\n      pop\n      sstore\n      pop\n        /* \"contract/ModelRegistry.sol\":990:1207  AIModel({... */\n      mload(0x40)\n      dup1\n      0xa0\n      add\n      0x40\n      mstore\n      dup1\n        /* \"contract/ModelRegistry.sol\":1024:1034  _modelHash */\n      dup5\n        /* \"contract/ModelRegistry.sol\":990:1207  AIModel({... */\n      dup2\n      mstore\n      0x20\n      add\n        /* \"contract/ModelRegistry.sol\":1060:1070  msg.sender */\n      caller\n        /* \"contract/ModelRegistry.sol\":990:1207  AIModel({... */\n      0xffffffffffffffffffffffffffffffffffffffff\n      and\n      dup2\n      mstore\n      0x20\n      add\n        /* \"contract/ModelRegistry.sol\":1093:1113  ModelStatus.Training */\n      0x00\n        /* \"contract/ModelRegistry.sol\":990:1207  AIModel({... */\n      0x03\n      dup2\n      gt\n      iszero\n      tag_92\n      jumpi\n      tag_93\n      tag_68\n      jump\t// in\n    tag_93:\n    tag_92:\n      dup2\n      mstore\n      0x20\n      add\n        /* \"contract/ModelRegistry.sol\":1148:1163  _initialMetrics */\n      dup4\n      dup4\n        /* \"contract/ModelRegistry.sol\":990:1207  AIModel({... */\n      dup1\n      dup1\n      0x1f\n      add\n      0x20\n      dup1\n      swap2\n      div\n      mul\n      0x20\n      add\n      mload(0x40)\n      swap1\n      dup2\n      add\n      0x40\n      mstore\n      dup1\n      swap4\n      swap3\n      swap2\n      swap1\n      dup2\n      dup2\n      mstore\n      0x20\n      add\n      dup4\n      dup4\n      dup1\n      dup3\n      dup5\n      calldatacopy\n      0x00\n      dup2\n      dup5\n      add\n      mstore\n      not(0x1f)\n      0x1f\n      dup3\n      add\n      and\n      swap1\n      pop\n      dup1\n      dup4\n      add\n      swap3\n      pop\n      pop\n      pop\n      pop\n      pop\n      pop\n      pop\n      dup2\n      mstore\n      0x20\n      add\n        /* \"contract/ModelRegistry.sol\":1190:1195  false */\n      0x00\n        /* \"contract/ModelRegistry.sol\":990:1207  AIModel({... */\n      iszero\n      iszero\n      dup2\n      mstore\n      pop\n        /* \"contract/ModelRegistry.sol\":969:975  models */\n      0x01\n        /* \"contract/ModelRegistry.sol\":969:987  models[modelCount] */\n      0x00\n        /* \"contract/ModelRegistry.sol\":976:986  modelCount */\n      sload(0x02)\n        /* \"contract/ModelRegistry.sol\":969:987  models[modelCount] */\n      dup2\n      mstore\n      0x20\n      add\n      swap1\n      dup2\n      mstore\n      0x20\n      add\n      0x00\n      keccak256\n        /* \"contract/ModelRegistry.sol\":969:1207  models[modelCount] = AIModel({... */\n      0x00\n      dup3\n      add\n      mload\n      dup2\n      0x00\n      add\n      sstore\n      0x20\n      dup3\n      add\n      mload\n      dup2\n      0x01\n      add\n      exp(0x0100, 0x00)\n      dup2\n      sload\n      dup2\n      0xffffffffffffffffffffffffffffffffffffffff\n      mul\n      not\n      and\n      swap1\n      dup4\n      0xffffffffffffffffffffffffffffffffffffffff\n      and\n      mul\n      or\n      swap1\n      sstore\n      pop\n      0x40\n      dup3\n      add\n      mload\n      dup2\n      0x01\n      add\n      exp(0x0100, 0x14)\n      dup2\n      sload\n      dup2\n      0xff\n      mul\n      not\n      and\n      swap1\n      dup4\n      0x03\n      dup2\n      gt\n      iszero\n      tag_94\n      jumpi\n      tag_95\n      tag_68\n      jump\t// in\n    tag_95:\n    tag_94:\n      mul\n      or\n      swap1\n      sstore\n      pop\n      0x60\n      dup3\n      add\n      mload\n      dup2\n      0x02\n      add\n      swap1\n      dup2\n      tag_96\n      swap2\n      swap1\n      tag_97\n      jump\t// in\n    tag_96:\n      pop\n      0x80\n      dup3\n      add\n      mload\n      dup2\n      0x03\n      add\n      exp(0x0100, 0x00)\n      dup2\n      sload\n      dup2\n      0xff\n      mul\n      not\n      and\n      swap1\n      dup4\n      iszero\n      iszero\n      mul\n      or\n      swap1\n      sstore\n      pop\n      swap1\n      pop\n      pop\n        /* \"contract/ModelRegistry.sol\":1262:1272  msg.sender */\n      caller\n        /* \"contract/ModelRegistry.sol\":1223:1273  ModelSubmitted(modelCount, _modelHash, msg.sender) */\n      0xffffffffffffffffffffffffffffffffffffffff\n      and\n        /* \"contract/ModelRegistry.sol\":1250:1260  _modelHash */\n      dup4\n        /* \"contract/ModelRegistry.sol\":1238:1248  modelCount */\n      sload(0x02)\n        /* \"contract/ModelRegistry.sol\":1223:1273  ModelSubmitted(modelCount, _modelHash, msg.sender) */\n      0xe51d75d08432f225114940aad3b5faf32120cf0d70d57640e163045c49e20798\n      mload(0x40)\n      mload(0x40)\n      dup1\n      swap2\n      sub\n      swap1\n      log4\n        /* \"contract/ModelRegistry.sol\":852:1281  function submitModel(bytes32 _modelHash, string calldata _initialMetrics) external {... */\n      pop\n      pop\n      pop\n      jump\t// out\n        /* \"contract/ModelRegistry.sol\":507:532  uint256 public modelCount */\n    tag_41:\n      sload(0x02)\n      dup2\n      jump\t// out\n        /* \"@openzeppelin/contracts/access/Ownable.sol\":2543:2758  function transferOwnership(address newOwner) public virtual onlyOwner {... */\n    tag_47:\n        /* \"@openzeppelin/contracts/access/Ownable.sol\":1531:1544  _checkOwner() */\n      tag_99\n        /* \"@openzeppelin/contracts/access/Ownable.sol\":1531:1542  _checkOwner */\n      tag_50\n        /* \"@openzeppelin/contracts/access/Ownable.sol\":1531:1544  _checkOwner() */\n      jump\t// in\n    tag_99:\n        /* \"@openzeppelin/contracts/access/Ownable.sol\":2647:2648  0 */\n      0x00\n        /* \"@openzeppelin/contracts/access/Ownable.sol\":2627:2649  newOwner == address(0) */\n      0xffffffffffffffffffffffffffffffffffffffff\n      and\n        /* \"@openzeppelin/contracts/access/Ownable.sol\":2627:2635  newOwner */\n      dup2\n        /* \"@openzeppelin/contracts/access/Ownable.sol\":2627:2649  newOwner == address(0) */\n      0xffffffffffffffffffffffffffffffffffffffff\n      and\n      sub\n        /* \"@openzeppelin/contracts/access/Ownable.sol\":2623:2714  if (newOwner == address(0)) {... */\n      tag_101\n      jumpi\n        /* \"@openzeppelin/contracts/access/Ownable.sol\":2700:2701  0 */\n      0x00\n        /* \"@openzeppelin/contracts/access/Ownable.sol\":2672:2703  OwnableInvalidOwner(address(0)) */\n      mload(0x40)\n      0x1e4fbdf700000000000000000000000000000000000000000000000000000000\n      dup2\n      mstore\n      0x04\n      add\n      tag_102\n      swap2\n      swap1\n      tag_35\n      jump\t// in\n    tag_102:\n      mload(0x40)\n      dup1\n      swap2\n      sub\n      swap1\n      revert\n        /* \"@openzeppelin/contracts/access/Ownable.sol\":2623:2714  if (newOwner == address(0)) {... */\n    tag_101:\n        /* \"@openzeppelin/contracts/access/Ownable.sol\":2723:2751  _transferOwnership(newOwner) */\n      tag_103\n        /* \"@openzeppelin/contracts/access/Ownable.sol\":2742:2750  newOwner */\n      dup2\n        /* \"@openzeppelin/contracts/access/Ownable.sol\":2723:2741  _transferOwnership */\n      tag_87\n        /* \"@openzeppelin/contracts/access/Ownable.sol\":2723:2751  _transferOwnership(newOwner) */\n      jump\t// in\n    tag_103:\n        /* \"@openzeppelin/contracts/access/Ownable.sol\":2543:2758  function transferOwnership(address newOwner) public virtual onlyOwner {... */\n      pop\n      jump\t// out\n        /* \"@openzeppelin/contracts/access/Ownable.sol\":1796:1958  function _checkOwner() internal view virtual {... */\n    tag_50:\n        /* \"@openzeppelin/contracts/access/Ownable.sol\":1866:1878  _msgSender() */\n      tag_105\n        /* \"@openzeppelin/contracts/access/Ownable.sol\":1866:1876  _msgSender */\n      tag_106\n        /* \"@openzeppelin/contracts/access/Ownable.sol\":1866:1878  _msgSender() */\n      jump\t// in\n    tag_105:\n        /* \"@openzeppelin/contracts/access/Ownable.sol\":1855:1878  owner() != _msgSender() */\n      0xffffffffffffffffffffffffffffffffffffffff\n      and\n        /* \"@openzeppelin/contracts/access/Ownable.sol\":1855:1862  owner() */\n      tag_107\n        /* \"@openzeppelin/contracts/access/Ownable.sol\":1855:1860  owner */\n      tag_33\n        /* \"@openzeppelin/contracts/access/Ownable.sol\":1855:1862  owner() */\n      jump\t// in\n    tag_107:\n        /* \"@openzeppelin/contracts/access/Ownable.sol\":1855:1878  owner() != _msgSender() */\n      0xffffffffffffffffffffffffffffffffffffffff\n      and\n      eq\n        /* \"@openzeppelin/contracts/access/Ownable.sol\":1851:1952  if (owner() != _msgSender()) {... */\n      tag_108\n      jumpi\n        /* \"@openzeppelin/contracts/access/Ownable.sol\":1928:1940  _msgSender() */\n      tag_109\n        /* \"@openzeppelin/contracts/access/Ownable.sol\":1928:1938  _msgSender */\n      tag_106\n        /* \"@openzeppelin/contracts/access/Ownable.sol\":1928:1940  _msgSender() */\n      jump\t// in\n    tag_109:\n        /* \"@openzeppelin/contracts/access/Ownable.sol\":1901:1941  OwnableUnauthorizedAccount(_msgSender()) */\n      mload(0x40)\n      0x118cdaa700000000000000000000000000000000000000000000000000000000\n      dup2\n      mstore\n      0x04\n      add\n      tag_110\n      swap2\n      swap1\n      tag_35\n      jump\t// in\n    tag_110:\n      mload(0x40)\n      dup1\n      swap2\n      sub\n      swap1\n      revert\n        /* \"@openzeppelin/contracts/access/Ownable.sol\":1851:1952  if (owner() != _msgSender()) {... */\n    tag_108:\n        /* \"@openzeppelin/contracts/access/Ownable.sol\":1796:1958  function _checkOwner() internal view virtual {... */\n      jump\t// out\n        /* \"@openzeppelin/contracts/access/Ownable.sol\":2912:3099  function _transferOwnership(address newOwner) internal virtual {... */\n    tag_87:\n        /* \"@openzeppelin/contracts/access/Ownable.sol\":2985:3001  address oldOwner */\n      0x00\n        /* \"@openzeppelin/contracts/access/Ownable.sol\":3004:3010  _owner */\n      0x00\n      0x00\n      swap1\n      sload\n      swap1\n      0x0100\n      exp\n      swap1\n      div\n      0xffffffffffffffffffffffffffffffffffffffff\n      and\n        /* \"@openzeppelin/contracts/access/Ownable.sol\":2985:3010  address oldOwner = _owner */\n      swap1\n      pop\n        /* \"@openzeppelin/contracts/access/Ownable.sol\":3029:3037  newOwner */\n      dup2\n        /* \"@openzeppelin/contracts/access/Ownable.sol\":3020:3026  _owner */\n      0x00\n      0x00\n        /* \"@openzeppelin/contracts/access/Ownable.sol\":3020:3037  _owner = newOwner */\n      0x0100\n      exp\n      dup2\n      sload\n      dup2\n      0xffffffffffffffffffffffffffffffffffffffff\n      mul\n      not\n      and\n      swap1\n      dup4\n      0xffffffffffffffffffffffffffffffffffffffff\n      and\n      mul\n      or\n      swap1\n      sstore\n      pop\n        /* \"@openzeppelin/contracts/access/Ownable.sol\":3083:3091  newOwner */\n      dup2\n        /* \"@openzeppelin/contracts/access/Ownable.sol\":3052:3092  OwnershipTransferred(oldOwner, newOwner) */\n      0xffffffffffffffffffffffffffffffffffffffff\n      and\n        /* \"@openzeppelin/contracts/access/Ownable.sol\":3073:3081  oldOwner */\n      dup2\n        /* \"@openzeppelin/contracts/access/Ownable.sol\":3052:3092  OwnershipTransferred(oldOwner, newOwner) */\n      0xffffffffffffffffffffffffffffffffffffffff\n      and\n      0x8be0079c531659141344cd1fd0a4f28419497f9722a3daafe3b4186f6b6457e0\n      mload(0x40)\n      mload(0x40)\n      dup1\n      swap2\n      sub\n      swap1\n      log3\n        /* \"@openzeppelin/contracts/access/Ownable.sol\":2975:3099  {... */\n      pop\n        /* \"@openzeppelin/contracts/access/Ownable.sol\":2912:3099  function _transferOwnership(address newOwner) internal virtual {... */\n      pop\n      jump\t// out\n        /* \"@openzeppelin/contracts/utils/Context.sol\":656:752  function _msgSender() internal view virtual returns (address) {... */\n    tag_106:\n        /* \"@openzeppelin/contracts/utils/Context.sol\":709:716  address */\n      0x00\n        /* \"@openzeppelin/contracts/utils/Context.sol\":735:745  msg.sender */\n      caller\n        /* \"@openzeppelin/contracts/utils/Context.sol\":728:745  return msg.sender */\n      swap1\n      pop\n        /* \"@openzeppelin/contracts/utils/Context.sol\":656:752  function _msgSender() internal view virtual returns (address) {... */\n      swap1\n      jump\t// out\n        /* \"#utility.yul\":88:205   */\n    tag_114:\n        /* \"#utility.yul\":197:198   */\n      0x00\n        /* \"#utility.yul\":194:195   */\n      0x00\n        /* \"#utility.yul\":187:199   */\n      revert\n        /* \"#utility.yul\":211:328   */\n    tag_115:\n        /* \"#utility.yul\":320:321   */\n      0x00\n        /* \"#utility.yul\":317:318   */\n      0x00\n        /* \"#utility.yul\":310:322   */\n      revert\n        /* \"#utility.yul\":334:411   */\n    tag_116:\n        /* \"#utility.yul\":371:378   */\n      0x00\n        /* \"#utility.yul\":400:405   */\n      dup2\n        /* \"#utility.yul\":389:405   */\n      swap1\n      pop\n        /* \"#utility.yul\":334:411   */\n      swap2\n      swap1\n      pop\n      jump\t// out\n        /* \"#utility.yul\":417:539   */\n    tag_117:\n        /* \"#utility.yul\":490:514   */\n      tag_175\n        /* \"#utility.yul\":508:513   */\n      dup2\n        /* \"#utility.yul\":490:514   */\n      tag_116\n      jump\t// in\n    tag_175:\n        /* \"#utility.yul\":483:488   */\n      dup2\n        /* \"#utility.yul\":480:515   */\n      eq\n        /* \"#utility.yul\":470:533   */\n      tag_176\n      jumpi\n        /* \"#utility.yul\":529:530   */\n      0x00\n        /* \"#utility.yul\":526:527   */\n      0x00\n        /* \"#utility.yul\":519:531   */\n      revert\n        /* \"#utility.yul\":470:533   */\n    tag_176:\n        /* \"#utility.yul\":417:539   */\n      pop\n      jump\t// out\n        /* \"#utility.yul\":545:684   */\n    tag_118:\n        /* \"#utility.yul\":591:596   */\n      0x00\n        /* \"#utility.yul\":629:635   */\n      dup2\n        /* \"#utility.yul\":616:636   */\n      calldataload\n        /* \"#utility.yul\":607:636   */\n      swap1\n      pop\n        /* \"#utility.yul\":645:678   */\n      tag_178\n        /* \"#utility.yul\":672:677   */\n      dup2\n        /* \"#utility.yul\":645:678   */\n      tag_117\n      jump\t// in\n    tag_178:\n        /* \"#utility.yul\":545:684   */\n      swap3\n      swap2\n      pop\n      pop\n      jump\t// out\n        /* \"#utility.yul\":690:807   */\n    tag_119:\n        /* \"#utility.yul\":799:800   */\n      0x00\n        /* \"#utility.yul\":796:797   */\n      0x00\n        /* \"#utility.yul\":789:801   */\n      revert\n        /* \"#utility.yul\":813:930   */\n    tag_120:\n        /* \"#utility.yul\":922:923   */\n      0x00\n        /* \"#utility.yul\":919:920   */\n      0x00\n        /* \"#utility.yul\":912:924   */\n      revert\n        /* \"#utility.yul\":936:1053   */\n    tag_121:\n        /* \"#utility.yul\":1045:1046   */\n      0x00\n        /* \"#utility.yul\":1042:1043   */\n      0x00\n        /* \"#utility.yul\":1035:1047   */\n      revert\n        /* \"#utility.yul\":1073:1626   */\n    tag_122:\n        /* \"#utility.yul\":1131:1139   */\n      0x00\n        /* \"#utility.yul\":1141:1147   */\n      0x00\n        /* \"#utility.yul\":1191:1194   */\n      dup4\n        /* \"#utility.yul\":1184:1188   */\n      0x1f\n        /* \"#utility.yul\":1176:1182   */\n      dup5\n        /* \"#utility.yul\":1172:1189   */\n      add\n        /* \"#utility.yul\":1168:1195   */\n      slt\n        /* \"#utility.yul\":1158:1280   */\n      tag_183\n      jumpi\n        /* \"#utility.yul\":1199:1278   */\n      tag_184\n      tag_119\n      jump\t// in\n    tag_184:\n        /* \"#utility.yul\":1158:1280   */\n    tag_183:\n        /* \"#utility.yul\":1312:1318   */\n      dup3\n        /* \"#utility.yul\":1299:1319   */\n      calldataload\n        /* \"#utility.yul\":1289:1319   */\n      swap1\n      pop\n        /* \"#utility.yul\":1342:1360   */\n      0xffffffffffffffff\n        /* \"#utility.yul\":1334:1340   */\n      dup2\n        /* \"#utility.yul\":1331:1361   */\n      gt\n        /* \"#utility.yul\":1328:1445   */\n      iszero\n      tag_185\n      jumpi\n        /* \"#utility.yul\":1364:1443   */\n      tag_186\n      tag_120\n      jump\t// in\n    tag_186:\n        /* \"#utility.yul\":1328:1445   */\n    tag_185:\n        /* \"#utility.yul\":1478:1482   */\n      0x20\n        /* \"#utility.yul\":1470:1476   */\n      dup4\n        /* \"#utility.yul\":1466:1483   */\n      add\n        /* \"#utility.yul\":1454:1483   */\n      swap2\n      pop\n        /* \"#utility.yul\":1532:1535   */\n      dup4\n        /* \"#utility.yul\":1524:1528   */\n      0x01\n        /* \"#utility.yul\":1516:1522   */\n      dup3\n        /* \"#utility.yul\":1512:1529   */\n      mul\n        /* \"#utility.yul\":1502:1510   */\n      dup4\n        /* \"#utility.yul\":1498:1530   */\n      add\n        /* \"#utility.yul\":1495:1536   */\n      gt\n        /* \"#utility.yul\":1492:1620   */\n      iszero\n      tag_187\n      jumpi\n        /* \"#utility.yul\":1539:1618   */\n      tag_188\n      tag_121\n      jump\t// in\n    tag_188:\n        /* \"#utility.yul\":1492:1620   */\n    tag_187:\n        /* \"#utility.yul\":1073:1626   */\n      swap3\n      pop\n      swap3\n      swap1\n      pop\n      jump\t// out\n        /* \"#utility.yul\":1632:2306   */\n    tag_15:\n        /* \"#utility.yul\":1712:1718   */\n      0x00\n        /* \"#utility.yul\":1720:1726   */\n      0x00\n        /* \"#utility.yul\":1728:1734   */\n      0x00\n        /* \"#utility.yul\":1777:1779   */\n      0x40\n        /* \"#utility.yul\":1765:1774   */\n      dup5\n        /* \"#utility.yul\":1756:1763   */\n      dup7\n        /* \"#utility.yul\":1752:1775   */\n      sub\n        /* \"#utility.yul\":1748:1780   */\n      slt\n        /* \"#utility.yul\":1745:1864   */\n      iszero\n      tag_190\n      jumpi\n        /* \"#utility.yul\":1783:1862   */\n      tag_191\n      tag_114\n      jump\t// in\n    tag_191:\n        /* \"#utility.yul\":1745:1864   */\n    tag_190:\n        /* \"#utility.yul\":1903:1904   */\n      0x00\n        /* \"#utility.yul\":1928:1981   */\n      tag_192\n        /* \"#utility.yul\":1973:1980   */\n      dup7\n        /* \"#utility.yul\":1964:1970   */\n      dup3\n        /* \"#utility.yul\":1953:1962   */\n      dup8\n        /* \"#utility.yul\":1949:1971   */\n      add\n        /* \"#utility.yul\":1928:1981   */\n      tag_118\n      jump\t// in\n    tag_192:\n        /* \"#utility.yul\":1918:1981   */\n      swap4\n      pop\n        /* \"#utility.yul\":1874:1991   */\n      pop\n        /* \"#utility.yul\":2058:2060   */\n      0x20\n        /* \"#utility.yul\":2047:2056   */\n      dup5\n        /* \"#utility.yul\":2043:2061   */\n      add\n        /* \"#utility.yul\":2030:2062   */\n      calldataload\n        /* \"#utility.yul\":2089:2107   */\n      0xffffffffffffffff\n        /* \"#utility.yul\":2081:2087   */\n      dup2\n        /* \"#utility.yul\":2078:2108   */\n      gt\n        /* \"#utility.yul\":2075:2192   */\n      iszero\n      tag_193\n      jumpi\n        /* \"#utility.yul\":2111:2190   */\n      tag_194\n      tag_115\n      jump\t// in\n    tag_194:\n        /* \"#utility.yul\":2075:2192   */\n    tag_193:\n        /* \"#utility.yul\":2224:2289   */\n      tag_195\n        /* \"#utility.yul\":2281:2288   */\n      dup7\n        /* \"#utility.yul\":2272:2278   */\n      dup3\n        /* \"#utility.yul\":2261:2270   */\n      dup8\n        /* \"#utility.yul\":2257:2279   */\n      add\n        /* \"#utility.yul\":2224:2289   */\n      tag_122\n      jump\t// in\n    tag_195:\n        /* \"#utility.yul\":2206:2289   */\n      swap3\n      pop\n      swap3\n      pop\n        /* \"#utility.yul\":2001:2299   */\n      pop\n        /* \"#utility.yul\":1632:2306   */\n      swap3\n      pop\n      swap3\n      pop\n      swap3\n      jump\t// out\n        /* \"#utility.yul\":2312:2426   */\n    tag_123:\n        /* \"#utility.yul\":2400:2401   */\n      0x04\n        /* \"#utility.yul\":2393:2398   */\n      dup2\n        /* \"#utility.yul\":2390:2402   */\n      lt\n        /* \"#utility.yul\":2380:2420   */\n      tag_197\n      jumpi\n        /* \"#utility.yul\":2416:2417   */\n      0x00\n        /* \"#utility.yul\":2413:2414   */\n      0x00\n        /* \"#utility.yul\":2406:2418   */\n      revert\n        /* \"#utility.yul\":2380:2420   */\n    tag_197:\n        /* \"#utility.yul\":2312:2426   */\n      pop\n      jump\t// out\n        /* \"#utility.yul\":2432:2601   */\n    tag_124:\n        /* \"#utility.yul\":2493:2498   */\n      0x00\n        /* \"#utility.yul\":2531:2537   */\n      dup2\n        /* \"#utility.yul\":2518:2538   */\n      calldataload\n        /* \"#utility.yul\":2509:2538   */\n      swap1\n      pop\n        /* \"#utility.yul\":2547:2595   */\n      tag_199\n        /* \"#utility.yul\":2589:2594   */\n      dup2\n        /* \"#utility.yul\":2547:2595   */\n      tag_123\n      jump\t// in\n    tag_199:\n        /* \"#utility.yul\":2432:2601   */\n      swap3\n      swap2\n      pop\n      pop\n      jump\t// out\n        /* \"#utility.yul\":2607:3111   */\n    tag_19:\n        /* \"#utility.yul\":2690:2696   */\n      0x00\n        /* \"#utility.yul\":2698:2704   */\n      0x00\n        /* \"#utility.yul\":2747:2749   */\n      0x40\n        /* \"#utility.yul\":2735:2744   */\n      dup4\n        /* \"#utility.yul\":2726:2733   */\n      dup6\n        /* \"#utility.yul\":2722:2745   */\n      sub\n        /* \"#utility.yul\":2718:2750   */\n      slt\n        /* \"#utility.yul\":2715:2834   */\n      iszero\n      tag_201\n      jumpi\n        /* \"#utility.yul\":2753:2832   */\n      tag_202\n      tag_114\n      jump\t// in\n    tag_202:\n        /* \"#utility.yul\":2715:2834   */\n    tag_201:\n        /* \"#utility.yul\":2873:2874   */\n      0x00\n        /* \"#utility.yul\":2898:2951   */\n      tag_203\n        /* \"#utility.yul\":2943:2950   */\n      dup6\n        /* \"#utility.yul\":2934:2940   */\n      dup3\n        /* \"#utility.yul\":2923:2932   */\n      dup7\n        /* \"#utility.yul\":2919:2941   */\n      add\n        /* \"#utility.yul\":2898:2951   */\n      tag_118\n      jump\t// in\n    tag_203:\n        /* \"#utility.yul\":2888:2951   */\n      swap3\n      pop\n        /* \"#utility.yul\":2844:2961   */\n      pop\n        /* \"#utility.yul\":3000:3002   */\n      0x20\n        /* \"#utility.yul\":3026:3094   */\n      tag_204\n        /* \"#utility.yul\":3086:3093   */\n      dup6\n        /* \"#utility.yul\":3077:3083   */\n      dup3\n        /* \"#utility.yul\":3066:3075   */\n      dup7\n        /* \"#utility.yul\":3062:3084   */\n      add\n        /* \"#utility.yul\":3026:3094   */\n      tag_124\n      jump\t// in\n    tag_204:\n        /* \"#utility.yul\":3016:3094   */\n      swap2\n      pop\n        /* \"#utility.yul\":2971:3104   */\n      pop\n        /* \"#utility.yul\":2607:3111   */\n      swap3\n      pop\n      swap3\n      swap1\n      pop\n      jump\t// out\n        /* \"#utility.yul\":3117:3446   */\n    tag_23:\n        /* \"#utility.yul\":3176:3182   */\n      0x00\n        /* \"#utility.yul\":3225:3227   */\n      0x20\n        /* \"#utility.yul\":3213:3222   */\n      dup3\n        /* \"#utility.yul\":3204:3211   */\n      dup5\n        /* \"#utility.yul\":3200:3223   */\n      sub\n        /* \"#utility.yul\":3196:3228   */\n      slt\n        /* \"#utility.yul\":3193:3312   */\n      iszero\n      tag_206\n      jumpi\n        /* \"#utility.yul\":3231:3310   */\n      tag_207\n      tag_114\n      jump\t// in\n    tag_207:\n        /* \"#utility.yul\":3193:3312   */\n    tag_206:\n        /* \"#utility.yul\":3351:3352   */\n      0x00\n        /* \"#utility.yul\":3376:3429   */\n      tag_208\n        /* \"#utility.yul\":3421:3428   */\n      dup5\n        /* \"#utility.yul\":3412:3418   */\n      dup3\n        /* \"#utility.yul\":3401:3410   */\n      dup6\n        /* \"#utility.yul\":3397:3419   */\n      add\n        /* \"#utility.yul\":3376:3429   */\n      tag_118\n      jump\t// in\n    tag_208:\n        /* \"#utility.yul\":3366:3429   */\n      swap2\n      pop\n        /* \"#utility.yul\":3322:3439   */\n      pop\n        /* \"#utility.yul\":3117:3446   */\n      swap3\n      swap2\n      pop\n      pop\n      jump\t// out\n        /* \"#utility.yul\":3452:3529   */\n    tag_125:\n        /* \"#utility.yul\":3489:3496   */\n      0x00\n        /* \"#utility.yul\":3518:3523   */\n      dup2\n        /* \"#utility.yul\":3507:3523   */\n      swap1\n      pop\n        /* \"#utility.yul\":3452:3529   */\n      swap2\n      swap1\n      pop\n      jump\t// out\n        /* \"#utility.yul\":3535:3653   */\n    tag_126:\n        /* \"#utility.yul\":3622:3646   */\n      tag_211\n        /* \"#utility.yul\":3640:3645   */\n      dup2\n        /* \"#utility.yul\":3622:3646   */\n      tag_125\n      jump\t// in\n    tag_211:\n        /* \"#utility.yul\":3617:3620   */\n      dup3\n        /* \"#utility.yul\":3610:3647   */\n      mstore\n        /* \"#utility.yul\":3535:3653   */\n      pop\n      pop\n      jump\t// out\n        /* \"#utility.yul\":3659:3785   */\n    tag_127:\n        /* \"#utility.yul\":3696:3703   */\n      0x00\n        /* \"#utility.yul\":3736:3778   */\n      0xffffffffffffffffffffffffffffffffffffffff\n        /* \"#utility.yul\":3729:3734   */\n      dup3\n        /* \"#utility.yul\":3725:3779   */\n      and\n        /* \"#utility.yul\":3714:3779   */\n      swap1\n      pop\n        /* \"#utility.yul\":3659:3785   */\n      swap2\n      swap1\n      pop\n      jump\t// out\n        /* \"#utility.yul\":3791:3887   */\n    tag_128:\n        /* \"#utility.yul\":3828:3835   */\n      0x00\n        /* \"#utility.yul\":3857:3881   */\n      tag_214\n        /* \"#utility.yul\":3875:3880   */\n      dup3\n        /* \"#utility.yul\":3857:3881   */\n      tag_127\n      jump\t// in\n    tag_214:\n        /* \"#utility.yul\":3846:3881   */\n      swap1\n      pop\n        /* \"#utility.yul\":3791:3887   */\n      swap2\n      swap1\n      pop\n      jump\t// out\n        /* \"#utility.yul\":3893:4011   */\n    tag_129:\n        /* \"#utility.yul\":3980:4004   */\n      tag_216\n        /* \"#utility.yul\":3998:4003   */\n      dup2\n        /* \"#utility.yul\":3980:4004   */\n      tag_128\n      jump\t// in\n    tag_216:\n        /* \"#utility.yul\":3975:3978   */\n      dup3\n        /* \"#utility.yul\":3968:4005   */\n      mstore\n        /* \"#utility.yul\":3893:4011   */\n      pop\n      pop\n      jump\t// out\n        /* \"#utility.yul\":4017:4197   */\n    tag_68:\n        /* \"#utility.yul\":4065:4142   */\n      0x4e487b7100000000000000000000000000000000000000000000000000000000\n        /* \"#utility.yul\":4062:4063   */\n      0x00\n        /* \"#utility.yul\":4055:4143   */\n      mstore\n        /* \"#utility.yul\":4162:4166   */\n      0x21\n        /* \"#utility.yul\":4159:4160   */\n      0x04\n        /* \"#utility.yul\":4152:4167   */\n      mstore\n        /* \"#utility.yul\":4186:4190   */\n      0x24\n        /* \"#utility.yul\":4183:4184   */\n      0x00\n        /* \"#utility.yul\":4176:4191   */\n      revert\n        /* \"#utility.yul\":4203:4323   */\n    tag_130:\n        /* \"#utility.yul\":4291:4292   */\n      0x04\n        /* \"#utility.yul\":4284:4289   */\n      dup2\n        /* \"#utility.yul\":4281:4293   */\n      lt\n        /* \"#utility.yul\":4271:4317   */\n      tag_219\n      jumpi\n        /* \"#utility.yul\":4297:4315   */\n      tag_220\n      tag_68\n      jump\t// in\n    tag_220:\n        /* \"#utility.yul\":4271:4317   */\n    tag_219:\n        /* \"#utility.yul\":4203:4323   */\n      pop\n      jump\t// out\n        /* \"#utility.yul\":4329:4470   */\n    tag_131:\n        /* \"#utility.yul\":4381:4388   */\n      0x00\n        /* \"#utility.yul\":4410:4415   */\n      dup2\n        /* \"#utility.yul\":4399:4415   */\n      swap1\n      pop\n        /* \"#utility.yul\":4416:4464   */\n      tag_222\n        /* \"#utility.yul\":4458:4463   */\n      dup3\n        /* \"#utility.yul\":4416:4464   */\n      tag_130\n      jump\t// in\n    tag_222:\n        /* \"#utility.yul\":4329:4470   */\n      swap2\n      swap1\n      pop\n      jump\t// out\n        /* \"#utility.yul\":4476:4617   */\n    tag_132:\n        /* \"#utility.yul\":4539:4548   */\n      0x00\n        /* \"#utility.yul\":4572:4611   */\n      tag_224\n        /* \"#utility.yul\":4605:4610   */\n      dup3\n        /* \"#utility.yul\":4572:4611   */\n      tag_131\n      jump\t// in\n    tag_224:\n        /* \"#utility.yul\":4559:4611   */\n      swap1\n      pop\n        /* \"#utility.yul\":4476:4617   */\n      swap2\n      swap1\n      pop\n      jump\t// out\n        /* \"#utility.yul\":4623:4780   */\n    tag_133:\n        /* \"#utility.yul\":4723:4773   */\n      tag_226\n        /* \"#utility.yul\":4767:4772   */\n      dup2\n        /* \"#utility.yul\":4723:4773   */\n      tag_132\n      jump\t// in\n    tag_226:\n        /* \"#utility.yul\":4718:4721   */\n      dup3\n        /* \"#utility.yul\":4711:4774   */\n      mstore\n        /* \"#utility.yul\":4623:4780   */\n      pop\n      pop\n      jump\t// out\n        /* \"#utility.yul\":4786:4885   */\n    tag_134:\n        /* \"#utility.yul\":4838:4844   */\n      0x00\n        /* \"#utility.yul\":4872:4877   */\n      dup2\n        /* \"#utility.yul\":4866:4878   */\n      mload\n        /* \"#utility.yul\":4856:4878   */\n      swap1\n      pop\n        /* \"#utility.yul\":4786:4885   */\n      swap2\n      swap1\n      pop\n      jump\t// out\n        /* \"#utility.yul\":4891:5060   */\n    tag_135:\n        /* \"#utility.yul\":4975:4986   */\n      0x00\n        /* \"#utility.yul\":5009:5015   */\n      dup3\n        /* \"#utility.yul\":5004:5007   */\n      dup3\n        /* \"#utility.yul\":4997:5016   */\n      mstore\n        /* \"#utility.yul\":5049:5053   */\n      0x20\n        /* \"#utility.yul\":5044:5047   */\n      dup3\n        /* \"#utility.yul\":5040:5054   */\n      add\n        /* \"#utility.yul\":5025:5054   */\n      swap1\n      pop\n        /* \"#utility.yul\":4891:5060   */\n      swap3\n      swap2\n      pop\n      pop\n      jump\t// out\n        /* \"#utility.yul\":5066:5205   */\n    tag_136:\n        /* \"#utility.yul\":5155:5161   */\n      dup3\n        /* \"#utility.yul\":5150:5153   */\n      dup2\n        /* \"#utility.yul\":5145:5148   */\n      dup4\n        /* \"#utility.yul\":5139:5162   */\n      mcopy\n        /* \"#utility.yul\":5196:5197   */\n      0x00\n        /* \"#utility.yul\":5187:5193   */\n      dup4\n        /* \"#utility.yul\":5182:5185   */\n      dup4\n        /* \"#utility.yul\":5178:5194   */\n      add\n        /* \"#utility.yul\":5171:5198   */\n      mstore\n        /* \"#utility.yul\":5066:5205   */\n      pop\n      pop\n      pop\n      jump\t// out\n        /* \"#utility.yul\":5211:5313   */\n    tag_137:\n        /* \"#utility.yul\":5252:5258   */\n      0x00\n        /* \"#utility.yul\":5303:5305   */\n      0x1f\n        /* \"#utility.yul\":5299:5306   */\n      not\n        /* \"#utility.yul\":5294:5296   */\n      0x1f\n        /* \"#utility.yul\":5287:5292   */\n      dup4\n        /* \"#utility.yul\":5283:5297   */\n      add\n        /* \"#utility.yul\":5279:5307   */\n      and\n        /* \"#utility.yul\":5269:5307   */\n      swap1\n      pop\n        /* \"#utility.yul\":5211:5313   */\n      swap2\n      swap1\n      pop\n      jump\t// out\n        /* \"#utility.yul\":5319:5696   */\n    tag_138:\n        /* \"#utility.yul\":5407:5410   */\n      0x00\n        /* \"#utility.yul\":5435:5474   */\n      tag_232\n        /* \"#utility.yul\":5468:5473   */\n      dup3\n        /* \"#utility.yul\":5435:5474   */\n      tag_134\n      jump\t// in\n    tag_232:\n        /* \"#utility.yul\":5490:5561   */\n      tag_233\n        /* \"#utility.yul\":5554:5560   */\n      dup2\n        /* \"#utility.yul\":5549:5552   */\n      dup6\n        /* \"#utility.yul\":5490:5561   */\n      tag_135\n      jump\t// in\n    tag_233:\n        /* \"#utility.yul\":5483:5561   */\n      swap4\n      pop\n        /* \"#utility.yul\":5570:5635   */\n      tag_234\n        /* \"#utility.yul\":5628:5634   */\n      dup2\n        /* \"#utility.yul\":5623:5626   */\n      dup6\n        /* \"#utility.yul\":5616:5620   */\n      0x20\n        /* \"#utility.yul\":5609:5614   */\n      dup7\n        /* \"#utility.yul\":5605:5621   */\n      add\n        /* \"#utility.yul\":5570:5635   */\n      tag_136\n      jump\t// in\n    tag_234:\n        /* \"#utility.yul\":5660:5689   */\n      tag_235\n        /* \"#utility.yul\":5682:5688   */\n      dup2\n        /* \"#utility.yul\":5660:5689   */\n      tag_137\n      jump\t// in\n    tag_235:\n        /* \"#utility.yul\":5655:5658   */\n      dup5\n        /* \"#utility.yul\":5651:5690   */\n      add\n        /* \"#utility.yul\":5644:5690   */\n      swap2\n      pop\n        /* \"#utility.yul\":5411:5696   */\n      pop\n        /* \"#utility.yul\":5319:5696   */\n      swap3\n      swap2\n      pop\n      pop\n      jump\t// out\n        /* \"#utility.yul\":5702:5792   */\n    tag_139:\n        /* \"#utility.yul\":5736:5743   */\n      0x00\n        /* \"#utility.yul\":5779:5784   */\n      dup2\n        /* \"#utility.yul\":5772:5785   */\n      iszero\n        /* \"#utility.yul\":5765:5786   */\n      iszero\n        /* \"#utility.yul\":5754:5786   */\n      swap1\n      pop\n        /* \"#utility.yul\":5702:5792   */\n      swap2\n      swap1\n      pop\n      jump\t// out\n        /* \"#utility.yul\":5798:5907   */\n    tag_140:\n        /* \"#utility.yul\":5879:5900   */\n      tag_238\n        /* \"#utility.yul\":5894:5899   */\n      dup2\n        /* \"#utility.yul\":5879:5900   */\n      tag_139\n      jump\t// in\n    tag_238:\n        /* \"#utility.yul\":5874:5877   */\n      dup3\n        /* \"#utility.yul\":5867:5901   */\n      mstore\n        /* \"#utility.yul\":5798:5907   */\n      pop\n      pop\n      jump\t// out\n        /* \"#utility.yul\":5913:6682   */\n    tag_26:\n        /* \"#utility.yul\":6145:6149   */\n      0x00\n        /* \"#utility.yul\":6183:6186   */\n      0xa0\n        /* \"#utility.yul\":6172:6181   */\n      dup3\n        /* \"#utility.yul\":6168:6187   */\n      add\n        /* \"#utility.yul\":6160:6187   */\n      swap1\n      pop\n        /* \"#utility.yul\":6197:6268   */\n      tag_240\n        /* \"#utility.yul\":6265:6266   */\n      0x00\n        /* \"#utility.yul\":6254:6263   */\n      dup4\n        /* \"#utility.yul\":6250:6267   */\n      add\n        /* \"#utility.yul\":6241:6247   */\n      dup9\n        /* \"#utility.yul\":6197:6268   */\n      tag_126\n      jump\t// in\n    tag_240:\n        /* \"#utility.yul\":6278:6350   */\n      tag_241\n        /* \"#utility.yul\":6346:6348   */\n      0x20\n        /* \"#utility.yul\":6335:6344   */\n      dup4\n        /* \"#utility.yul\":6331:6349   */\n      add\n        /* \"#utility.yul\":6322:6328   */\n      dup8\n        /* \"#utility.yul\":6278:6350   */\n      tag_129\n      jump\t// in\n    tag_241:\n        /* \"#utility.yul\":6360:6445   */\n      tag_242\n        /* \"#utility.yul\":6441:6443   */\n      0x40\n        /* \"#utility.yul\":6430:6439   */\n      dup4\n        /* \"#utility.yul\":6426:6444   */\n      add\n        /* \"#utility.yul\":6417:6423   */\n      dup7\n        /* \"#utility.yul\":6360:6445   */\n      tag_133\n      jump\t// in\n    tag_242:\n        /* \"#utility.yul\":6492:6501   */\n      dup2\n        /* \"#utility.yul\":6486:6490   */\n      dup2\n        /* \"#utility.yul\":6482:6502   */\n      sub\n        /* \"#utility.yul\":6477:6479   */\n      0x60\n        /* \"#utility.yul\":6466:6475   */\n      dup4\n        /* \"#utility.yul\":6462:6480   */\n      add\n        /* \"#utility.yul\":6455:6503   */\n      mstore\n        /* \"#utility.yul\":6520:6598   */\n      tag_243\n        /* \"#utility.yul\":6593:6597   */\n      dup2\n        /* \"#utility.yul\":6584:6590   */\n      dup6\n        /* \"#utility.yul\":6520:6598   */\n      tag_138\n      jump\t// in\n    tag_243:\n        /* \"#utility.yul\":6512:6598   */\n      swap1\n      pop\n        /* \"#utility.yul\":6608:6675   */\n      tag_244\n        /* \"#utility.yul\":6670:6673   */\n      0x80\n        /* \"#utility.yul\":6659:6668   */\n      dup4\n        /* \"#utility.yul\":6655:6674   */\n      add\n        /* \"#utility.yul\":6646:6652   */\n      dup5\n        /* \"#utility.yul\":6608:6675   */\n      tag_140\n      jump\t// in\n    tag_244:\n        /* \"#utility.yul\":5913:6682   */\n      swap7\n      swap6\n      pop\n      pop\n      pop\n      pop\n      pop\n      pop\n      jump\t// out\n        /* \"#utility.yul\":6688:6910   */\n    tag_35:\n        /* \"#utility.yul\":6781:6785   */\n      0x00\n        /* \"#utility.yul\":6819:6821   */\n      0x20\n        /* \"#utility.yul\":6808:6817   */\n      dup3\n        /* \"#utility.yul\":6804:6822   */\n      add\n        /* \"#utility.yul\":6796:6822   */\n      swap1\n      pop\n        /* \"#utility.yul\":6832:6903   */\n      tag_246\n        /* \"#utility.yul\":6900:6901   */\n      0x00\n        /* \"#utility.yul\":6889:6898   */\n      dup4\n        /* \"#utility.yul\":6885:6902   */\n      add\n        /* \"#utility.yul\":6876:6882   */\n      dup5\n        /* \"#utility.yul\":6832:6903   */\n      tag_129\n      jump\t// in\n    tag_246:\n        /* \"#utility.yul\":6688:6910   */\n      swap3\n      swap2\n      pop\n      pop\n      jump\t// out\n        /* \"#utility.yul\":6916:7038   */\n    tag_141:\n        /* \"#utility.yul\":6989:7013   */\n      tag_248\n        /* \"#utility.yul\":7007:7012   */\n      dup2\n        /* \"#utility.yul\":6989:7013   */\n      tag_125\n      jump\t// in\n    tag_248:\n        /* \"#utility.yul\":6982:6987   */\n      dup2\n        /* \"#utility.yul\":6979:7014   */\n      eq\n        /* \"#utility.yul\":6969:7032   */\n      tag_249\n      jumpi\n        /* \"#utility.yul\":7028:7029   */\n      0x00\n        /* \"#utility.yul\":7025:7026   */\n      0x00\n        /* \"#utility.yul\":7018:7030   */\n      revert\n        /* \"#utility.yul\":6969:7032   */\n    tag_249:\n        /* \"#utility.yul\":6916:7038   */\n      pop\n      jump\t// out\n        /* \"#utility.yul\":7044:7183   */\n    tag_142:\n        /* \"#utility.yul\":7090:7095   */\n      0x00\n        /* \"#utility.yul\":7128:7134   */\n      dup2\n        /* \"#utility.yul\":7115:7135   */\n      calldataload\n        /* \"#utility.yul\":7106:7135   */\n      swap1\n      pop\n        /* \"#utility.yul\":7144:7177   */\n      tag_251\n        /* \"#utility.yul\":7171:7176   */\n      dup2\n        /* \"#utility.yul\":7144:7177   */\n      tag_141\n      jump\t// in\n    tag_251:\n        /* \"#utility.yul\":7044:7183   */\n      swap3\n      swap2\n      pop\n      pop\n      jump\t// out\n        /* \"#utility.yul\":7189:7863   */\n    tag_38:\n        /* \"#utility.yul\":7269:7275   */\n      0x00\n        /* \"#utility.yul\":7277:7283   */\n      0x00\n        /* \"#utility.yul\":7285:7291   */\n      0x00\n        /* \"#utility.yul\":7334:7336   */\n      0x40\n        /* \"#utility.yul\":7322:7331   */\n      dup5\n        /* \"#utility.yul\":7313:7320   */\n      dup7\n        /* \"#utility.yul\":7309:7332   */\n      sub\n        /* \"#utility.yul\":7305:7337   */\n      slt\n        /* \"#utility.yul\":7302:7421   */\n      iszero\n      tag_253\n      jumpi\n        /* \"#utility.yul\":7340:7419   */\n      tag_254\n      tag_114\n      jump\t// in\n    tag_254:\n        /* \"#utility.yul\":7302:7421   */\n    tag_253:\n        /* \"#utility.yul\":7460:7461   */\n      0x00\n        /* \"#utility.yul\":7485:7538   */\n      tag_255\n        /* \"#utility.yul\":7530:7537   */\n      dup7\n        /* \"#utility.yul\":7521:7527   */\n      dup3\n        /* \"#utility.yul\":7510:7519   */\n      dup8\n        /* \"#utility.yul\":7506:7528   */\n      add\n        /* \"#utility.yul\":7485:7538   */\n      tag_142\n      jump\t// in\n    tag_255:\n        /* \"#utility.yul\":7475:7538   */\n      swap4\n      pop\n        /* \"#utility.yul\":7431:7548   */\n      pop\n        /* \"#utility.yul\":7615:7617   */\n      0x20\n        /* \"#utility.yul\":7604:7613   */\n      dup5\n        /* \"#utility.yul\":7600:7618   */\n      add\n        /* \"#utility.yul\":7587:7619   */\n      calldataload\n        /* \"#utility.yul\":7646:7664   */\n      0xffffffffffffffff\n        /* \"#utility.yul\":7638:7644   */\n      dup2\n        /* \"#utility.yul\":7635:7665   */\n      gt\n        /* \"#utility.yul\":7632:7749   */\n      iszero\n      tag_256\n      jumpi\n        /* \"#utility.yul\":7668:7747   */\n      tag_257\n      tag_115\n      jump\t// in\n    tag_257:\n        /* \"#utility.yul\":7632:7749   */\n    tag_256:\n        /* \"#utility.yul\":7781:7846   */\n      tag_258\n        /* \"#utility.yul\":7838:7845   */\n      dup7\n        /* \"#utility.yul\":7829:7835   */\n      dup3\n        /* \"#utility.yul\":7818:7827   */\n      dup8\n        /* \"#utility.yul\":7814:7836   */\n      add\n        /* \"#utility.yul\":7781:7846   */\n      tag_122\n      jump\t// in\n    tag_258:\n        /* \"#utility.yul\":7763:7846   */\n      swap3\n      pop\n      swap3\n      pop\n        /* \"#utility.yul\":7558:7856   */\n      pop\n        /* \"#utility.yul\":7189:7863   */\n      swap3\n      pop\n      swap3\n      pop\n      swap3\n      jump\t// out\n        /* \"#utility.yul\":7869:7987   */\n    tag_143:\n        /* \"#utility.yul\":7956:7980   */\n      tag_260\n        /* \"#utility.yul\":7974:7979   */\n      dup2\n        /* \"#utility.yul\":7956:7980   */\n      tag_116\n      jump\t// in\n    tag_260:\n        /* \"#utility.yul\":7951:7954   */\n      dup3\n        /* \"#utility.yul\":7944:7981   */\n      mstore\n        /* \"#utility.yul\":7869:7987   */\n      pop\n      pop\n      jump\t// out\n        /* \"#utility.yul\":7993:8215   */\n    tag_43:\n        /* \"#utility.yul\":8086:8090   */\n      0x00\n        /* \"#utility.yul\":8124:8126   */\n      0x20\n        /* \"#utility.yul\":8113:8122   */\n      dup3\n        /* \"#utility.yul\":8109:8127   */\n      add\n        /* \"#utility.yul\":8101:8127   */\n      swap1\n      pop\n        /* \"#utility.yul\":8137:8208   */\n      tag_262\n        /* \"#utility.yul\":8205:8206   */\n      0x00\n        /* \"#utility.yul\":8194:8203   */\n      dup4\n        /* \"#utility.yul\":8190:8207   */\n      add\n        /* \"#utility.yul\":8181:8187   */\n      dup5\n        /* \"#utility.yul\":8137:8208   */\n      tag_143\n      jump\t// in\n    tag_262:\n        /* \"#utility.yul\":7993:8215   */\n      swap3\n      swap2\n      pop\n      pop\n      jump\t// out\n        /* \"#utility.yul\":8221:8343   */\n    tag_144:\n        /* \"#utility.yul\":8294:8318   */\n      tag_264\n        /* \"#utility.yul\":8312:8317   */\n      dup2\n        /* \"#utility.yul\":8294:8318   */\n      tag_128\n      jump\t// in\n    tag_264:\n        /* \"#utility.yul\":8287:8292   */\n      dup2\n        /* \"#utility.yul\":8284:8319   */\n      eq\n        /* \"#utility.yul\":8274:8337   */\n      tag_265\n      jumpi\n        /* \"#utility.yul\":8333:8334   */\n      0x00\n        /* \"#utility.yul\":8330:8331   */\n      0x00\n        /* \"#utility.yul\":8323:8335   */\n      revert\n        /* \"#utility.yul\":8274:8337   */\n    tag_265:\n        /* \"#utility.yul\":8221:8343   */\n      pop\n      jump\t// out\n        /* \"#utility.yul\":8349:8488   */\n    tag_145:\n        /* \"#utility.yul\":8395:8400   */\n      0x00\n        /* \"#utility.yul\":8433:8439   */\n      dup2\n        /* \"#utility.yul\":8420:8440   */\n      calldataload\n        /* \"#utility.yul\":8411:8440   */\n      swap1\n      pop\n        /* \"#utility.yul\":8449:8482   */\n      tag_267\n        /* \"#utility.yul\":8476:8481   */\n      dup2\n        /* \"#utility.yul\":8449:8482   */\n      tag_144\n      jump\t// in\n    tag_267:\n        /* \"#utility.yul\":8349:8488   */\n      swap3\n      swap2\n      pop\n      pop\n      jump\t// out\n        /* \"#utility.yul\":8494:8823   */\n    tag_46:\n        /* \"#utility.yul\":8553:8559   */\n      0x00\n        /* \"#utility.yul\":8602:8604   */\n      0x20\n        /* \"#utility.yul\":8590:8599   */\n      dup3\n        /* \"#utility.yul\":8581:8588   */\n      dup5\n        /* \"#utility.yul\":8577:8600   */\n      sub\n        /* \"#utility.yul\":8573:8605   */\n      slt\n        /* \"#utility.yul\":8570:8689   */\n      iszero\n      tag_269\n      jumpi\n        /* \"#utility.yul\":8608:8687   */\n      tag_270\n      tag_114\n      jump\t// in\n    tag_270:\n        /* \"#utility.yul\":8570:8689   */\n    tag_269:\n        /* \"#utility.yul\":8728:8729   */\n      0x00\n        /* \"#utility.yul\":8753:8806   */\n      tag_271\n        /* \"#utility.yul\":8798:8805   */\n      dup5\n        /* \"#utility.yul\":8789:8795   */\n      dup3\n        /* \"#utility.yul\":8778:8787   */\n      dup6\n        /* \"#utility.yul\":8774:8796   */\n      add\n        /* \"#utility.yul\":8753:8806   */\n      tag_145\n      jump\t// in\n    tag_271:\n        /* \"#utility.yul\":8743:8806   */\n      swap2\n      pop\n        /* \"#utility.yul\":8699:8816   */\n      pop\n        /* \"#utility.yul\":8494:8823   */\n      swap3\n      swap2\n      pop\n      pop\n      jump\t// out\n        /* \"#utility.yul\":8829:9010   */\n    tag_146:\n        /* \"#utility.yul\":8969:9002   */\n      0x4d6f64656c52656769737472793a20496e76616c6964206d6f64656c20494400\n        /* \"#utility.yul\":8965:8966   */\n      0x00\n        /* \"#utility.yul\":8957:8963   */\n      dup3\n        /* \"#utility.yul\":8953:8967   */\n      add\n        /* \"#utility.yul\":8946:9003   */\n      mstore\n        /* \"#utility.yul\":8829:9010   */\n      pop\n      jump\t// out\n        /* \"#utility.yul\":9016:9382   */\n    tag_147:\n        /* \"#utility.yul\":9158:9161   */\n      0x00\n        /* \"#utility.yul\":9179:9246   */\n      tag_274\n        /* \"#utility.yul\":9243:9245   */\n      0x1f\n        /* \"#utility.yul\":9238:9241   */\n      dup4\n        /* \"#utility.yul\":9179:9246   */\n      tag_135\n      jump\t// in\n    tag_274:\n        /* \"#utility.yul\":9172:9246   */\n      swap2\n      pop\n        /* \"#utility.yul\":9255:9348   */\n      tag_275\n        /* \"#utility.yul\":9344:9347   */\n      dup3\n        /* \"#utility.yul\":9255:9348   */\n      tag_146\n      jump\t// in\n    tag_275:\n        /* \"#utility.yul\":9373:9375   */\n      0x20\n        /* \"#utility.yul\":9368:9371   */\n      dup3\n        /* \"#utility.yul\":9364:9376   */\n      add\n        /* \"#utility.yul\":9357:9376   */\n      swap1\n      pop\n        /* \"#utility.yul\":9016:9382   */\n      swap2\n      swap1\n      pop\n      jump\t// out\n        /* \"#utility.yul\":9388:9807   */\n    tag_55:\n        /* \"#utility.yul\":9554:9558   */\n      0x00\n        /* \"#utility.yul\":9592:9594   */\n      0x20\n        /* \"#utility.yul\":9581:9590   */\n      dup3\n        /* \"#utility.yul\":9577:9595   */\n      add\n        /* \"#utility.yul\":9569:9595   */\n      swap1\n      pop\n        /* \"#utility.yul\":9641:9650   */\n      dup2\n        /* \"#utility.yul\":9635:9639   */\n      dup2\n        /* \"#utility.yul\":9631:9651   */\n      sub\n        /* \"#utility.yul\":9627:9628   */\n      0x00\n        /* \"#utility.yul\":9616:9625   */\n      dup4\n        /* \"#utility.yul\":9612:9629   */\n      add\n        /* \"#utility.yul\":9605:9652   */\n      mstore\n        /* \"#utility.yul\":9669:9800   */\n      tag_277\n        /* \"#utility.yul\":9795:9799   */\n      dup2\n        /* \"#utility.yul\":9669:9800   */\n      tag_147\n      jump\t// in\n    tag_277:\n        /* \"#utility.yul\":9661:9800   */\n      swap1\n      pop\n        /* \"#utility.yul\":9388:9807   */\n      swap2\n      swap1\n      pop\n      jump\t// out\n        /* \"#utility.yul\":9813:9910   */\n    tag_148:\n        /* \"#utility.yul\":9872:9878   */\n      0x00\n        /* \"#utility.yul\":9900:9903   */\n      dup3\n        /* \"#utility.yul\":9890:9903   */\n      swap1\n      pop\n        /* \"#utility.yul\":9813:9910   */\n      swap3\n      swap2\n      pop\n      pop\n      jump\t// out\n        /* \"#utility.yul\":9916:10096   */\n    tag_149:\n        /* \"#utility.yul\":9964:10041   */\n      0x4e487b7100000000000000000000000000000000000000000000000000000000\n        /* \"#utility.yul\":9961:9962   */\n      0x00\n        /* \"#utility.yul\":9954:10042   */\n      mstore\n        /* \"#utility.yul\":10061:10065   */\n      0x41\n        /* \"#utility.yul\":10058:10059   */\n      0x04\n        /* \"#utility.yul\":10051:10066   */\n      mstore\n        /* \"#utility.yul\":10085:10089   */\n      0x24\n        /* \"#utility.yul\":10082:10083   */\n      0x00\n        /* \"#utility.yul\":10075:10090   */\n      revert\n        /* \"#utility.yul\":10102:10282   */\n    tag_150:\n        /* \"#utility.yul\":10150:10227   */\n      0x4e487b7100000000000000000000000000000000000000000000000000000000\n        /* \"#utility.yul\":10147:10148   */\n      0x00\n        /* \"#utility.yul\":10140:10228   */\n      mstore\n        /* \"#utility.yul\":10247:10251   */\n      0x22\n        /* \"#utility.yul\":10244:10245   */\n      0x04\n        /* \"#utility.yul\":10237:10252   */\n      mstore\n        /* \"#utility.yul\":10271:10275   */\n      0x24\n        /* \"#utility.yul\":10268:10269   */\n      0x00\n        /* \"#utility.yul\":10261:10276   */\n      revert\n        /* \"#utility.yul\":10288:10608   */\n    tag_72:\n        /* \"#utility.yul\":10332:10338   */\n      0x00\n        /* \"#utility.yul\":10369:10370   */\n      0x02\n        /* \"#utility.yul\":10363:10367   */\n      dup3\n        /* \"#utility.yul\":10359:10371   */\n      div\n        /* \"#utility.yul\":10349:10371   */\n      swap1\n      pop\n        /* \"#utility.yul\":10416:10417   */\n      0x01\n        /* \"#utility.yul\":10410:10414   */\n      dup3\n        /* \"#utility.yul\":10406:10418   */\n      and\n        /* \"#utility.yul\":10437:10455   */\n      dup1\n        /* \"#utility.yul\":10427:10508   */\n      tag_282\n      jumpi\n        /* \"#utility.yul\":10493:10497   */\n      0x7f\n        /* \"#utility.yul\":10485:10491   */\n      dup3\n        /* \"#utility.yul\":10481:10498   */\n      and\n        /* \"#utility.yul\":10471:10498   */\n      swap2\n      pop\n        /* \"#utility.yul\":10427:10508   */\n    tag_282:\n        /* \"#utility.yul\":10555:10557   */\n      0x20\n        /* \"#utility.yul\":10547:10553   */\n      dup3\n        /* \"#utility.yul\":10544:10558   */\n      lt\n        /* \"#utility.yul\":10524:10542   */\n      dup2\n        /* \"#utility.yul\":10521:10559   */\n      sub\n        /* \"#utility.yul\":10518:10602   */\n      tag_283\n      jumpi\n        /* \"#utility.yul\":10574:10592   */\n      tag_284\n      tag_150\n      jump\t// in\n    tag_284:\n        /* \"#utility.yul\":10518:10602   */\n    tag_283:\n        /* \"#utility.yul\":10339:10608   */\n      pop\n        /* \"#utility.yul\":10288:10608   */\n      swap2\n      swap1\n      pop\n      jump\t// out\n        /* \"#utility.yul\":10614:10755   */\n    tag_151:\n        /* \"#utility.yul\":10663:10667   */\n      0x00\n        /* \"#utility.yul\":10686:10689   */\n      dup2\n        /* \"#utility.yul\":10678:10689   */\n      swap1\n      pop\n        /* \"#utility.yul\":10709:10712   */\n      dup2\n        /* \"#utility.yul\":10706:10707   */\n      0x00\n        /* \"#utility.yul\":10699:10713   */\n      mstore\n        /* \"#utility.yul\":10743:10747   */\n      0x20\n        /* \"#utility.yul\":10740:10741   */\n      0x00\n        /* \"#utility.yul\":10730:10748   */\n      keccak256\n        /* \"#utility.yul\":10722:10748   */\n      swap1\n      pop\n        /* \"#utility.yul\":10614:10755   */\n      swap2\n      swap1\n      pop\n      jump\t// out\n        /* \"#utility.yul\":10761:10854   */\n    tag_152:\n        /* \"#utility.yul\":10798:10804   */\n      0x00\n        /* \"#utility.yul\":10845:10847   */\n      0x20\n        /* \"#utility.yul\":10840:10842   */\n      0x1f\n        /* \"#utility.yul\":10833:10838   */\n      dup4\n        /* \"#utility.yul\":10829:10843   */\n      add\n        /* \"#utility.yul\":10825:10848   */\n      div\n        /* \"#utility.yul\":10815:10848   */\n      swap1\n      pop\n        /* \"#utility.yul\":10761:10854   */\n      swap2\n      swap1\n      pop\n      jump\t// out\n        /* \"#utility.yul\":10860:10967   */\n    tag_153:\n        /* \"#utility.yul\":10904:10912   */\n      0x00\n        /* \"#utility.yul\":10954:10959   */\n      dup3\n        /* \"#utility.yul\":10948:10952   */\n      dup3\n        /* \"#utility.yul\":10944:10960   */\n      shl\n        /* \"#utility.yul\":10923:10960   */\n      swap1\n      pop\n        /* \"#utility.yul\":10860:10967   */\n      swap3\n      swap2\n      pop\n      pop\n      jump\t// out\n        /* \"#utility.yul\":10973:11366   */\n    tag_154:\n        /* \"#utility.yul\":11042:11048   */\n      0x00\n        /* \"#utility.yul\":11092:11093   */\n      0x08\n        /* \"#utility.yul\":11080:11090   */\n      dup4\n        /* \"#utility.yul\":11076:11094   */\n      mul\n        /* \"#utility.yul\":11115:11212   */\n      tag_289\n        /* \"#utility.yul\":11145:11211   */\n      0xffffffffffffffffffffffffffffffffffffffffffffffffffffffffffffffff\n        /* \"#utility.yul\":11134:11143   */\n      dup3\n        /* \"#utility.yul\":11115:11212   */\n      tag_153\n      jump\t// in\n    tag_289:\n        /* \"#utility.yul\":11233:11272   */\n      tag_290\n        /* \"#utility.yul\":11263:11271   */\n      dup7\n        /* \"#utility.yul\":11252:11261   */\n      dup4\n        /* \"#utility.yul\":11233:11272   */\n      tag_153\n      jump\t// in\n    tag_290:\n        /* \"#utility.yul\":11221:11272   */\n      swap6\n      pop\n        /* \"#utility.yul\":11305:11309   */\n      dup1\n        /* \"#utility.yul\":11301:11310   */\n      not\n        /* \"#utility.yul\":11294:11299   */\n      dup5\n        /* \"#utility.yul\":11290:11311   */\n      and\n        /* \"#utility.yul\":11281:11311   */\n      swap4\n      pop\n        /* \"#utility.yul\":11354:11358   */\n      dup1\n        /* \"#utility.yul\":11344:11352   */\n      dup7\n        /* \"#utility.yul\":11340:11359   */\n      and\n        /* \"#utility.yul\":11333:11338   */\n      dup5\n        /* \"#utility.yul\":11330:11360   */\n      or\n        /* \"#utility.yul\":11320:11360   */\n      swap3\n      pop\n        /* \"#utility.yul\":11049:11366   */\n      pop\n      pop\n        /* \"#utility.yul\":10973:11366   */\n      swap4\n      swap3\n      pop\n      pop\n      pop\n      jump\t// out\n        /* \"#utility.yul\":11372:11432   */\n    tag_155:\n        /* \"#utility.yul\":11400:11403   */\n      0x00\n        /* \"#utility.yul\":11421:11426   */\n      dup2\n        /* \"#utility.yul\":11414:11426   */\n      swap1\n      pop\n        /* \"#utility.yul\":11372:11432   */\n      swap2\n      swap1\n      pop\n      jump\t// out\n        /* \"#utility.yul\":11438:11580   */\n    tag_156:\n        /* \"#utility.yul\":11488:11497   */\n      0x00\n        /* \"#utility.yul\":11521:11574   */\n      tag_293\n        /* \"#utility.yul\":11539:11573   */\n      tag_294\n        /* \"#utility.yul\":11548:11572   */\n      tag_295\n        /* \"#utility.yul\":11566:11571   */\n      dup5\n        /* \"#utility.yul\":11548:11572   */\n      tag_116\n      jump\t// in\n    tag_295:\n        /* \"#utility.yul\":11539:11573   */\n      tag_155\n      jump\t// in\n    tag_294:\n        /* \"#utility.yul\":11521:11574   */\n      tag_116\n      jump\t// in\n    tag_293:\n        /* \"#utility.yul\":11508:11574   */\n      swap1\n      pop\n        /* \"#utility.yul\":11438:11580   */\n      swap2\n      swap1\n      pop\n      jump\t// out\n        /* \"#utility.yul\":11586:11661   */\n    tag_157:\n        /* \"#utility.yul\":11629:11632   */\n      0x00\n        /* \"#utility.yul\":11650:11655   */\n      dup2\n        /* \"#utility.yul\":11643:11655   */\n      swap1\n      pop\n        /* \"#utility.yul\":11586:11661   */\n      swap2\n      swap1\n      pop\n      jump\t// out\n        /* \"#utility.yul\":11667:11936   */\n    tag_158:\n        /* \"#utility.yul\":11777:11816   */\n      tag_298\n        /* \"#utility.yul\":11808:11815   */\n      dup4\n        /* \"#utility.yul\":11777:11816   */\n      tag_156\n      jump\t// in\n    tag_298:\n        /* \"#utility.yul\":11838:11929   */\n      tag_299\n        /* \"#utility.yul\":11887:11928   */\n      tag_300\n        /* \"#utility.yul\":11911:11927   */\n      dup3\n        /* \"#utility.yul\":11887:11928   */\n      tag_157\n      jump\t// in\n    tag_300:\n        /* \"#utility.yul\":11879:11885   */\n      dup5\n        /* \"#utility.yul\":11872:11876   */\n      dup5\n        /* \"#utility.yul\":11866:11877   */\n      sload\n        /* \"#utility.yul\":11838:11929   */\n      tag_154\n      jump\t// in\n    tag_299:\n        /* \"#utility.yul\":11832:11836   */\n      dup3\n        /* \"#utility.yul\":11825:11930   */\n      sstore\n        /* \"#utility.yul\":11743:11936   */\n      pop\n        /* \"#utility.yul\":11667:11936   */\n      pop\n      pop\n      pop\n      jump\t// out\n        /* \"#utility.yul\":11942:12015   */\n    tag_159:\n        /* \"#utility.yul\":11987:11990   */\n      0x00\n        /* \"#utility.yul\":12008:12009   */\n      0x00\n        /* \"#utility.yul\":12001:12009   */\n      swap1\n      pop\n        /* \"#utility.yul\":11942:12015   */\n      swap1\n      jump\t// out\n        /* \"#utility.yul\":12021:12210   */\n    tag_160:\n        /* \"#utility.yul\":12098:12130   */\n      tag_303\n      tag_159\n      jump\t// in\n    tag_303:\n        /* \"#utility.yul\":12139:12204   */\n      tag_304\n        /* \"#utility.yul\":12197:12203   */\n      dup2\n        /* \"#utility.yul\":12189:12195   */\n      dup5\n        /* \"#utility.yul\":12183:12187   */\n      dup5\n        /* \"#utility.yul\":12139:12204   */\n      tag_158\n      jump\t// in\n    tag_304:\n        /* \"#utility.yul\":12074:12210   */\n      pop\n        /* \"#utility.yul\":12021:12210   */\n      pop\n      pop\n      jump\t// out\n        /* \"#utility.yul\":12216:12402   */\n    tag_161:\n        /* \"#utility.yul\":12276:12396   */\n    tag_306:\n        /* \"#utility.yul\":12293:12296   */\n      dup2\n        /* \"#utility.yul\":12286:12291   */\n      dup2\n        /* \"#utility.yul\":12283:12297   */\n      lt\n        /* \"#utility.yul\":12276:12396   */\n      iszero\n      tag_308\n      jumpi\n        /* \"#utility.yul\":12347:12386   */\n      tag_309\n        /* \"#utility.yul\":12384:12385   */\n      0x00\n        /* \"#utility.yul\":12377:12382   */\n      dup3\n        /* \"#utility.yul\":12347:12386   */\n      tag_160\n      jump\t// in\n    tag_309:\n        /* \"#utility.yul\":12320:12321   */\n      0x01\n        /* \"#utility.yul\":12313:12318   */\n      dup2\n        /* \"#utility.yul\":12309:12322   */\n      add\n        /* \"#utility.yul\":12300:12322   */\n      swap1\n      pop\n        /* \"#utility.yul\":12276:12396   */\n      jump(tag_306)\n    tag_308:\n        /* \"#utility.yul\":12216:12402   */\n      pop\n      pop\n      jump\t// out\n        /* \"#utility.yul\":12408:12951   */\n    tag_162:\n        /* \"#utility.yul\":12509:12511   */\n      0x1f\n        /* \"#utility.yul\":12504:12507   */\n      dup3\n        /* \"#utility.yul\":12501:12512   */\n      gt\n        /* \"#utility.yul\":12498:12944   */\n      iszero\n      tag_311\n      jumpi\n        /* \"#utility.yul\":12543:12581   */\n      tag_312\n        /* \"#utility.yul\":12575:12580   */\n      dup2\n        /* \"#utility.yul\":12543:12581   */\n      tag_151\n      jump\t// in\n    tag_312:\n        /* \"#utility.yul\":12627:12656   */\n      tag_313\n        /* \"#utility.yul\":12645:12655   */\n      dup5\n        /* \"#utility.yul\":12627:12656   */\n      tag_152\n      jump\t// in\n    tag_313:\n        /* \"#utility.yul\":12617:12625   */\n      dup2\n        /* \"#utility.yul\":12613:12657   */\n      add\n        /* \"#utility.yul\":12810:12812   */\n      0x20\n        /* \"#utility.yul\":12798:12808   */\n      dup6\n        /* \"#utility.yul\":12795:12813   */\n      lt\n        /* \"#utility.yul\":12792:12841   */\n      iszero\n      tag_314\n      jumpi\n        /* \"#utility.yul\":12831:12839   */\n      dup2\n        /* \"#utility.yul\":12816:12839   */\n      swap1\n      pop\n        /* \"#utility.yul\":12792:12841   */\n    tag_314:\n        /* \"#utility.yul\":12854:12934   */\n      tag_315\n        /* \"#utility.yul\":12910:12932   */\n      tag_316\n        /* \"#utility.yul\":12928:12931   */\n      dup6\n        /* \"#utility.yul\":12910:12932   */\n      tag_152\n      jump\t// in\n    tag_316:\n        /* \"#utility.yul\":12900:12908   */\n      dup4\n        /* \"#utility.yul\":12896:12933   */\n      add\n        /* \"#utility.yul\":12883:12894   */\n      dup3\n        /* \"#utility.yul\":12854:12934   */\n      tag_161\n      jump\t// in\n    tag_315:\n        /* \"#utility.yul\":12513:12944   */\n      pop\n      pop\n        /* \"#utility.yul\":12498:12944   */\n    tag_311:\n        /* \"#utility.yul\":12408:12951   */\n      pop\n      pop\n      pop\n      jump\t// out\n        /* \"#utility.yul\":12957:13074   */\n    tag_163:\n        /* \"#utility.yul\":13011:13019   */\n      0x00\n        /* \"#utility.yul\":13061:13066   */\n      dup3\n        /* \"#utility.yul\":13055:13059   */\n      dup3\n        /* \"#utility.yul\":13051:13067   */\n      shr\n        /* \"#utility.yul\":13030:13067   */\n      swap1\n      pop\n        /* \"#utility.yul\":12957:13074   */\n      swap3\n      swap2\n      pop\n      pop\n      jump\t// out\n        /* \"#utility.yul\":13080:13249   */\n    tag_164:\n        /* \"#utility.yul\":13124:13130   */\n      0x00\n        /* \"#utility.yul\":13157:13208   */\n      tag_319\n        /* \"#utility.yul\":13205:13206   */\n      0x00\n        /* \"#utility.yul\":13201:13207   */\n      not\n        /* \"#utility.yul\":13193:13198   */\n      dup5\n        /* \"#utility.yul\":13190:13191   */\n      0x08\n        /* \"#utility.yul\":13186:13199   */\n      mul\n        /* \"#utility.yul\":13157:13208   */\n      tag_163\n      jump\t// in\n    tag_319:\n        /* \"#utility.yul\":13153:13209   */\n      not\n        /* \"#utility.yul\":13238:13242   */\n      dup1\n        /* \"#utility.yul\":13232:13236   */\n      dup4\n        /* \"#utility.yul\":13228:13243   */\n      and\n        /* \"#utility.yul\":13218:13243   */\n      swap2\n      pop\n        /* \"#utility.yul\":13131:13249   */\n      pop\n        /* \"#utility.yul\":13080:13249   */\n      swap3\n      swap2\n      pop\n      pop\n      jump\t// out\n        /* \"#utility.yul\":13254:13549   */\n    tag_165:\n        /* \"#utility.yul\":13330:13334   */\n      0x00\n        /* \"#utility.yul\":13476:13505   */\n      tag_321\n        /* \"#utility.yul\":13501:13504   */\n      dup4\n        /* \"#utility.yul\":13495:13499   */\n      dup4\n        /* \"#utility.yul\":13476:13505   */\n      tag_164\n      jump\t// in\n    tag_321:\n        /* \"#utility.yul\":13468:13505   */\n      swap2\n      pop\n        /* \"#utility.yul\":13538:13541   */\n      dup3\n        /* \"#utility.yul\":13535:13536   */\n      0x02\n        /* \"#utility.yul\":13531:13542   */\n      mul\n        /* \"#utility.yul\":13525:13529   */\n      dup3\n        /* \"#utility.yul\":13522:13543   */\n      or\n        /* \"#utility.yul\":13514:13543   */\n      swap1\n      pop\n        /* \"#utility.yul\":13254:13549   */\n      swap3\n      swap2\n      pop\n      pop\n      jump\t// out\n        /* \"#utility.yul\":13554:14957   */\n    tag_57:\n        /* \"#utility.yul\":13678:13722   */\n      tag_323\n        /* \"#utility.yul\":13718:13721   */\n      dup4\n        /* \"#utility.yul\":13713:13716   */\n      dup4\n        /* \"#utility.yul\":13678:13722   */\n      tag_148\n      jump\t// in\n    tag_323:\n        /* \"#utility.yul\":13787:13805   */\n      0xffffffffffffffff\n        /* \"#utility.yul\":13779:13785   */\n      dup2\n        /* \"#utility.yul\":13776:13806   */\n      gt\n        /* \"#utility.yul\":13773:13829   */\n      iszero\n      tag_324\n      jumpi\n        /* \"#utility.yul\":13809:13827   */\n      tag_325\n      tag_149\n      jump\t// in\n    tag_325:\n        /* \"#utility.yul\":13773:13829   */\n    tag_324:\n        /* \"#utility.yul\":13853:13891   */\n      tag_326\n        /* \"#utility.yul\":13885:13889   */\n      dup3\n        /* \"#utility.yul\":13879:13890   */\n      sload\n        /* \"#utility.yul\":13853:13891   */\n      tag_72\n      jump\t// in\n    tag_326:\n        /* \"#utility.yul\":13938:14005   */\n      tag_327\n        /* \"#utility.yul\":13998:14004   */\n      dup3\n        /* \"#utility.yul\":13990:13996   */\n      dup3\n        /* \"#utility.yul\":13984:13988   */\n      dup6\n        /* \"#utility.yul\":13938:14005   */\n      tag_162\n      jump\t// in\n    tag_327:\n        /* \"#utility.yul\":14032:14033   */\n      0x00\n        /* \"#utility.yul\":14061:14063   */\n      0x1f\n        /* \"#utility.yul\":14053:14059   */\n      dup4\n        /* \"#utility.yul\":14050:14064   */\n      gt\n        /* \"#utility.yul\":14078:14079   */\n      0x01\n        /* \"#utility.yul\":14073:14705   */\n      dup2\n      eq\n      tag_329\n      jumpi\n        /* \"#utility.yul\":14749:14750   */\n      0x00\n        /* \"#utility.yul\":14766:14772   */\n      dup5\n        /* \"#utility.yul\":14763:14847   */\n      iszero\n      tag_330\n      jumpi\n        /* \"#utility.yul\":14822:14831   */\n      dup3\n        /* \"#utility.yul\":14817:14820   */\n      dup8\n        /* \"#utility.yul\":14813:14832   */\n      add\n        /* \"#utility.yul\":14800:14833   */\n      calldataload\n        /* \"#utility.yul\":14791:14833   */\n      swap1\n      pop\n        /* \"#utility.yul\":14763:14847   */\n    tag_330:\n        /* \"#utility.yul\":14873:14940   */\n      tag_331\n        /* \"#utility.yul\":14933:14939   */\n      dup6\n        /* \"#utility.yul\":14926:14931   */\n      dup3\n        /* \"#utility.yul\":14873:14940   */\n      tag_165\n      jump\t// in\n    tag_331:\n        /* \"#utility.yul\":14867:14871   */\n      dup7\n        /* \"#utility.yul\":14860:14941   */\n      sstore\n        /* \"#utility.yul\":14722:14951   */\n      pop\n        /* \"#utility.yul\":14043:14951   */\n      jump(tag_328)\n        /* \"#utility.yul\":14073:14705   */\n    tag_329:\n        /* \"#utility.yul\":14125:14129   */\n      0x1f\n        /* \"#utility.yul\":14121:14130   */\n      not\n        /* \"#utility.yul\":14113:14119   */\n      dup5\n        /* \"#utility.yul\":14109:14131   */\n      and\n        /* \"#utility.yul\":14159:14196   */\n      tag_332\n        /* \"#utility.yul\":14191:14195   */\n      dup7\n        /* \"#utility.yul\":14159:14196   */\n      tag_151\n      jump\t// in\n    tag_332:\n        /* \"#utility.yul\":14218:14219   */\n      0x00\n        /* \"#utility.yul\":14232:14447   */\n    tag_333:\n        /* \"#utility.yul\":14246:14253   */\n      dup3\n        /* \"#utility.yul\":14243:14244   */\n      dup2\n        /* \"#utility.yul\":14240:14254   */\n      lt\n        /* \"#utility.yul\":14232:14447   */\n      iszero\n      tag_335\n      jumpi\n        /* \"#utility.yul\":14332:14341   */\n      dup5\n        /* \"#utility.yul\":14327:14330   */\n      dup10\n        /* \"#utility.yul\":14323:14342   */\n      add\n        /* \"#utility.yul\":14310:14343   */\n      calldataload\n        /* \"#utility.yul\":14302:14308   */\n      dup3\n        /* \"#utility.yul\":14295:14344   */\n      sstore\n        /* \"#utility.yul\":14383:14384   */\n      0x01\n        /* \"#utility.yul\":14375:14381   */\n      dup3\n        /* \"#utility.yul\":14371:14385   */\n      add\n        /* \"#utility.yul\":14361:14385   */\n      swap2\n      pop\n        /* \"#utility.yul\":14430:14432   */\n      0x20\n        /* \"#utility.yul\":14419:14428   */\n      dup6\n        /* \"#utility.yul\":14415:14433   */\n      add\n        /* \"#utility.yul\":14402:14433   */\n      swap5\n      pop\n        /* \"#utility.yul\":14269:14273   */\n      0x20\n        /* \"#utility.yul\":14266:14267   */\n      dup2\n        /* \"#utility.yul\":14262:14274   */\n      add\n        /* \"#utility.yul\":14257:14274   */\n      swap1\n      pop\n        /* \"#utility.yul\":14232:14447   */\n      jump(tag_333)\n    tag_335:\n        /* \"#utility.yul\":14475:14481   */\n      dup7\n        /* \"#utility.yul\":14466:14473   */\n      dup4\n        /* \"#utility.yul\":14463:14482   */\n      lt\n        /* \"#utility.yul\":14460:14646   */\n      iszero\n      tag_336\n      jumpi\n        /* \"#utility.yul\":14540:14549   */\n      dup5\n        /* \"#utility.yul\":14535:14538   */\n      dup10\n        /* \"#utility.yul\":14531:14550   */\n      add\n        /* \"#utility.yul\":14518:14551   */\n      calldataload\n        /* \"#utility.yul\":14583:14631   */\n      tag_337\n        /* \"#utility.yul\":14625:14629   */\n      0x1f\n        /* \"#utility.yul\":14617:14623   */\n      dup10\n        /* \"#utility.yul\":14613:14630   */\n      and\n        /* \"#utility.yul\":14602:14611   */\n      dup3\n        /* \"#utility.yul\":14583:14631   */\n      tag_164\n      jump\t// in\n    tag_337:\n        /* \"#utility.yul\":14575:14581   */\n      dup4\n        /* \"#utility.yul\":14568:14632   */\n      sstore\n        /* \"#utility.yul\":14483:14646   */\n      pop\n        /* \"#utility.yul\":14460:14646   */\n    tag_336:\n        /* \"#utility.yul\":14692:14693   */\n      0x01\n        /* \"#utility.yul\":14688:14689   */\n      0x02\n        /* \"#utility.yul\":14680:14686   */\n      dup9\n        /* \"#utility.yul\":14676:14690   */\n      mul\n        /* \"#utility.yul\":14672:14694   */\n      add\n        /* \"#utility.yul\":14666:14670   */\n      dup9\n        /* \"#utility.yul\":14659:14695   */\n      sstore\n        /* \"#utility.yul\":14080:14705   */\n      pop\n      pop\n      pop\n        /* \"#utility.yul\":14043:14951   */\n    tag_328:\n      pop\n        /* \"#utility.yul\":13653:14957   */\n      pop\n      pop\n      pop\n        /* \"#utility.yul\":13554:14957   */\n      pop\n      pop\n      pop\n      jump\t// out\n        /* \"#utility.yul\":14963:15111   */\n    tag_166:\n        /* \"#utility.yul\":15061:15067   */\n      dup3\n        /* \"#utility.yul\":15056:15059   */\n      dup2\n        /* \"#utility.yul\":15051:15054   */\n      dup4\n        /* \"#utility.yul\":15038:15068   */\n      calldatacopy\n        /* \"#utility.yul\":15102:15103   */\n      0x00\n        /* \"#utility.yul\":15093:15099   */\n      dup4\n        /* \"#utility.yul\":15088:15091   */\n      dup4\n        /* \"#utility.yul\":15084:15100   */\n      add\n        /* \"#utility.yul\":15077:15104   */\n      mstore\n        /* \"#utility.yul\":14963:15111   */\n      pop\n      pop\n      pop\n      jump\t// out\n        /* \"#utility.yul\":15141:15458   */\n    tag_167:\n        /* \"#utility.yul\":15239:15242   */\n      0x00\n        /* \"#utility.yul\":15260:15331   */\n      tag_340\n        /* \"#utility.yul\":15324:15330   */\n      dup4\n        /* \"#utility.yul\":15319:15322   */\n      dup6\n        /* \"#utility.yul\":15260:15331   */\n      tag_135\n      jump\t// in\n    tag_340:\n        /* \"#utility.yul\":15253:15331   */\n      swap4\n      pop\n        /* \"#utility.yul\":15341:15397   */\n      tag_341\n        /* \"#utility.yul\":15390:15396   */\n      dup4\n        /* \"#utility.yul\":15385:15388   */\n      dup6\n        /* \"#utility.yul\":15378:15383   */\n      dup5\n        /* \"#utility.yul\":15341:15397   */\n      tag_166\n      jump\t// in\n    tag_341:\n        /* \"#utility.yul\":15422:15451   */\n      tag_342\n        /* \"#utility.yul\":15444:15450   */\n      dup4\n        /* \"#utility.yul\":15422:15451   */\n      tag_137\n      jump\t// in\n    tag_342:\n        /* \"#utility.yul\":15417:15420   */\n      dup5\n        /* \"#utility.yul\":15413:15452   */\n      add\n        /* \"#utility.yul\":15406:15452   */\n      swap1\n      pop\n        /* \"#utility.yul\":15141:15458   */\n      swap4\n      swap3\n      pop\n      pop\n      pop\n      jump\t// out\n        /* \"#utility.yul\":15464:15797   */\n    tag_59:\n        /* \"#utility.yul\":15587:15591   */\n      0x00\n        /* \"#utility.yul\":15625:15627   */\n      0x20\n        /* \"#utility.yul\":15614:15623   */\n      dup3\n        /* \"#utility.yul\":15610:15628   */\n      add\n        /* \"#utility.yul\":15602:15628   */\n      swap1\n      pop\n        /* \"#utility.yul\":15674:15683   */\n      dup2\n        /* \"#utility.yul\":15668:15672   */\n      dup2\n        /* \"#utility.yul\":15664:15684   */\n      sub\n        /* \"#utility.yul\":15660:15661   */\n      0x00\n        /* \"#utility.yul\":15649:15658   */\n      dup4\n        /* \"#utility.yul\":15645:15662   */\n      add\n        /* \"#utility.yul\":15638:15685   */\n      mstore\n        /* \"#utility.yul\":15702:15790   */\n      tag_344\n        /* \"#utility.yul\":15785:15789   */\n      dup2\n        /* \"#utility.yul\":15776:15782   */\n      dup5\n        /* \"#utility.yul\":15768:15774   */\n      dup7\n        /* \"#utility.yul\":15702:15790   */\n      tag_167\n      jump\t// in\n    tag_344:\n        /* \"#utility.yul\":15694:15790   */\n      swap1\n      pop\n        /* \"#utility.yul\":15464:15797   */\n      swap4\n      swap3\n      pop\n      pop\n      pop\n      jump\t// out\n        /* \"#utility.yul\":15803:16051   */\n    tag_70:\n        /* \"#utility.yul\":15909:15913   */\n      0x00\n        /* \"#utility.yul\":15947:15949   */\n      0x20\n        /* \"#utility.yul\":15936:15945   */\n      dup3\n        /* \"#utility.yul\":15932:15950   */\n      add\n        /* \"#utility.yul\":15924:15950   */\n      swap1\n      pop\n        /* \"#utility.yul\":15960:16044   */\n      tag_346\n        /* \"#utility.yul\":16041:16042   */\n      0x00\n        /* \"#utility.yul\":16030:16039   */\n      dup4\n        /* \"#utility.yul\":16026:16043   */\n      add\n        /* \"#utility.yul\":16017:16023   */\n      dup5\n        /* \"#utility.yul\":15960:16044   */\n      tag_133\n      jump\t// in\n    tag_346:\n        /* \"#utility.yul\":15803:16051   */\n      swap3\n      swap2\n      pop\n      pop\n      jump\t// out\n        /* \"#utility.yul\":16057:16237   */\n    tag_168:\n        /* \"#utility.yul\":16105:16182   */\n      0x4e487b7100000000000000000000000000000000000000000000000000000000\n        /* \"#utility.yul\":16102:16103   */\n      0x00\n        /* \"#utility.yul\":16095:16183   */\n      mstore\n        /* \"#utility.yul\":16202:16206   */\n      0x11\n        /* \"#utility.yul\":16199:16200   */\n      0x04\n        /* \"#utility.yul\":16192:16207   */\n      mstore\n        /* \"#utility.yul\":16226:16230   */\n      0x24\n        /* \"#utility.yul\":16223:16224   */\n      0x00\n        /* \"#utility.yul\":16216:16231   */\n      revert\n        /* \"#utility.yul\":16243:16476   */\n    tag_91:\n        /* \"#utility.yul\":16282:16285   */\n      0x00\n        /* \"#utility.yul\":16305:16329   */\n      tag_349\n        /* \"#utility.yul\":16323:16328   */\n      dup3\n        /* \"#utility.yul\":16305:16329   */\n      tag_116\n      jump\t// in\n    tag_349:\n        /* \"#utility.yul\":16296:16329   */\n      swap2\n      pop\n        /* \"#utility.yul\":16351:16417   */\n      0xffffffffffffffffffffffffffffffffffffffffffffffffffffffffffffffff\n        /* \"#utility.yul\":16344:16349   */\n      dup3\n        /* \"#utility.yul\":16341:16418   */\n      sub\n        /* \"#utility.yul\":16338:16441   */\n      tag_350\n      jumpi\n        /* \"#utility.yul\":16421:16439   */\n      tag_351\n      tag_168\n      jump\t// in\n    tag_351:\n        /* \"#utility.yul\":16338:16441   */\n    tag_350:\n        /* \"#utility.yul\":16468:16469   */\n      0x01\n        /* \"#utility.yul\":16461:16466   */\n      dup3\n        /* \"#utility.yul\":16457:16470   */\n      add\n        /* \"#utility.yul\":16450:16470   */\n      swap1\n      pop\n        /* \"#utility.yul\":16243:16476   */\n      swap2\n      swap1\n      pop\n      jump\t// out\n        /* \"#utility.yul\":16482:17877   */\n    tag_97:\n        /* \"#utility.yul\":16599:16636   */\n      tag_353\n        /* \"#utility.yul\":16632:16635   */\n      dup3\n        /* \"#utility.yul\":16599:16636   */\n      tag_134\n      jump\t// in\n    tag_353:\n        /* \"#utility.yul\":16701:16719   */\n      0xffffffffffffffff\n        /* \"#utility.yul\":16693:16699   */\n      dup2\n        /* \"#utility.yul\":16690:16720   */\n      gt\n        /* \"#utility.yul\":16687:16743   */\n      iszero\n      tag_354\n      jumpi\n        /* \"#utility.yul\":16723:16741   */\n      tag_355\n      tag_149\n      jump\t// in\n    tag_355:\n        /* \"#utility.yul\":16687:16743   */\n    tag_354:\n        /* \"#utility.yul\":16767:16805   */\n      tag_356\n        /* \"#utility.yul\":16799:16803   */\n      dup3\n        /* \"#utility.yul\":16793:16804   */\n      sload\n        /* \"#utility.yul\":16767:16805   */\n      tag_72\n      jump\t// in\n    tag_356:\n        /* \"#utility.yul\":16852:16919   */\n      tag_357\n        /* \"#utility.yul\":16912:16918   */\n      dup3\n        /* \"#utility.yul\":16904:16910   */\n      dup3\n        /* \"#utility.yul\":16898:16902   */\n      dup6\n        /* \"#utility.yul\":16852:16919   */\n      tag_162\n      jump\t// in\n    tag_357:\n        /* \"#utility.yul\":16946:16947   */\n      0x00\n        /* \"#utility.yul\":16970:16974   */\n      0x20\n        /* \"#utility.yul\":16957:16974   */\n      swap1\n      pop\n        /* \"#utility.yul\":17002:17004   */\n      0x1f\n        /* \"#utility.yul\":16994:17000   */\n      dup4\n        /* \"#utility.yul\":16991:17005   */\n      gt\n        /* \"#utility.yul\":17019:17020   */\n      0x01\n        /* \"#utility.yul\":17014:17632   */\n      dup2\n      eq\n      tag_359\n      jumpi\n        /* \"#utility.yul\":17676:17677   */\n      0x00\n        /* \"#utility.yul\":17693:17699   */\n      dup5\n        /* \"#utility.yul\":17690:17767   */\n      iszero\n      tag_360\n      jumpi\n        /* \"#utility.yul\":17742:17751   */\n      dup3\n        /* \"#utility.yul\":17737:17740   */\n      dup8\n        /* \"#utility.yul\":17733:17752   */\n      add\n        /* \"#utility.yul\":17727:17753   */\n      mload\n        /* \"#utility.yul\":17718:17753   */\n      swap1\n      pop\n        /* \"#utility.yul\":17690:17767   */\n    tag_360:\n        /* \"#utility.yul\":17793:17860   */\n      tag_361\n        /* \"#utility.yul\":17853:17859   */\n      dup6\n        /* \"#utility.yul\":17846:17851   */\n      dup3\n        /* \"#utility.yul\":17793:17860   */\n      tag_165\n      jump\t// in\n    tag_361:\n        /* \"#utility.yul\":17787:17791   */\n      dup7\n        /* \"#utility.yul\":17780:17861   */\n      sstore\n        /* \"#utility.yul\":17649:17871   */\n      pop\n        /* \"#utility.yul\":16984:17871   */\n      jump(tag_358)\n        /* \"#utility.yul\":17014:17632   */\n    tag_359:\n        /* \"#utility.yul\":17066:17070   */\n      0x1f\n        /* \"#utility.yul\":17062:17071   */\n      not\n        /* \"#utility.yul\":17054:17060   */\n      dup5\n        /* \"#utility.yul\":17050:17072   */\n      and\n        /* \"#utility.yul\":17100:17137   */\n      tag_362\n        /* \"#utility.yul\":17132:17136   */\n      dup7\n        /* \"#utility.yul\":17100:17137   */\n      tag_151\n      jump\t// in\n    tag_362:\n        /* \"#utility.yul\":17159:17160   */\n      0x00\n        /* \"#utility.yul\":17173:17381   */\n    tag_363:\n        /* \"#utility.yul\":17187:17194   */\n      dup3\n        /* \"#utility.yul\":17184:17185   */\n      dup2\n        /* \"#utility.yul\":17181:17195   */\n      lt\n        /* \"#utility.yul\":17173:17381   */\n      iszero\n      tag_365\n      jumpi\n        /* \"#utility.yul\":17266:17275   */\n      dup5\n        /* \"#utility.yul\":17261:17264   */\n      dup10\n        /* \"#utility.yul\":17257:17276   */\n      add\n        /* \"#utility.yul\":17251:17277   */\n      mload\n        /* \"#utility.yul\":17243:17249   */\n      dup3\n        /* \"#utility.yul\":17236:17278   */\n      sstore\n        /* \"#utility.yul\":17317:17318   */\n      0x01\n        /* \"#utility.yul\":17309:17315   */\n      dup3\n        /* \"#utility.yul\":17305:17319   */\n      add\n        /* \"#utility.yul\":17295:17319   */\n      swap2\n      pop\n        /* \"#utility.yul\":17364:17366   */\n      0x20\n        /* \"#utility.yul\":17353:17362   */\n      dup6\n        /* \"#utility.yul\":17349:17367   */\n      add\n        /* \"#utility.yul\":17336:17367   */\n      swap5\n      pop\n        /* \"#utility.yul\":17210:17214   */\n      0x20\n        /* \"#utility.yul\":17207:17208   */\n      dup2\n        /* \"#utility.yul\":17203:17215   */\n      add\n        /* \"#utility.yul\":17198:17215   */\n      swap1\n      pop\n        /* \"#utility.yul\":17173:17381   */\n      jump(tag_363)\n    tag_365:\n        /* \"#utility.yul\":17409:17415   */\n      dup7\n        /* \"#utility.yul\":17400:17407   */\n      dup4\n        /* \"#utility.yul\":17397:17416   */\n      lt\n        /* \"#utility.yul\":17394:17573   */\n      iszero\n      tag_366\n      jumpi\n        /* \"#utility.yul\":17467:17476   */\n      dup5\n        /* \"#utility.yul\":17462:17465   */\n      dup10\n        /* \"#utility.yul\":17458:17477   */\n      add\n        /* \"#utility.yul\":17452:17478   */\n      mload\n        /* \"#utility.yul\":17510:17558   */\n      tag_367\n        /* \"#utility.yul\":17552:17556   */\n      0x1f\n        /* \"#utility.yul\":17544:17550   */\n      dup10\n        /* \"#utility.yul\":17540:17557   */\n      and\n        /* \"#utility.yul\":17529:17538   */\n      dup3\n        /* \"#utility.yul\":17510:17558   */\n      tag_164\n      jump\t// in\n    tag_367:\n        /* \"#utility.yul\":17502:17508   */\n      dup4\n        /* \"#utility.yul\":17495:17559   */\n      sstore\n        /* \"#utility.yul\":17417:17573   */\n      pop\n        /* \"#utility.yul\":17394:17573   */\n    tag_366:\n        /* \"#utility.yul\":17619:17620   */\n      0x01\n        /* \"#utility.yul\":17615:17616   */\n      0x02\n        /* \"#utility.yul\":17607:17613   */\n      dup9\n        /* \"#utility.yul\":17603:17617   */\n      mul\n        /* \"#utility.yul\":17599:17621   */\n      add\n        /* \"#utility.yul\":17593:17597   */\n      dup9\n        /* \"#utility.yul\":17586:17622   */\n      sstore\n        /* \"#utility.yul\":17021:17632   */\n      pop\n      pop\n      pop\n        /* \"#utility.yul\":16984:17871   */\n    tag_358:\n      pop\n        /* \"#utility.yul\":16574:17877   */\n      pop\n      pop\n      pop\n        /* \"#utility.yul\":16482:17877   */\n      pop\n      pop\n      jump\t// out\n\n    auxdata: 0xa2646970667358221220963c1a244013ef43d98c48813a29a650cc9318d47390311e5c24050e263d69c664736f6c634300081e0033\n}\n",
				"bytecode": {
					"linkReferences": {},
					"object": "608060405234801561000f575f5ffd5b50335f73ffffffffffffffffffffffffffffffffffffffff168173ffffffffffffffffffffffffffffffffffffffff1603610081575f6040517f1e4fbdf70000000000000000000000000000000000000000000000000000000081526004016100789190610196565b60405180910390fd5b6100908161009660201b60201c565b506101af565b5f5f5f9054906101000a900473ffffffffffffffffffffffffffffffffffffffff169050815f5f6101000a81548173ffffffffffffffffffffffffffffffffffffffff021916908373ffffffffffffffffffffffffffffffffffffffff1602179055508173ffffffffffffffffffffffffffffffffffffffff168173ffffffffffffffffffffffffffffffffffffffff167f8be0079c531659141344cd1fd0a4f28419497f9722a3daafe3b4186f6b6457e060405160405180910390a35050565b5f73ffffffffffffffffffffffffffffffffffffffff82169050919050565b5f61018082610157565b9050919050565b61019081610176565b82525050565b5f6020820190506101a95f830184610187565b92915050565b611214806101bc5f395ff3fe608060405234801561000f575f5ffd5b5060043610610091575f3560e01c8063715018a611610064578063715018a61461011d5780638da5cb5b146101275780639cab93c714610145578063c6a645fe14610161578063f2fde38b1461017f57610091565b80631d395f75146100955780632f30187b146100b15780636a030ca9146100cd5780637051ad5114610101575b5f5ffd5b6100af60048036038101906100aa919061090b565b61019b565b005b6100cb60048036038101906100c6919061098b565b610256565b005b6100e760048036038101906100e291906109c9565b610326565b6040516100f8959493929190610b48565b60405180910390f35b61011b600480360381019061011691906109c9565b610416565b005b61012561049c565b005b61012f6104af565b60405161013c9190610ba0565b60405180910390f35b61015f600480360381019061015a9190610be3565b6104d6565b005b610169610696565b6040516101769190610c4f565b60405180910390f35b61019960048036038101906101949190610c92565b61069c565b005b6101a3610720565b5f831180156101b457506002548311155b6101f3576040517f08c379a00000000000000000000000000000000000000000000000000000000081526004016101ea90610d07565b60405180910390fd5b818160015f8681526020019081526020015f206002019182610216929190610f59565b50827fe910a1c7caa001791659755db8e33ad3145e761a629460804ee022e3c94b83138383604051610249929190611060565b60405180910390a2505050565b61025e610720565b5f8211801561026f57506002548211155b6102ae576040517f08c379a00000000000000000000000000000000000000000000000000000000081526004016102a590610d07565b60405180910390fd5b8060015f8481526020019081526020015f2060010160146101000a81548160ff021916908360038111156102e5576102e4610a4b565b5b0217905550817fbfb0438a1ae05f61e561fea2dd930342b4ab667be8da8a67ef114cd4ca3636e58260405161031a9190611082565b60405180910390a25050565b6001602052805f5260405f205f91509050805f015490806001015f9054906101000a900473ffffffffffffffffffffffffffffffffffffffff16908060010160149054906101000a900460ff169080600201805461038390610d89565b80601f01602080910402602001604051908101604052809291908181526020018280546103af90610d89565b80156103fa5780601f106103d1576101008083540402835291602001916103fa565b820191905f5260205f20905b8154815290600101906020018083116103dd57829003601f168201915b505050505090806003015f9054906101000a900460ff16905085565b61041e610720565b5f8111801561042f57506002548111155b61046e576040517f08c379a000000000000000000000000000000000000000000000000000000000815260040161046590610d07565b60405180910390fd5b6001805f8381526020019081526020015f206003015f6101000a81548160ff02191690831515021790555050565b6104a4610720565b6104ad5f6107a7565b565b5f5f5f9054906101000a900473ffffffffffffffffffffffffffffffffffffffff16905090565b60025f8154809291906104e8906110c8565b91905055506040518060a001604052808481526020013373ffffffffffffffffffffffffffffffffffffffff1681526020015f600381111561052d5761052c610a4b565b5b815260200183838080601f0160208091040260200160405190810160405280939291908181526020018383808284375f81840152601f19601f8201169050808301925050505050505081526020015f151581525060015f60025481526020019081526020015f205f820151815f01556020820151816001015f6101000a81548173ffffffffffffffffffffffffffffffffffffffff021916908373ffffffffffffffffffffffffffffffffffffffff16021790555060408201518160010160146101000a81548160ff0219169083600381111561060d5761060c610a4b565b5b02179055506060820151816002019081610627919061110f565b506080820151816003015f6101000a81548160ff0219169083151502179055509050503373ffffffffffffffffffffffffffffffffffffffff16836002547fe51d75d08432f225114940aad3b5faf32120cf0d70d57640e163045c49e2079860405160405180910390a4505050565b60025481565b6106a4610720565b5f73ffffffffffffffffffffffffffffffffffffffff168173ffffffffffffffffffffffffffffffffffffffff1603610714575f6040517f1e4fbdf700000000000000000000000000000000000000000000000000000000815260040161070b9190610ba0565b60405180910390fd5b61071d816107a7565b50565b610728610868565b73ffffffffffffffffffffffffffffffffffffffff166107466104af565b73ffffffffffffffffffffffffffffffffffffffff16146107a557610769610868565b6040517f118cdaa700000000000000000000000000000000000000000000000000000000815260040161079c9190610ba0565b60405180910390fd5b565b5f5f5f9054906101000a900473ffffffffffffffffffffffffffffffffffffffff169050815f5f6101000a81548173ffffffffffffffffffffffffffffffffffffffff021916908373ffffffffffffffffffffffffffffffffffffffff1602179055508173ffffffffffffffffffffffffffffffffffffffff168173ffffffffffffffffffffffffffffffffffffffff167f8be0079c531659141344cd1fd0a4f28419497f9722a3daafe3b4186f6b6457e060405160405180910390a35050565b5f33905090565b5f5ffd5b5f5ffd5b5f819050919050565b61088981610877565b8114610893575f5ffd5b50565b5f813590506108a481610880565b92915050565b5f5ffd5b5f5ffd5b5f5ffd5b5f5f83601f8401126108cb576108ca6108aa565b5b8235905067ffffffffffffffff8111156108e8576108e76108ae565b5b602083019150836001820283011115610904576109036108b2565b5b9250929050565b5f5f5f604084860312156109225761092161086f565b5b5f61092f86828701610896565b935050602084013567ffffffffffffffff8111156109505761094f610873565b5b61095c868287016108b6565b92509250509250925092565b60048110610974575f5ffd5b50565b5f8135905061098581610968565b92915050565b5f5f604083850312156109a1576109a061086f565b5b5f6109ae85828601610896565b92505060206109bf85828601610977565b9150509250929050565b5f602082840312156109de576109dd61086f565b5b5f6109eb84828501610896565b91505092915050565b5f819050919050565b610a06816109f4565b82525050565b5f73ffffffffffffffffffffffffffffffffffffffff82169050919050565b5f610a3582610a0c565b9050919050565b610a4581610a2b565b82525050565b7f4e487b71000000000000000000000000000000000000000000000000000000005f52602160045260245ffd5b60048110610a8957610a88610a4b565b5b50565b5f819050610a9982610a78565b919050565b5f610aa882610a8c565b9050919050565b610ab881610a9e565b82525050565b5f81519050919050565b5f82825260208201905092915050565b8281835e5f83830152505050565b5f601f19601f8301169050919050565b5f610b0082610abe565b610b0a8185610ac8565b9350610b1a818560208601610ad8565b610b2381610ae6565b840191505092915050565b5f8115159050919050565b610b4281610b2e565b82525050565b5f60a082019050610b5b5f8301886109fd565b610b686020830187610a3c565b610b756040830186610aaf565b8181036060830152610b878185610af6565b9050610b966080830184610b39565b9695505050505050565b5f602082019050610bb35f830184610a3c565b92915050565b610bc2816109f4565b8114610bcc575f5ffd5b50565b5f81359050610bdd81610bb9565b92915050565b5f5f5f60408486031215610bfa57610bf961086f565b5b5f610c0786828701610bcf565b935050602084013567ffffffffffffffff811115610c2857610c27610873565b5b610c34868287016108b6565b92509250509250925092565b610c4981610877565b82525050565b5f602082019050610c625f830184610c40565b92915050565b610c7181610a2b565b8114610c7b575f5ffd5b50565b5f81359050610c8c81610c68565b92915050565b5f60208284031215610ca757610ca661086f565b5b5f610cb484828501610c7e565b91505092915050565b7f4d6f64656c52656769737472793a20496e76616c6964206d6f64656c204944005f82015250565b5f610cf1601f83610ac8565b9150610cfc82610cbd565b602082019050919050565b5f6020820190508181035f830152610d1e81610ce5565b9050919050565b5f82905092915050565b7f4e487b71000000000000000000000000000000000000000000000000000000005f52604160045260245ffd5b7f4e487b71000000000000000000000000000000000000000000000000000000005f52602260045260245ffd5b5f6002820490506001821680610da057607f821691505b602082108103610db357610db2610d5c565b5b50919050565b5f819050815f5260205f209050919050565b5f6020601f8301049050919050565b5f82821b905092915050565b5f60088302610e157fffffffffffffffffffffffffffffffffffffffffffffffffffffffffffffffff82610dda565b610e1f8683610dda565b95508019841693508086168417925050509392505050565b5f819050919050565b5f610e5a610e55610e5084610877565b610e37565b610877565b9050919050565b5f819050919050565b610e7383610e40565b610e87610e7f82610e61565b848454610de6565b825550505050565b5f5f905090565b610e9e610e8f565b610ea9818484610e6a565b505050565b5b81811015610ecc57610ec15f82610e96565b600181019050610eaf565b5050565b601f821115610f1157610ee281610db9565b610eeb84610dcb565b81016020851015610efa578190505b610f0e610f0685610dcb565b830182610eae565b50505b505050565b5f82821c905092915050565b5f610f315f1984600802610f16565b1980831691505092915050565b5f610f498383610f22565b9150826002028217905092915050565b610f638383610d25565b67ffffffffffffffff811115610f7c57610f7b610d2f565b5b610f868254610d89565b610f91828285610ed0565b5f601f831160018114610fbe575f8415610fac578287013590505b610fb68582610f3e565b86555061101d565b601f198416610fcc86610db9565b5f5b82811015610ff357848901358255600182019150602085019450602081019050610fce565b86831015611010578489013561100c601f891682610f22565b8355505b6001600288020188555050505b50505050505050565b828183375f83830152505050565b5f61103f8385610ac8565b935061104c838584611026565b61105583610ae6565b840190509392505050565b5f6020820190508181035f830152611079818486611034565b90509392505050565b5f6020820190506110955f830184610aaf565b92915050565b7f4e487b71000000000000000000000000000000000000000000000000000000005f52601160045260245ffd5b5f6110d282610877565b91507fffffffffffffffffffffffffffffffffffffffffffffffffffffffffffffffff82036111045761110361109b565b5b600182019050919050565b61111882610abe565b67ffffffffffffffff81111561113157611130610d2f565b5b61113b8254610d89565b611146828285610ed0565b5f60209050601f831160018114611177575f8415611165578287015190505b61116f8582610f3e565b8655506111d6565b601f19841661118586610db9565b5f5b828110156111ac57848901518255600182019150602085019450602081019050611187565b868310156111c957848901516111c5601f891682610f22565b8355505b6001600288020188555050505b50505050505056fea2646970667358221220963c1a244013ef43d98c48813a29a650cc9318d47390311e5c24050e263d69c664736f6c634300081e0033",
					"opcodes": "PUSH1 0x80 PUSH1 0x40 MSTORE CALLVALUE DUP1 ISZERO PUSH2 0xF JUMPI PUSH0 PUSH0 REVERT JUMPDEST POP CALLER PUSH0 PUSH20 0xFFFFFFFFFFFFFFFFFFFFFFFFFFFFFFFFFFFFFFFF AND DUP2 PUSH20 0xFFFFFFFFFFFFFFFFFFFFFFFFFFFFFFFFFFFFFFFF AND SUB PUSH2 0x81 JUMPI PUSH0 PUSH1 0x40 MLOAD PUSH32 0x1E4FBDF700000000000000000000000000000000000000000000000000000000 DUP2 MSTORE PUSH1 0x4 ADD PUSH2 0x78 SWAP2 SWAP1 PUSH2 0x196 JUMP JUMPDEST PUSH1 0x40 MLOAD DUP1 SWAP2 SUB SWAP1 REVERT JUMPDEST PUSH2 0x90 DUP2 PUSH2 0x96 PUSH1 0x20 SHL PUSH1 0x20 SHR JUMP JUMPDEST POP PUSH2 0x1AF JUMP JUMPDEST PUSH0 PUSH0 PUSH0 SWAP1 SLOAD SWAP1 PUSH2 0x100 EXP SWAP1 DIV PUSH20 0xFFFFFFFFFFFFFFFFFFFFFFFFFFFFFFFFFFFFFFFF AND SWAP1 POP DUP2 PUSH0 PUSH0 PUSH2 0x100 EXP DUP2 SLOAD DUP2 PUSH20 0xFFFFFFFFFFFFFFFFFFFFFFFFFFFFFFFFFFFFFFFF MUL NOT AND SWAP1 DUP4 PUSH20 0xFFFFFFFFFFFFFFFFFFFFFFFFFFFFFFFFFFFFFFFF AND MUL OR SWAP1 SSTORE POP DUP2 PUSH20 0xFFFFFFFFFFFFFFFFFFFFFFFFFFFFFFFFFFFFFFFF AND DUP2 PUSH20 0xFFFFFFFFFFFFFFFFFFFFFFFFFFFFFFFFFFFFFFFF AND PUSH32 0x8BE0079C531659141344CD1FD0A4F28419497F9722A3DAAFE3B4186F6B6457E0 PUSH1 0x40 MLOAD PUSH1 0x40 MLOAD DUP1 SWAP2 SUB SWAP1 LOG3 POP POP JUMP JUMPDEST PUSH0 PUSH20 0xFFFFFFFFFFFFFFFFFFFFFFFFFFFFFFFFFFFFFFFF DUP3 AND SWAP1 POP SWAP2 SWAP1 POP JUMP JUMPDEST PUSH0 PUSH2 0x180 DUP3 PUSH2 0x157 JUMP JUMPDEST SWAP1 POP SWAP2 SWAP1 POP JUMP JUMPDEST PUSH2 0x190 DUP2 PUSH2 0x176 JUMP JUMPDEST DUP3 MSTORE POP POP JUMP JUMPDEST PUSH0 PUSH1 0x20 DUP3 ADD SWAP1 POP PUSH2 0x1A9 PUSH0 DUP4 ADD DUP5 PUSH2 0x187 JUMP JUMPDEST SWAP3 SWAP2 POP POP JUMP JUMPDEST PUSH2 0x1214 DUP1 PUSH2 0x1BC PUSH0 CODECOPY PUSH0 RETURN INVALID PUSH1 0x80 PUSH1 0x40 MSTORE CALLVALUE DUP1 ISZERO PUSH2 0xF JUMPI PUSH0 PUSH0 REVERT JUMPDEST POP PUSH1 0x4 CALLDATASIZE LT PUSH2 0x91 JUMPI PUSH0 CALLDATALOAD PUSH1 0xE0 SHR DUP1 PUSH4 0x715018A6 GT PUSH2 0x64 JUMPI DUP1 PUSH4 0x715018A6 EQ PUSH2 0x11D JUMPI DUP1 PUSH4 0x8DA5CB5B EQ PUSH2 0x127 JUMPI DUP1 PUSH4 0x9CAB93C7 EQ PUSH2 0x145 JUMPI DUP1 PUSH4 0xC6A645FE EQ PUSH2 0x161 JUMPI DUP1 PUSH4 0xF2FDE38B EQ PUSH2 0x17F JUMPI PUSH2 0x91 JUMP JUMPDEST DUP1 PUSH4 0x1D395F75 EQ PUSH2 0x95 JUMPI DUP1 PUSH4 0x2F30187B EQ PUSH2 0xB1 JUMPI DUP1 PUSH4 0x6A030CA9 EQ PUSH2 0xCD JUMPI DUP1 PUSH4 0x7051AD51 EQ PUSH2 0x101 JUMPI JUMPDEST PUSH0 PUSH0 REVERT JUMPDEST PUSH2 0xAF PUSH1 0x4 DUP1 CALLDATASIZE SUB DUP2 ADD SWAP1 PUSH2 0xAA SWAP2 SWAP1 PUSH2 0x90B JUMP JUMPDEST PUSH2 0x19B JUMP JUMPDEST STOP JUMPDEST PUSH2 0xCB PUSH1 0x4 DUP1 CALLDATASIZE SUB DUP2 ADD SWAP1 PUSH2 0xC6 SWAP2 SWAP1 PUSH2 0x98B JUMP JUMPDEST PUSH2 0x256 JUMP JUMPDEST STOP JUMPDEST PUSH2 0xE7 PUSH1 0x4 DUP1 CALLDATASIZE SUB DUP2 ADD SWAP1 PUSH2 0xE2 SWAP2 SWAP1 PUSH2 0x9C9 JUMP JUMPDEST PUSH2 0x326 JUMP JUMPDEST PUSH1 0x40 MLOAD PUSH2 0xF8 SWAP6 SWAP5 SWAP4 SWAP3 SWAP2 SWAP1 PUSH2 0xB48 JUMP JUMPDEST PUSH1 0x40 MLOAD DUP1 SWAP2 SUB SWAP1 RETURN JUMPDEST PUSH2 0x11B PUSH1 0x4 DUP1 CALLDATASIZE SUB DUP2 ADD SWAP1 PUSH2 0x116 SWAP2 SWAP1 PUSH2 0x9C9 JUMP JUMPDEST PUSH2 0x416 JUMP JUMPDEST STOP JUMPDEST PUSH2 0x125 PUSH2 0x49C JUMP JUMPDEST STOP JUMPDEST PUSH2 0x12F PUSH2 0x4AF JUMP JUMPDEST PUSH1 0x40 MLOAD PUSH2 0x13C SWAP2 SWAP1 PUSH2 0xBA0 JUMP JUMPDEST PUSH1 0x40 MLOAD DUP1 SWAP2 SUB SWAP1 RETURN JUMPDEST PUSH2 0x15F PUSH1 0x4 DUP1 CALLDATASIZE SUB DUP2 ADD SWAP1 PUSH2 0x15A SWAP2 SWAP1 PUSH2 0xBE3 JUMP JUMPDEST PUSH2 0x4D6 JUMP JUMPDEST STOP JUMPDEST PUSH2 0x169 PUSH2 0x696 JUMP JUMPDEST PUSH1 0x40 MLOAD PUSH2 0x176 SWAP2 SWAP1 PUSH2 0xC4F JUMP JUMPDEST PUSH1 0x40 MLOAD DUP1 SWAP2 SUB SWAP1 RETURN JUMPDEST PUSH2 0x199 PUSH1 0x4 DUP1 CALLDATASIZE SUB DUP2 ADD SWAP1 PUSH2 0x194 SWAP2 SWAP1 PUSH2 0xC92 JUMP JUMPDEST PUSH2 0x69C JUMP JUMPDEST STOP JUMPDEST PUSH2 0x1A3 PUSH2 0x720 JUMP JUMPDEST PUSH0 DUP4 GT DUP1 ISZERO PUSH2 0x1B4 JUMPI POP PUSH1 0x2 SLOAD DUP4 GT ISZERO JUMPDEST PUSH2 0x1F3 JUMPI PUSH1 0x40 MLOAD PUSH32 0x8C379A000000000000000000000000000000000000000000000000000000000 DUP2 MSTORE PUSH1 0x4 ADD PUSH2 0x1EA SWAP1 PUSH2 0xD07 JUMP JUMPDEST PUSH1 0x40 MLOAD DUP1 SWAP2 SUB SWAP1 REVERT JUMPDEST DUP2 DUP2 PUSH1 0x1 PUSH0 DUP7 DUP2 MSTORE PUSH1 0x20 ADD SWAP1 DUP2 MSTORE PUSH1 0x20 ADD PUSH0 KECCAK256 PUSH1 0x2 ADD SWAP2 DUP3 PUSH2 0x216 SWAP3 SWAP2 SWAP1 PUSH2 0xF59 JUMP JUMPDEST POP DUP3 PUSH32 0xE910A1C7CAA001791659755DB8E33AD3145E761A629460804EE022E3C94B8313 DUP4 DUP4 PUSH1 0x40 MLOAD PUSH2 0x249 SWAP3 SWAP2 SWAP1 PUSH2 0x1060 JUMP JUMPDEST PUSH1 0x40 MLOAD DUP1 SWAP2 SUB SWAP1 LOG2 POP POP POP JUMP JUMPDEST PUSH2 0x25E PUSH2 0x720 JUMP JUMPDEST PUSH0 DUP3 GT DUP1 ISZERO PUSH2 0x26F JUMPI POP PUSH1 0x2 SLOAD DUP3 GT ISZERO JUMPDEST PUSH2 0x2AE JUMPI PUSH1 0x40 MLOAD PUSH32 0x8C379A000000000000000000000000000000000000000000000000000000000 DUP2 MSTORE PUSH1 0x4 ADD PUSH2 0x2A5 SWAP1 PUSH2 0xD07 JUMP JUMPDEST PUSH1 0x40 MLOAD DUP1 SWAP2 SUB SWAP1 REVERT JUMPDEST DUP1 PUSH1 0x1 PUSH0 DUP5 DUP2 MSTORE PUSH1 0x20 ADD SWAP1 DUP2 MSTORE PUSH1 0x20 ADD PUSH0 KECCAK256 PUSH1 0x1 ADD PUSH1 0x14 PUSH2 0x100 EXP DUP2 SLOAD DUP2 PUSH1 0xFF MUL NOT AND SWAP1 DUP4 PUSH1 0x3 DUP2 GT ISZERO PUSH2 0x2E5 JUMPI PUSH2 0x2E4 PUSH2 0xA4B JUMP JUMPDEST JUMPDEST MUL OR SWAP1 SSTORE POP DUP2 PUSH32 0xBFB0438A1AE05F61E561FEA2DD930342B4AB667BE8DA8A67EF114CD4CA3636E5 DUP3 PUSH1 0x40 MLOAD PUSH2 0x31A SWAP2 SWAP1 PUSH2 0x1082 JUMP JUMPDEST PUSH1 0x40 MLOAD DUP1 SWAP2 SUB SWAP1 LOG2 POP POP JUMP JUMPDEST PUSH1 0x1 PUSH1 0x20 MSTORE DUP1 PUSH0 MSTORE PUSH1 0x40 PUSH0 KECCAK256 PUSH0 SWAP2 POP SWAP1 POP DUP1 PUSH0 ADD SLOAD SWAP1 DUP1 PUSH1 0x1 ADD PUSH0 SWAP1 SLOAD SWAP1 PUSH2 0x100 EXP SWAP1 DIV PUSH20 0xFFFFFFFFFFFFFFFFFFFFFFFFFFFFFFFFFFFFFFFF AND SWAP1 DUP1 PUSH1 0x1 ADD PUSH1 0x14 SWAP1 SLOAD SWAP1 PUSH2 0x100 EXP SWAP1 DIV PUSH1 0xFF AND SWAP1 DUP1 PUSH1 0x2 ADD DUP1 SLOAD PUSH2 0x383 SWAP1 PUSH2 0xD89 JUMP JUMPDEST DUP1 PUSH1 0x1F ADD PUSH1 0x20 DUP1 SWAP2 DIV MUL PUSH1 0x20 ADD PUSH1 0x40 MLOAD SWAP1 DUP2 ADD PUSH1 0x40 MSTORE DUP1 SWAP3 SWAP2 SWAP1 DUP2 DUP2 MSTORE PUSH1 0x20 ADD DUP3 DUP1 SLOAD PUSH2 0x3AF SWAP1 PUSH2 0xD89 JUMP JUMPDEST DUP1 ISZERO PUSH2 0x3FA JUMPI DUP1 PUSH1 0x1F LT PUSH2 0x3D1 JUMPI PUSH2 0x100 DUP1 DUP4 SLOAD DIV MUL DUP4 MSTORE SWAP2 PUSH1 0x20 ADD SWAP2 PUSH2 0x3FA JUMP JUMPDEST DUP3 ADD SWAP2 SWAP1 PUSH0 MSTORE PUSH1 0x20 PUSH0 KECCAK256 SWAP1 JUMPDEST DUP2 SLOAD DUP2 MSTORE SWAP1 PUSH1 0x1 ADD SWAP1 PUSH1 0x20 ADD DUP1 DUP4 GT PUSH2 0x3DD JUMPI DUP3 SWAP1 SUB PUSH1 0x1F AND DUP3 ADD SWAP2 JUMPDEST POP POP POP POP POP SWAP1 DUP1 PUSH1 0x3 ADD PUSH0 SWAP1 SLOAD SWAP1 PUSH2 0x100 EXP SWAP1 DIV PUSH1 0xFF AND SWAP1 POP DUP6 JUMP JUMPDEST PUSH2 0x41E PUSH2 0x720 JUMP JUMPDEST PUSH0 DUP2 GT DUP1 ISZERO PUSH2 0x42F JUMPI POP PUSH1 0x2 SLOAD DUP2 GT ISZERO JUMPDEST PUSH2 0x46E JUMPI PUSH1 0x40 MLOAD PUSH32 0x8C379A000000000000000000000000000000000000000000000000000000000 DUP2 MSTORE PUSH1 0x4 ADD PUSH2 0x465 SWAP1 PUSH2 0xD07 JUMP JUMPDEST PUSH1 0x40 MLOAD DUP1 SWAP2 SUB SWAP1 REVERT JUMPDEST PUSH1 0x1 DUP1 PUSH0 DUP4 DUP2 MSTORE PUSH1 0x20 ADD SWAP1 DUP2 MSTORE PUSH1 0x20 ADD PUSH0 KECCAK256 PUSH1 0x3 ADD PUSH0 PUSH2 0x100 EXP DUP2 SLOAD DUP2 PUSH1 0xFF MUL NOT AND SWAP1 DUP4 ISZERO ISZERO MUL OR SWAP1 SSTORE POP POP JUMP JUMPDEST PUSH2 0x4A4 PUSH2 0x720 JUMP JUMPDEST PUSH2 0x4AD PUSH0 PUSH2 0x7A7 JUMP JUMPDEST JUMP JUMPDEST PUSH0 PUSH0 PUSH0 SWAP1 SLOAD SWAP1 PUSH2 0x100 EXP SWAP1 DIV PUSH20 0xFFFFFFFFFFFFFFFFFFFFFFFFFFFFFFFFFFFFFFFF AND SWAP1 POP SWAP1 JUMP JUMPDEST PUSH1 0x2 PUSH0 DUP2 SLOAD DUP1 SWAP3 SWAP2 SWAP1 PUSH2 0x4E8 SWAP1 PUSH2 0x10C8 JUMP JUMPDEST SWAP2 SWAP1 POP SSTORE POP PUSH1 0x40 MLOAD DUP1 PUSH1 0xA0 ADD PUSH1 0x40 MSTORE DUP1 DUP5 DUP2 MSTORE PUSH1 0x20 ADD CALLER PUSH20 0xFFFFFFFFFFFFFFFFFFFFFFFFFFFFFFFFFFFFFFFF AND DUP2 MSTORE PUSH1 0x20 ADD PUSH0 PUSH1 0x3 DUP2 GT ISZERO PUSH2 0x52D JUMPI PUSH2 0x52C PUSH2 0xA4B JUMP JUMPDEST JUMPDEST DUP2 MSTORE PUSH1 0x20 ADD DUP4 DUP4 DUP1 DUP1 PUSH1 0x1F ADD PUSH1 0x20 DUP1 SWAP2 DIV MUL PUSH1 0x20 ADD PUSH1 0x40 MLOAD SWAP1 DUP2 ADD PUSH1 0x40 MSTORE DUP1 SWAP4 SWAP3 SWAP2 SWAP1 DUP2 DUP2 MSTORE PUSH1 0x20 ADD DUP4 DUP4 DUP1 DUP3 DUP5 CALLDATACOPY PUSH0 DUP2 DUP5 ADD MSTORE PUSH1 0x1F NOT PUSH1 0x1F DUP3 ADD AND SWAP1 POP DUP1 DUP4 ADD SWAP3 POP POP POP POP POP POP POP DUP2 MSTORE PUSH1 0x20 ADD PUSH0 ISZERO ISZERO DUP2 MSTORE POP PUSH1 0x1 PUSH0 PUSH1 0x2 SLOAD DUP2 MSTORE PUSH1 0x20 ADD SWAP1 DUP2 MSTORE PUSH1 0x20 ADD PUSH0 KECCAK256 PUSH0 DUP3 ADD MLOAD DUP2 PUSH0 ADD SSTORE PUSH1 0x20 DUP3 ADD MLOAD DUP2 PUSH1 0x1 ADD PUSH0 PUSH2 0x100 EXP DUP2 SLOAD DUP2 PUSH20 0xFFFFFFFFFFFFFFFFFFFFFFFFFFFFFFFFFFFFFFFF MUL NOT AND SWAP1 DUP4 PUSH20 0xFFFFFFFFFFFFFFFFFFFFFFFFFFFFFFFFFFFFFFFF AND MUL OR SWAP1 SSTORE POP PUSH1 0x40 DUP3 ADD MLOAD DUP2 PUSH1 0x1 ADD PUSH1 0x14 PUSH2 0x100 EXP DUP2 SLOAD DUP2 PUSH1 0xFF MUL NOT AND SWAP1 DUP4 PUSH1 0x3 DUP2 GT ISZERO PUSH2 0x60D JUMPI PUSH2 0x60C PUSH2 0xA4B JUMP JUMPDEST JUMPDEST MUL OR SWAP1 SSTORE POP PUSH1 0x60 DUP3 ADD MLOAD DUP2 PUSH1 0x2 ADD SWAP1 DUP2 PUSH2 0x627 SWAP2 SWAP1 PUSH2 0x110F JUMP JUMPDEST POP PUSH1 0x80 DUP3 ADD MLOAD DUP2 PUSH1 0x3 ADD PUSH0 PUSH2 0x100 EXP DUP2 SLOAD DUP2 PUSH1 0xFF MUL NOT AND SWAP1 DUP4 ISZERO ISZERO MUL OR SWAP1 SSTORE POP SWAP1 POP POP CALLER PUSH20 0xFFFFFFFFFFFFFFFFFFFFFFFFFFFFFFFFFFFFFFFF AND DUP4 PUSH1 0x2 SLOAD PUSH32 0xE51D75D08432F225114940AAD3B5FAF32120CF0D70D57640E163045C49E20798 PUSH1 0x40 MLOAD PUSH1 0x40 MLOAD DUP1 SWAP2 SUB SWAP1 LOG4 POP POP POP JUMP JUMPDEST PUSH1 0x2 SLOAD DUP2 JUMP JUMPDEST PUSH2 0x6A4 PUSH2 0x720 JUMP JUMPDEST PUSH0 PUSH20 0xFFFFFFFFFFFFFFFFFFFFFFFFFFFFFFFFFFFFFFFF AND DUP2 PUSH20 0xFFFFFFFFFFFFFFFFFFFFFFFFFFFFFFFFFFFFFFFF AND SUB PUSH2 0x714 JUMPI PUSH0 PUSH1 0x40 MLOAD PUSH32 0x1E4FBDF700000000000000000000000000000000000000000000000000000000 DUP2 MSTORE PUSH1 0x4 ADD PUSH2 0x70B SWAP2 SWAP1 PUSH2 0xBA0 JUMP JUMPDEST PUSH1 0x40 MLOAD DUP1 SWAP2 SUB SWAP1 REVERT JUMPDEST PUSH2 0x71D DUP2 PUSH2 0x7A7 JUMP JUMPDEST POP JUMP JUMPDEST PUSH2 0x728 PUSH2 0x868 JUMP JUMPDEST PUSH20 0xFFFFFFFFFFFFFFFFFFFFFFFFFFFFFFFFFFFFFFFF AND PUSH2 0x746 PUSH2 0x4AF JUMP JUMPDEST PUSH20 0xFFFFFFFFFFFFFFFFFFFFFFFFFFFFFFFFFFFFFFFF AND EQ PUSH2 0x7A5 JUMPI PUSH2 0x769 PUSH2 0x868 JUMP JUMPDEST PUSH1 0x40 MLOAD PUSH32 0x118CDAA700000000000000000000000000000000000000000000000000000000 DUP2 MSTORE PUSH1 0x4 ADD PUSH2 0x79C SWAP2 SWAP1 PUSH2 0xBA0 JUMP JUMPDEST PUSH1 0x40 MLOAD DUP1 SWAP2 SUB SWAP1 REVERT JUMPDEST JUMP JUMPDEST PUSH0 PUSH0 PUSH0 SWAP1 SLOAD SWAP1 PUSH2 0x100 EXP SWAP1 DIV PUSH20 0xFFFFFFFFFFFFFFFFFFFFFFFFFFFFFFFFFFFFFFFF AND SWAP1 POP DUP2 PUSH0 PUSH0 PUSH2 0x100 EXP DUP2 SLOAD DUP2 PUSH20 0xFFFFFFFFFFFFFFFFFFFFFFFFFFFFFFFFFFFFFFFF MUL NOT AND SWAP1 DUP4 PUSH20 0xFFFFFFFFFFFFFFFFFFFFFFFFFFFFFFFFFFFFFFFF AND MUL OR SWAP1 SSTORE POP DUP2 PUSH20 0xFFFFFFFFFFFFFFFFFFFFFFFFFFFFFFFFFFFFFFFF AND DUP2 PUSH20 0xFFFFFFFFFFFFFFFFFFFFFFFFFFFFFFFFFFFFFFFF AND PUSH32 0x8BE0079C531659141344CD1FD0A4F28419497F9722A3DAAFE3B4186F6B6457E0 PUSH1 0x40 MLOAD PUSH1 0x40 MLOAD DUP1 SWAP2 SUB SWAP1 LOG3 POP POP JUMP JUMPDEST PUSH0 CALLER SWAP1 POP SWAP1 JUMP JUMPDEST PUSH0 PUSH0 REVERT JUMPDEST PUSH0 PUSH0 REVERT JUMPDEST PUSH0 DUP2 SWAP1 POP SWAP2 SWAP1 POP JUMP JUMPDEST PUSH2 0x889 DUP2 PUSH2 0x877 JUMP JUMPDEST DUP2 EQ PUSH2 0x893 JUMPI PUSH0 PUSH0 REVERT JUMPDEST POP JUMP JUMPDEST PUSH0 DUP2 CALLDATALOAD SWAP1 POP PUSH2 0x8A4 DUP2 PUSH2 0x880 JUMP JUMPDEST SWAP3 SWAP2 POP POP JUMP JUMPDEST PUSH0 PUSH0 REVERT JUMPDEST PUSH0 PUSH0 REVERT JUMPDEST PUSH0 PUSH0 REVERT JUMPDEST PUSH0 PUSH0 DUP4 PUSH1 0x1F DUP5 ADD SLT PUSH2 0x8CB JUMPI PUSH2 0x8CA PUSH2 0x8AA JUMP JUMPDEST JUMPDEST DUP3 CALLDATALOAD SWAP1 POP PUSH8 0xFFFFFFFFFFFFFFFF DUP2 GT ISZERO PUSH2 0x8E8 JUMPI PUSH2 0x8E7 PUSH2 0x8AE JUMP JUMPDEST JUMPDEST PUSH1 0x20 DUP4 ADD SWAP2 POP DUP4 PUSH1 0x1 DUP3 MUL DUP4 ADD GT ISZERO PUSH2 0x904 JUMPI PUSH2 0x903 PUSH2 0x8B2 JUMP JUMPDEST JUMPDEST SWAP3 POP SWAP3 SWAP1 POP JUMP JUMPDEST PUSH0 PUSH0 PUSH0 PUSH1 0x40 DUP5 DUP7 SUB SLT ISZERO PUSH2 0x922 JUMPI PUSH2 0x921 PUSH2 0x86F JUMP JUMPDEST JUMPDEST PUSH0 PUSH2 0x92F DUP7 DUP3 DUP8 ADD PUSH2 0x896 JUMP JUMPDEST SWAP4 POP POP PUSH1 0x20 DUP5 ADD CALLDATALOAD PUSH8 0xFFFFFFFFFFFFFFFF DUP2 GT ISZERO PUSH2 0x950 JUMPI PUSH2 0x94F PUSH2 0x873 JUMP JUMPDEST JUMPDEST PUSH2 0x95C DUP7 DUP3 DUP8 ADD PUSH2 0x8B6 JUMP JUMPDEST SWAP3 POP SWAP3 POP POP SWAP3 POP SWAP3 POP SWAP3 JUMP JUMPDEST PUSH1 0x4 DUP2 LT PUSH2 0x974 JUMPI PUSH0 PUSH0 REVERT JUMPDEST POP JUMP JUMPDEST PUSH0 DUP2 CALLDATALOAD SWAP1 POP PUSH2 0x985 DUP2 PUSH2 0x968 JUMP JUMPDEST SWAP3 SWAP2 POP POP JUMP JUMPDEST PUSH0 PUSH0 PUSH1 0x40 DUP4 DUP6 SUB SLT ISZERO PUSH2 0x9A1 JUMPI PUSH2 0x9A0 PUSH2 0x86F JUMP JUMPDEST JUMPDEST PUSH0 PUSH2 0x9AE DUP6 DUP3 DUP7 ADD PUSH2 0x896 JUMP JUMPDEST SWAP3 POP POP PUSH1 0x20 PUSH2 0x9BF DUP6 DUP3 DUP7 ADD PUSH2 0x977 JUMP JUMPDEST SWAP2 POP POP SWAP3 POP SWAP3 SWAP1 POP JUMP JUMPDEST PUSH0 PUSH1 0x20 DUP3 DUP5 SUB SLT ISZERO PUSH2 0x9DE JUMPI PUSH2 0x9DD PUSH2 0x86F JUMP JUMPDEST JUMPDEST PUSH0 PUSH2 0x9EB DUP5 DUP3 DUP6 ADD PUSH2 0x896 JUMP JUMPDEST SWAP2 POP POP SWAP3 SWAP2 POP POP JUMP JUMPDEST PUSH0 DUP2 SWAP1 POP SWAP2 SWAP1 POP JUMP JUMPDEST PUSH2 0xA06 DUP2 PUSH2 0x9F4 JUMP JUMPDEST DUP3 MSTORE POP POP JUMP JUMPDEST PUSH0 PUSH20 0xFFFFFFFFFFFFFFFFFFFFFFFFFFFFFFFFFFFFFFFF DUP3 AND SWAP1 POP SWAP2 SWAP1 POP JUMP JUMPDEST PUSH0 PUSH2 0xA35 DUP3 PUSH2 0xA0C JUMP JUMPDEST SWAP1 POP SWAP2 SWAP1 POP JUMP JUMPDEST PUSH2 0xA45 DUP2 PUSH2 0xA2B JUMP JUMPDEST DUP3 MSTORE POP POP JUMP JUMPDEST PUSH32 0x4E487B7100000000000000000000000000000000000000000000000000000000 PUSH0 MSTORE PUSH1 0x21 PUSH1 0x4 MSTORE PUSH1 0x24 PUSH0 REVERT JUMPDEST PUSH1 0x4 DUP2 LT PUSH2 0xA89 JUMPI PUSH2 0xA88 PUSH2 0xA4B JUMP JUMPDEST JUMPDEST POP JUMP JUMPDEST PUSH0 DUP2 SWAP1 POP PUSH2 0xA99 DUP3 PUSH2 0xA78 JUMP JUMPDEST SWAP2 SWAP1 POP JUMP JUMPDEST PUSH0 PUSH2 0xAA8 DUP3 PUSH2 0xA8C JUMP JUMPDEST SWAP1 POP SWAP2 SWAP1 POP JUMP JUMPDEST PUSH2 0xAB8 DUP2 PUSH2 0xA9E JUMP JUMPDEST DUP3 MSTORE POP POP JUMP JUMPDEST PUSH0 DUP2 MLOAD SWAP1 POP SWAP2 SWAP1 POP JUMP JUMPDEST PUSH0 DUP3 DUP3 MSTORE PUSH1 0x20 DUP3 ADD SWAP1 POP SWAP3 SWAP2 POP POP JUMP JUMPDEST DUP3 DUP2 DUP4 MCOPY PUSH0 DUP4 DUP4 ADD MSTORE POP POP POP JUMP JUMPDEST PUSH0 PUSH1 0x1F NOT PUSH1 0x1F DUP4 ADD AND SWAP1 POP SWAP2 SWAP1 POP JUMP JUMPDEST PUSH0 PUSH2 0xB00 DUP3 PUSH2 0xABE JUMP JUMPDEST PUSH2 0xB0A DUP2 DUP6 PUSH2 0xAC8 JUMP JUMPDEST SWAP4 POP PUSH2 0xB1A DUP2 DUP6 PUSH1 0x20 DUP7 ADD PUSH2 0xAD8 JUMP JUMPDEST PUSH2 0xB23 DUP2 PUSH2 0xAE6 JUMP JUMPDEST DUP5 ADD SWAP2 POP POP SWAP3 SWAP2 POP POP JUMP JUMPDEST PUSH0 DUP2 ISZERO ISZERO SWAP1 POP SWAP2 SWAP1 POP JUMP JUMPDEST PUSH2 0xB42 DUP2 PUSH2 0xB2E JUMP JUMPDEST DUP3 MSTORE POP POP JUMP JUMPDEST PUSH0 PUSH1 0xA0 DUP3 ADD SWAP1 POP PUSH2 0xB5B PUSH0 DUP4 ADD DUP9 PUSH2 0x9FD JUMP JUMPDEST PUSH2 0xB68 PUSH1 0x20 DUP4 ADD DUP8 PUSH2 0xA3C JUMP JUMPDEST PUSH2 0xB75 PUSH1 0x40 DUP4 ADD DUP7 PUSH2 0xAAF JUMP JUMPDEST DUP2 DUP2 SUB PUSH1 0x60 DUP4 ADD MSTORE PUSH2 0xB87 DUP2 DUP6 PUSH2 0xAF6 JUMP JUMPDEST SWAP1 POP PUSH2 0xB96 PUSH1 0x80 DUP4 ADD DUP5 PUSH2 0xB39 JUMP JUMPDEST SWAP7 SWAP6 POP POP POP POP POP POP JUMP JUMPDEST PUSH0 PUSH1 0x20 DUP3 ADD SWAP1 POP PUSH2 0xBB3 PUSH0 DUP4 ADD DUP5 PUSH2 0xA3C JUMP JUMPDEST SWAP3 SWAP2 POP POP JUMP JUMPDEST PUSH2 0xBC2 DUP2 PUSH2 0x9F4 JUMP JUMPDEST DUP2 EQ PUSH2 0xBCC JUMPI PUSH0 PUSH0 REVERT JUMPDEST POP JUMP JUMPDEST PUSH0 DUP2 CALLDATALOAD SWAP1 POP PUSH2 0xBDD DUP2 PUSH2 0xBB9 JUMP JUMPDEST SWAP3 SWAP2 POP POP JUMP JUMPDEST PUSH0 PUSH0 PUSH0 PUSH1 0x40 DUP5 DUP7 SUB SLT ISZERO PUSH2 0xBFA JUMPI PUSH2 0xBF9 PUSH2 0x86F JUMP JUMPDEST JUMPDEST PUSH0 PUSH2 0xC07 DUP7 DUP3 DUP8 ADD PUSH2 0xBCF JUMP JUMPDEST SWAP4 POP POP PUSH1 0x20 DUP5 ADD CALLDATALOAD PUSH8 0xFFFFFFFFFFFFFFFF DUP2 GT ISZERO PUSH2 0xC28 JUMPI PUSH2 0xC27 PUSH2 0x873 JUMP JUMPDEST JUMPDEST PUSH2 0xC34 DUP7 DUP3 DUP8 ADD PUSH2 0x8B6 JUMP JUMPDEST SWAP3 POP SWAP3 POP POP SWAP3 POP SWAP3 POP SWAP3 JUMP JUMPDEST PUSH2 0xC49 DUP2 PUSH2 0x877 JUMP JUMPDEST DUP3 MSTORE POP POP JUMP JUMPDEST PUSH0 PUSH1 0x20 DUP3 ADD SWAP1 POP PUSH2 0xC62 PUSH0 DUP4 ADD DUP5 PUSH2 0xC40 JUMP JUMPDEST SWAP3 SWAP2 POP POP JUMP JUMPDEST PUSH2 0xC71 DUP2 PUSH2 0xA2B JUMP JUMPDEST DUP2 EQ PUSH2 0xC7B JUMPI PUSH0 PUSH0 REVERT JUMPDEST POP JUMP JUMPDEST PUSH0 DUP2 CALLDATALOAD SWAP1 POP PUSH2 0xC8C DUP2 PUSH2 0xC68 JUMP JUMPDEST SWAP3 SWAP2 POP POP JUMP JUMPDEST PUSH0 PUSH1 0x20 DUP3 DUP5 SUB SLT ISZERO PUSH2 0xCA7 JUMPI PUSH2 0xCA6 PUSH2 0x86F JUMP JUMPDEST JUMPDEST PUSH0 PUSH2 0xCB4 DUP5 DUP3 DUP6 ADD PUSH2 0xC7E JUMP JUMPDEST SWAP2 POP POP SWAP3 SWAP2 POP POP JUMP JUMPDEST PUSH32 0x4D6F64656C52656769737472793A20496E76616C6964206D6F64656C20494400 PUSH0 DUP3 ADD MSTORE POP JUMP JUMPDEST PUSH0 PUSH2 0xCF1 PUSH1 0x1F DUP4 PUSH2 0xAC8 JUMP JUMPDEST SWAP2 POP PUSH2 0xCFC DUP3 PUSH2 0xCBD JUMP JUMPDEST PUSH1 0x20 DUP3 ADD SWAP1 POP SWAP2 SWAP1 POP JUMP JUMPDEST PUSH0 PUSH1 0x20 DUP3 ADD SWAP1 POP DUP2 DUP2 SUB PUSH0 DUP4 ADD MSTORE PUSH2 0xD1E DUP2 PUSH2 0xCE5 JUMP JUMPDEST SWAP1 POP SWAP2 SWAP1 POP JUMP JUMPDEST PUSH0 DUP3 SWAP1 POP SWAP3 SWAP2 POP POP JUMP JUMPDEST PUSH32 0x4E487B7100000000000000000000000000000000000000000000000000000000 PUSH0 MSTORE PUSH1 0x41 PUSH1 0x4 MSTORE PUSH1 0x24 PUSH0 REVERT JUMPDEST PUSH32 0x4E487B7100000000000000000000000000000000000000000000000000000000 PUSH0 MSTORE PUSH1 0x22 PUSH1 0x4 MSTORE PUSH1 0x24 PUSH0 REVERT JUMPDEST PUSH0 PUSH1 0x2 DUP3 DIV SWAP1 POP PUSH1 0x1 DUP3 AND DUP1 PUSH2 0xDA0 JUMPI PUSH1 0x7F DUP3 AND SWAP2 POP JUMPDEST PUSH1 0x20 DUP3 LT DUP2 SUB PUSH2 0xDB3 JUMPI PUSH2 0xDB2 PUSH2 0xD5C JUMP JUMPDEST JUMPDEST POP SWAP2 SWAP1 POP JUMP JUMPDEST PUSH0 DUP2 SWAP1 POP DUP2 PUSH0 MSTORE PUSH1 0x20 PUSH0 KECCAK256 SWAP1 POP SWAP2 SWAP1 POP JUMP JUMPDEST PUSH0 PUSH1 0x20 PUSH1 0x1F DUP4 ADD DIV SWAP1 POP SWAP2 SWAP1 POP JUMP JUMPDEST PUSH0 DUP3 DUP3 SHL SWAP1 POP SWAP3 SWAP2 POP POP JUMP JUMPDEST PUSH0 PUSH1 0x8 DUP4 MUL PUSH2 0xE15 PUSH32 0xFFFFFFFFFFFFFFFFFFFFFFFFFFFFFFFFFFFFFFFFFFFFFFFFFFFFFFFFFFFFFFFF DUP3 PUSH2 0xDDA JUMP JUMPDEST PUSH2 0xE1F DUP7 DUP4 PUSH2 0xDDA JUMP JUMPDEST SWAP6 POP DUP1 NOT DUP5 AND SWAP4 POP DUP1 DUP7 AND DUP5 OR SWAP3 POP POP POP SWAP4 SWAP3 POP POP POP JUMP JUMPDEST PUSH0 DUP2 SWAP1 POP SWAP2 SWAP1 POP JUMP JUMPDEST PUSH0 PUSH2 0xE5A PUSH2 0xE55 PUSH2 0xE50 DUP5 PUSH2 0x877 JUMP JUMPDEST PUSH2 0xE37 JUMP JUMPDEST PUSH2 0x877 JUMP JUMPDEST SWAP1 POP SWAP2 SWAP1 POP JUMP JUMPDEST PUSH0 DUP2 SWAP1 POP SWAP2 SWAP1 POP JUMP JUMPDEST PUSH2 0xE73 DUP4 PUSH2 0xE40 JUMP JUMPDEST PUSH2 0xE87 PUSH2 0xE7F DUP3 PUSH2 0xE61 JUMP JUMPDEST DUP5 DUP5 SLOAD PUSH2 0xDE6 JUMP JUMPDEST DUP3 SSTORE POP POP POP POP JUMP JUMPDEST PUSH0 PUSH0 SWAP1 POP SWAP1 JUMP JUMPDEST PUSH2 0xE9E PUSH2 0xE8F JUMP JUMPDEST PUSH2 0xEA9 DUP2 DUP5 DUP5 PUSH2 0xE6A JUMP JUMPDEST POP POP POP JUMP JUMPDEST JUMPDEST DUP2 DUP2 LT ISZERO PUSH2 0xECC JUMPI PUSH2 0xEC1 PUSH0 DUP3 PUSH2 0xE96 JUMP JUMPDEST PUSH1 0x1 DUP2 ADD SWAP1 POP PUSH2 0xEAF JUMP JUMPDEST POP POP JUMP JUMPDEST PUSH1 0x1F DUP3 GT ISZERO PUSH2 0xF11 JUMPI PUSH2 0xEE2 DUP2 PUSH2 0xDB9 JUMP JUMPDEST PUSH2 0xEEB DUP5 PUSH2 0xDCB JUMP JUMPDEST DUP2 ADD PUSH1 0x20 DUP6 LT ISZERO PUSH2 0xEFA JUMPI DUP2 SWAP1 POP JUMPDEST PUSH2 0xF0E PUSH2 0xF06 DUP6 PUSH2 0xDCB JUMP JUMPDEST DUP4 ADD DUP3 PUSH2 0xEAE JUMP JUMPDEST POP POP JUMPDEST POP POP POP JUMP JUMPDEST PUSH0 DUP3 DUP3 SHR SWAP1 POP SWAP3 SWAP2 POP POP JUMP JUMPDEST PUSH0 PUSH2 0xF31 PUSH0 NOT DUP5 PUSH1 0x8 MUL PUSH2 0xF16 JUMP JUMPDEST NOT DUP1 DUP4 AND SWAP2 POP POP SWAP3 SWAP2 POP POP JUMP JUMPDEST PUSH0 PUSH2 0xF49 DUP4 DUP4 PUSH2 0xF22 JUMP JUMPDEST SWAP2 POP DUP3 PUSH1 0x2 MUL DUP3 OR SWAP1 POP SWAP3 SWAP2 POP POP JUMP JUMPDEST PUSH2 0xF63 DUP4 DUP4 PUSH2 0xD25 JUMP JUMPDEST PUSH8 0xFFFFFFFFFFFFFFFF DUP2 GT ISZERO PUSH2 0xF7C JUMPI PUSH2 0xF7B PUSH2 0xD2F JUMP JUMPDEST JUMPDEST PUSH2 0xF86 DUP3 SLOAD PUSH2 0xD89 JUMP JUMPDEST PUSH2 0xF91 DUP3 DUP3 DUP6 PUSH2 0xED0 JUMP JUMPDEST PUSH0 PUSH1 0x1F DUP4 GT PUSH1 0x1 DUP2 EQ PUSH2 0xFBE JUMPI PUSH0 DUP5 ISZERO PUSH2 0xFAC JUMPI DUP3 DUP8 ADD CALLDATALOAD SWAP1 POP JUMPDEST PUSH2 0xFB6 DUP6 DUP3 PUSH2 0xF3E JUMP JUMPDEST DUP7 SSTORE POP PUSH2 0x101D JUMP JUMPDEST PUSH1 0x1F NOT DUP5 AND PUSH2 0xFCC DUP7 PUSH2 0xDB9 JUMP JUMPDEST PUSH0 JUMPDEST DUP3 DUP2 LT ISZERO PUSH2 0xFF3 JUMPI DUP5 DUP10 ADD CALLDATALOAD DUP3 SSTORE PUSH1 0x1 DUP3 ADD SWAP2 POP PUSH1 0x20 DUP6 ADD SWAP5 POP PUSH1 0x20 DUP2 ADD SWAP1 POP PUSH2 0xFCE JUMP JUMPDEST DUP7 DUP4 LT ISZERO PUSH2 0x1010 JUMPI DUP5 DUP10 ADD CALLDATALOAD PUSH2 0x100C PUSH1 0x1F DUP10 AND DUP3 PUSH2 0xF22 JUMP JUMPDEST DUP4 SSTORE POP JUMPDEST PUSH1 0x1 PUSH1 0x2 DUP9 MUL ADD DUP9 SSTORE POP POP POP JUMPDEST POP POP POP POP POP POP POP JUMP JUMPDEST DUP3 DUP2 DUP4 CALLDATACOPY PUSH0 DUP4 DUP4 ADD MSTORE POP POP POP JUMP JUMPDEST PUSH0 PUSH2 0x103F DUP4 DUP6 PUSH2 0xAC8 JUMP JUMPDEST SWAP4 POP PUSH2 0x104C DUP4 DUP6 DUP5 PUSH2 0x1026 JUMP JUMPDEST PUSH2 0x1055 DUP4 PUSH2 0xAE6 JUMP JUMPDEST DUP5 ADD SWAP1 POP SWAP4 SWAP3 POP POP POP JUMP JUMPDEST PUSH0 PUSH1 0x20 DUP3 ADD SWAP1 POP DUP2 DUP2 SUB PUSH0 DUP4 ADD MSTORE PUSH2 0x1079 DUP2 DUP5 DUP7 PUSH2 0x1034 JUMP JUMPDEST SWAP1 POP SWAP4 SWAP3 POP POP POP JUMP JUMPDEST PUSH0 PUSH1 0x20 DUP3 ADD SWAP1 POP PUSH2 0x1095 PUSH0 DUP4 ADD DUP5 PUSH2 0xAAF JUMP JUMPDEST SWAP3 SWAP2 POP POP JUMP JUMPDEST PUSH32 0x4E487B7100000000000000000000000000000000000000000000000000000000 PUSH0 MSTORE PUSH1 0x11 PUSH1 0x4 MSTORE PUSH1 0x24 PUSH0 REVERT JUMPDEST PUSH0 PUSH2 0x10D2 DUP3 PUSH2 0x877 JUMP JUMPDEST SWAP2 POP PUSH32 0xFFFFFFFFFFFFFFFFFFFFFFFFFFFFFFFFFFFFFFFFFFFFFFFFFFFFFFFFFFFFFFFF DUP3 SUB PUSH2 0x1104 JUMPI PUSH2 0x1103 PUSH2 0x109B JUMP JUMPDEST JUMPDEST PUSH1 0x1 DUP3 ADD SWAP1 POP SWAP2 SWAP1 POP JUMP JUMPDEST PUSH2 0x1118 DUP3 PUSH2 0xABE JUMP JUMPDEST PUSH8 0xFFFFFFFFFFFFFFFF DUP2 GT ISZERO PUSH2 0x1131 JUMPI PUSH2 0x1130 PUSH2 0xD2F JUMP JUMPDEST JUMPDEST PUSH2 0x113B DUP3 SLOAD PUSH2 0xD89 JUMP JUMPDEST PUSH2 0x1146 DUP3 DUP3 DUP6 PUSH2 0xED0 JUMP JUMPDEST PUSH0 PUSH1 0x20 SWAP1 POP PUSH1 0x1F DUP4 GT PUSH1 0x1 DUP2 EQ PUSH2 0x1177 JUMPI PUSH0 DUP5 ISZERO PUSH2 0x1165 JUMPI DUP3 DUP8 ADD MLOAD SWAP1 POP JUMPDEST PUSH2 0x116F DUP6 DUP3 PUSH2 0xF3E JUMP JUMPDEST DUP7 SSTORE POP PUSH2 0x11D6 JUMP JUMPDEST PUSH1 0x1F NOT DUP5 AND PUSH2 0x1185 DUP7 PUSH2 0xDB9 JUMP JUMPDEST PUSH0 JUMPDEST DUP3 DUP2 LT ISZERO PUSH2 0x11AC JUMPI DUP5 DUP10 ADD MLOAD DUP3 SSTORE PUSH1 0x1 DUP3 ADD SWAP2 POP PUSH1 0x20 DUP6 ADD SWAP5 POP PUSH1 0x20 DUP2 ADD SWAP1 POP PUSH2 0x1187 JUMP JUMPDEST DUP7 DUP4 LT ISZERO PUSH2 0x11C9 JUMPI DUP5 DUP10 ADD MLOAD PUSH2 0x11C5 PUSH1 0x1F DUP10 AND DUP3 PUSH2 0xF22 JUMP JUMPDEST DUP4 SSTORE POP JUMPDEST PUSH1 0x1 PUSH1 0x2 DUP9 MUL ADD DUP9 SSTORE POP POP POP JUMPDEST POP POP POP POP POP POP JUMP INVALID LOG2 PUSH5 0x6970667358 0x22 SLT KECCAK256 SWAP7 EXTCODECOPY BYTE 0x24 BLOCKHASH SGT 0xEF NUMBER 0xD9 DUP13 BASEFEE DUP2 GASPRICE 0x29 0xA6 POP 0xCC SWAP4 XOR 0xD4 PUSH20 0x90311E5C24050E263D69C664736F6C634300081E STOP CALLER "
				},
				"gasEstimates": {
					"creation": {
						"codeDepositCost": "925600",
						"executionCost": "infinite",
						"totalCost": "infinite"
					},
					"external": {
						"modelCount()": "2491",
						"models(uint256)": "infinite",
						"owner()": "2536",
						"renounceOwnership()": "infinite",
						"submitModel(bytes32,string)": "infinite",
						"transferOwnership(address)": "infinite",
						"updateModelStatus(uint256,uint8)": "infinite",
						"updatePerformanceMetrics(uint256,string)": "infinite",
						"verifyModel(uint256)": "infinite"
					}
				},
				"methodIdentifiers": {
					"modelCount()": "c6a645fe",
					"models(uint256)": "6a030ca9",
					"owner()": "8da5cb5b",
					"renounceOwnership()": "715018a6",
					"submitModel(bytes32,string)": "9cab93c7",
					"transferOwnership(address)": "f2fde38b",
					"updateModelStatus(uint256,uint8)": "2f30187b",
					"updatePerformanceMetrics(uint256,string)": "1d395f75",
					"verifyModel(uint256)": "7051ad51"
				}
			},
			"storageLayout": {
				"storage": [
					{
						"astId": 8,
						"contract": "contract/ModelRegistry.sol:ModelRegistry",
						"label": "_owner",
						"offset": 0,
						"slot": "0",
						"type": "t_address"
					},
					{
						"astId": 204,
						"contract": "contract/ModelRegistry.sol:ModelRegistry",
						"label": "models",
						"offset": 0,
						"slot": "1",
						"type": "t_mapping(t_uint256,t_struct(AIModel)199_storage)"
					},
					{
						"astId": 206,
						"contract": "contract/ModelRegistry.sol:ModelRegistry",
						"label": "modelCount",
						"offset": 0,
						"slot": "2",
						"type": "t_uint256"
					}
				],
				"types": {
					"t_address": {
						"encoding": "inplace",
						"label": "address",
						"numberOfBytes": "20"
					},
					"t_bool": {
						"encoding": "inplace",
						"label": "bool",
						"numberOfBytes": "1"
					},
					"t_bytes32": {
						"encoding": "inplace",
						"label": "bytes32",
						"numberOfBytes": "32"
					},
					"t_enum(ModelStatus)187": {
						"encoding": "inplace",
						"label": "enum ModelRegistry.ModelStatus",
						"numberOfBytes": "1"
					},
					"t_mapping(t_uint256,t_struct(AIModel)199_storage)": {
						"encoding": "mapping",
						"key": "t_uint256",
						"label": "mapping(uint256 => struct ModelRegistry.AIModel)",
						"numberOfBytes": "32",
						"value": "t_struct(AIModel)199_storage"
					},
					"t_string_storage": {
						"encoding": "bytes",
						"label": "string",
						"numberOfBytes": "32"
					},
					"t_struct(AIModel)199_storage": {
						"encoding": "inplace",
						"label": "struct ModelRegistry.AIModel",
						"members": [
							{
								"astId": 189,
								"contract": "contract/ModelRegistry.sol:ModelRegistry",
								"label": "modelHash",
								"offset": 0,
								"slot": "0",
								"type": "t_bytes32"
							},
							{
								"astId": 191,
								"contract": "contract/ModelRegistry.sol:ModelRegistry",
								"label": "submitter",
								"offset": 0,
								"slot": "1",
								"type": "t_address"
							},
							{
								"astId": 194,
								"contract": "contract/ModelRegistry.sol:ModelRegistry",
								"label": "status",
								"offset": 20,
								"slot": "1",
								"type": "t_enum(ModelStatus)187"
							},
							{
								"astId": 196,
								"contract": "contract/ModelRegistry.sol:ModelRegistry",
								"label": "performanceMetrics",
								"offset": 0,
								"slot": "2",
								"type": "t_string_storage"
							},
							{
								"astId": 198,
								"contract": "contract/ModelRegistry.sol:ModelRegistry",
								"label": "isVerified",
								"offset": 0,
								"slot": "3",
								"type": "t_bool"
							}
						],
						"numberOfBytes": "128"
					},
					"t_uint256": {
						"encoding": "inplace",
						"label": "uint256",
						"numberOfBytes": "32"
					}
				}
			},
			"userdoc": {
				"kind": "user",
				"methods": {},
				"version": 1
			}
		}
	}
}