{
	"contract/ComputeRewards.sol": {
		"ComputeRewards": {
			"abi": [
				{
					"inputs": [
						{
							"internalType": "address",
							"name": "_rewardTokenAddress",
							"type": "address"
						}
					],
					"stateMutability": "nonpayable",
					"type": "constructor"
				},
				{
					"inputs": [],
					"name": "AccessControlBadConfirmation",
					"type": "error"
				},
				{
					"inputs": [
						{
							"internalType": "address",
							"name": "account",
							"type": "address"
						},
						{
							"internalType": "bytes32",
							"name": "neededRole",
							"type": "bytes32"
						}
					],
					"name": "AccessControlUnauthorizedAccount",
					"type": "error"
				},
				{
					"anonymous": false,
					"inputs": [
						{
							"indexed": true,
							"internalType": "address",
							"name": "user",
							"type": "address"
						},
						{
							"indexed": false,
							"internalType": "uint256",
							"name": "amount",
							"type": "uint256"
						}
					],
					"name": "RewardClaimed",
					"type": "event"
				},
				{
					"anonymous": false,
					"inputs": [
						{
							"indexed": true,
							"internalType": "address",
							"name": "user",
							"type": "address"
						},
						{
							"indexed": false,
							"internalType": "uint256",
							"name": "amount",
							"type": "uint256"
						}
					],
					"name": "RewardsAllocated",
					"type": "event"
				},
				{
					"anonymous": false,
					"inputs": [
						{
							"indexed": true,
							"internalType": "bytes32",
							"name": "role",
							"type": "bytes32"
						},
						{
							"indexed": true,
							"internalType": "bytes32",
							"name": "previousAdminRole",
							"type": "bytes32"
						},
						{
							"indexed": true,
							"internalType": "bytes32",
							"name": "newAdminRole",
							"type": "bytes32"
						}
					],
					"name": "RoleAdminChanged",
					"type": "event"
				},
				{
					"anonymous": false,
					"inputs": [
						{
							"indexed": true,
							"internalType": "bytes32",
							"name": "role",
							"type": "bytes32"
						},
						{
							"indexed": true,
							"internalType": "address",
							"name": "account",
							"type": "address"
						},
						{
							"indexed": true,
							"internalType": "address",
							"name": "sender",
							"type": "address"
						}
					],
					"name": "RoleGranted",
					"type": "event"
				},
				{
					"anonymous": false,
					"inputs": [
						{
							"indexed": true,
							"internalType": "bytes32",
							"name": "role",
							"type": "bytes32"
						},
						{
							"indexed": true,
							"internalType": "address",
							"name": "account",
							"type": "address"
						},
						{
							"indexed": true,
							"internalType": "address",
							"name": "sender",
							"type": "address"
						}
					],
					"name": "RoleRevoked",
					"type": "event"
				},
				{
					"inputs": [],
					"name": "DEFAULT_ADMIN_ROLE",
					"outputs": [
						{
							"internalType": "bytes32",
							"name": "",
							"type": "bytes32"
						}
					],
					"stateMutability": "view",
					"type": "function"
				},
				{
					"inputs": [],
					"name": "ORACLE_ROLE",
					"outputs": [
						{
							"internalType": "bytes32",
							"name": "",
							"type": "bytes32"
						}
					],
					"stateMutability": "view",
					"type": "function"
				},
				{
					"inputs": [
						{
							"internalType": "address[]",
							"name": "_users",
							"type": "address[]"
						},
						{
							"internalType": "uint256[]",
							"name": "_amounts",
							"type": "uint256[]"
						}
					],
					"name": "allocateRewards",
					"outputs": [],
					"stateMutability": "nonpayable",
					"type": "function"
				},
				{
					"inputs": [
						{
							"internalType": "address",
							"name": "_user",
							"type": "address"
						}
					],
					"name": "availableRewards",
					"outputs": [
						{
							"internalType": "uint256",
							"name": "",
							"type": "uint256"
						}
					],
					"stateMutability": "view",
					"type": "function"
				},
				{
					"inputs": [],
					"name": "claimReward",
					"outputs": [],
					"stateMutability": "nonpayable",
					"type": "function"
				},
				{
					"inputs": [
						{
							"internalType": "bytes32",
							"name": "role",
							"type": "bytes32"
						}
					],
					"name": "getRoleAdmin",
					"outputs": [
						{
							"internalType": "bytes32",
							"name": "",
							"type": "bytes32"
						}
					],
					"stateMutability": "view",
					"type": "function"
				},
				{
					"inputs": [
						{
							"internalType": "bytes32",
							"name": "role",
							"type": "bytes32"
						},
						{
							"internalType": "address",
							"name": "account",
							"type": "address"
						}
					],
					"name": "grantRole",
					"outputs": [],
					"stateMutability": "nonpayable",
					"type": "function"
				},
				{
					"inputs": [
						{
							"internalType": "bytes32",
							"name": "role",
							"type": "bytes32"
						},
						{
							"internalType": "address",
							"name": "account",
							"type": "address"
						}
					],
					"name": "hasRole",
					"outputs": [
						{
							"internalType": "bool",
							"name": "",
							"type": "bool"
						}
					],
					"stateMutability": "view",
					"type": "function"
				},
				{
					"inputs": [
						{
							"internalType": "bytes32",
							"name": "role",
							"type": "bytes32"
						},
						{
							"internalType": "address",
							"name": "callerConfirmation",
							"type": "address"
						}
					],
					"name": "renounceRole",
					"outputs": [],
					"stateMutability": "nonpayable",
					"type": "function"
				},
				{
					"inputs": [
						{
							"internalType": "bytes32",
							"name": "role",
							"type": "bytes32"
						},
						{
							"internalType": "address",
							"name": "account",
							"type": "address"
						}
					],
					"name": "revokeRole",
					"outputs": [],
					"stateMutability": "nonpayable",
					"type": "function"
				},
				{
					"inputs": [],
					"name": "rewardToken",
					"outputs": [
						{
							"internalType": "contract IERC20",
							"name": "",
							"type": "address"
						}
					],
					"stateMutability": "view",
					"type": "function"
				},
				{
					"inputs": [
						{
							"internalType": "address",
							"name": "",
							"type": "address"
						}
					],
					"name": "rewards",
					"outputs": [
						{
							"internalType": "uint256",
							"name": "",
							"type": "uint256"
						}
					],
					"stateMutability": "view",
					"type": "function"
				},
				{
					"inputs": [
						{
							"internalType": "bytes4",
							"name": "interfaceId",
							"type": "bytes4"
						}
					],
					"name": "supportsInterface",
					"outputs": [
						{
							"internalType": "bool",
							"name": "",
							"type": "bool"
						}
					],
					"stateMutability": "view",
					"type": "function"
				}
			],
			"devdoc": {
				"errors": {
					"AccessControlBadConfirmation()": [
						{
							"details": "The caller of a function is not the expected one. NOTE: Don't confuse with {AccessControlUnauthorizedAccount}."
						}
					],
					"AccessControlUnauthorizedAccount(address,bytes32)": [
						{
							"details": "The `account` is missing a role."
						}
					]
				},
				"events": {
					"RoleAdminChanged(bytes32,bytes32,bytes32)": {
						"details": "Emitted when `newAdminRole` is set as ``role``'s admin role, replacing `previousAdminRole` `DEFAULT_ADMIN_ROLE` is the starting admin for all roles, despite {RoleAdminChanged} not being emitted to signal this."
					},
					"RoleGranted(bytes32,address,address)": {
						"details": "Emitted when `account` is granted `role`. `sender` is the account that originated the contract call. This account bears the admin role (for the granted role). Expected in cases where the role was granted using the internal {AccessControl-_grantRole}."
					},
					"RoleRevoked(bytes32,address,address)": {
						"details": "Emitted when `account` is revoked `role`. `sender` is the account that originated the contract call:   - if using `revokeRole`, it is the admin role bearer   - if using `renounceRole`, it is the role bearer (i.e. `account`)"
					}
				},
				"kind": "dev",
				"methods": {
					"getRoleAdmin(bytes32)": {
						"details": "Returns the admin role that controls `role`. See {grantRole} and {revokeRole}. To change a role's admin, use {_setRoleAdmin}."
					},
					"grantRole(bytes32,address)": {
						"details": "Grants `role` to `account`. If `account` had not been already granted `role`, emits a {RoleGranted} event. Requirements: - the caller must have ``role``'s admin role. May emit a {RoleGranted} event."
					},
					"hasRole(bytes32,address)": {
						"details": "Returns `true` if `account` has been granted `role`."
					},
					"renounceRole(bytes32,address)": {
						"details": "Revokes `role` from the calling account. Roles are often managed via {grantRole} and {revokeRole}: this function's purpose is to provide a mechanism for accounts to lose their privileges if they are compromised (such as when a trusted device is misplaced). If the calling account had been revoked `role`, emits a {RoleRevoked} event. Requirements: - the caller must be `callerConfirmation`. May emit a {RoleRevoked} event."
					},
					"revokeRole(bytes32,address)": {
						"details": "Revokes `role` from `account`. If `account` had been granted `role`, emits a {RoleRevoked} event. Requirements: - the caller must have ``role``'s admin role. May emit a {RoleRevoked} event."
					},
					"supportsInterface(bytes4)": {
						"details": "Returns true if this contract implements the interface defined by `interfaceId`. See the corresponding https://eips.ethereum.org/EIPS/eip-165#how-interfaces-are-identified[ERC section] to learn more about how these ids are created. This function call must use less than 30 000 gas."
					}
				},
				"version": 1
			},
			"evm": {
				"assembly": "    /* \"contract/ComputeRewards.sol\":245:1720  contract ComputeRewards is AccessControl, ReentrancyGuard {... */\n  mstore(0x40, 0xa0)\n    /* \"contract/ComputeRewards.sol\":617:817  constructor(address _rewardTokenAddress) {... */\n  callvalue\n  dup1\n  iszero\n  tag_1\n  jumpi\n  revert(0x00, 0x00)\ntag_1:\n  pop\n  mload(0x40)\n  sub(codesize, bytecodeSize)\n  dup1\n  bytecodeSize\n  dup4\n  codecopy\n  dup2\n  dup2\n  add\n  0x40\n  mstore\n  dup2\n  add\n  swap1\n  tag_2\n  swap2\n  swap1\n  tag_3\n  jump\t// in\ntag_2:\n    /* \"@openzeppelin/contracts/security/ReentrancyGuard.sol\":1716:1717  1 */\n  0x01\n    /* \"@openzeppelin/contracts/security/ReentrancyGuard.sol\":1821:1828  _status */\n  dup1\n    /* \"@openzeppelin/contracts/security/ReentrancyGuard.sol\":1821:1843  _status = _NOT_ENTERED */\n  dup2\n  swap1\n  sstore\n  pop\n    /* \"contract/ComputeRewards.sol\":690:709  _rewardTokenAddress */\n  dup1\n    /* \"contract/ComputeRewards.sol\":669:710  rewardToken = IERC20(_rewardTokenAddress) */\n  0xffffffffffffffffffffffffffffffffffffffff\n  and\n  0x80\n  dup2\n  0xffffffffffffffffffffffffffffffffffffffff\n  and\n  dup2\n  mstore\n  pop\n  pop\n    /* \"contract/ComputeRewards.sol\":721:763  _grantRole(DEFAULT_ADMIN_ROLE, msg.sender) */\n  tag_8\n    /* \"@openzeppelin/contracts/access/AccessControl.sol\":2241:2245  0x00 */\n  0x00\n    /* \"contract/ComputeRewards.sol\":732:750  DEFAULT_ADMIN_ROLE */\n  0x00\n  shl\n    /* \"contract/ComputeRewards.sol\":752:762  msg.sender */\n  caller\n    /* \"contract/ComputeRewards.sol\":721:731  _grantRole */\n  shl(0x20, tag_9)\n    /* \"contract/ComputeRewards.sol\":721:763  _grantRole(DEFAULT_ADMIN_ROLE, msg.sender) */\n  0x20\n  shr\n  jump\t// in\ntag_8:\n  pop\n    /* \"contract/ComputeRewards.sol\":774:809  _grantRole(ORACLE_ROLE, msg.sender) */\n  tag_10\n    /* \"contract/ComputeRewards.sol\":400:424  keccak256(\"ORACLE_ROLE\") */\n  0x68e79a7bf1e0bc45d0a330c573bc367f9cf464fd326078812f301165fbda4ef1\n    /* \"contract/ComputeRewards.sol\":798:808  msg.sender */\n  caller\n    /* \"contract/ComputeRewards.sol\":774:784  _grantRole */\n  shl(0x20, tag_9)\n    /* \"contract/ComputeRewards.sol\":774:809  _grantRole(ORACLE_ROLE, msg.sender) */\n  0x20\n  shr\n  jump\t// in\ntag_10:\n  pop\n    /* \"contract/ComputeRewards.sol\":617:817  constructor(address _rewardTokenAddress) {... */\n  pop\n    /* \"contract/ComputeRewards.sol\":245:1720  contract ComputeRewards is AccessControl, ReentrancyGuard {... */\n  jump(tag_11)\n    /* \"@openzeppelin/contracts/access/AccessControl.sol\":6155:6471  function _grantRole(bytes32 role, address account) internal virtual returns (bool) {... */\ntag_9:\n    /* \"@openzeppelin/contracts/access/AccessControl.sol\":6232:6236  bool */\n  0x00\n    /* \"@openzeppelin/contracts/access/AccessControl.sol\":6253:6275  hasRole(role, account) */\n  tag_13\n    /* \"@openzeppelin/contracts/access/AccessControl.sol\":6261:6265  role */\n  dup4\n    /* \"@openzeppelin/contracts/access/AccessControl.sol\":6267:6274  account */\n  dup4\n    /* \"@openzeppelin/contracts/access/AccessControl.sol\":6253:6260  hasRole */\n  shl(0x20, tag_14)\n    /* \"@openzeppelin/contracts/access/AccessControl.sol\":6253:6275  hasRole(role, account) */\n  0x20\n  shr\n  jump\t// in\ntag_13:\n    /* \"@openzeppelin/contracts/access/AccessControl.sol\":6248:6465  if (!hasRole(role, account)) {... */\n  tag_15\n  jumpi\n    /* \"@openzeppelin/contracts/access/AccessControl.sol\":6323:6327  true */\n  0x01\n    /* \"@openzeppelin/contracts/access/AccessControl.sol\":6291:6297  _roles */\n  0x00\n    /* \"@openzeppelin/contracts/access/AccessControl.sol\":6291:6303  _roles[role] */\n  0x00\n    /* \"@openzeppelin/contracts/access/AccessControl.sol\":6298:6302  role */\n  dup6\n    /* \"@openzeppelin/contracts/access/AccessControl.sol\":6291:6303  _roles[role] */\n  dup2\n  mstore\n  0x20\n  add\n  swap1\n  dup2\n  mstore\n  0x20\n  add\n  0x00\n  keccak256\n    /* \"@openzeppelin/contracts/access/AccessControl.sol\":6291:6311  _roles[role].hasRole */\n  0x00\n  add\n    /* \"@openzeppelin/contracts/access/AccessControl.sol\":6291:6320  _roles[role].hasRole[account] */\n  0x00\n    /* \"@openzeppelin/contracts/access/AccessControl.sol\":6312:6319  account */\n  dup5\n    /* \"@openzeppelin/contracts/access/AccessControl.sol\":6291:6320  _roles[role].hasRole[account] */\n  0xffffffffffffffffffffffffffffffffffffffff\n  and\n  0xffffffffffffffffffffffffffffffffffffffff\n  and\n  dup2\n  mstore\n  0x20\n  add\n  swap1\n  dup2\n  mstore\n  0x20\n  add\n  0x00\n  keccak256\n  0x00\n    /* \"@openzeppelin/contracts/access/AccessControl.sol\":6291:6327  _roles[role].hasRole[account] = true */\n  0x0100\n  exp\n  dup2\n  sload\n  dup2\n  0xff\n  mul\n  not\n  and\n  swap1\n  dup4\n  iszero\n  iszero\n  mul\n  or\n  swap1\n  sstore\n  pop\n    /* \"@openzeppelin/contracts/access/AccessControl.sol\":6373:6385  _msgSender() */\n  tag_16\n    /* \"@openzeppelin/contracts/access/AccessControl.sol\":6373:6383  _msgSender */\n  shl(0x20, tag_17)\n    /* \"@openzeppelin/contracts/access/AccessControl.sol\":6373:6385  _msgSender() */\n  0x20\n  shr\n  jump\t// in\ntag_16:\n    /* \"@openzeppelin/contracts/access/AccessControl.sol\":6346:6386  RoleGranted(role, account, _msgSender()) */\n  0xffffffffffffffffffffffffffffffffffffffff\n  and\n    /* \"@openzeppelin/contracts/access/AccessControl.sol\":6364:6371  account */\n  dup3\n    /* \"@openzeppelin/contracts/access/AccessControl.sol\":6346:6386  RoleGranted(role, account, _msgSender()) */\n  0xffffffffffffffffffffffffffffffffffffffff\n  and\n    /* \"@openzeppelin/contracts/access/AccessControl.sol\":6358:6362  role */\n  dup5\n    /* \"@openzeppelin/contracts/access/AccessControl.sol\":6346:6386  RoleGranted(role, account, _msgSender()) */\n  0x2f8788117e7eff1d82e926ec794901d17c78024a50270940304540a733656f0d\n  mload(0x40)\n  mload(0x40)\n  dup1\n  swap2\n  sub\n  swap1\n  log4\n    /* \"@openzeppelin/contracts/access/AccessControl.sol\":6407:6411  true */\n  0x01\n    /* \"@openzeppelin/contracts/access/AccessControl.sol\":6400:6411  return true */\n  swap1\n  pop\n  jump(tag_12)\n    /* \"@openzeppelin/contracts/access/AccessControl.sol\":6248:6465  if (!hasRole(role, account)) {... */\ntag_15:\n    /* \"@openzeppelin/contracts/access/AccessControl.sol\":6449:6454  false */\n  0x00\n    /* \"@openzeppelin/contracts/access/AccessControl.sol\":6442:6454  return false */\n  swap1\n  pop\n    /* \"@openzeppelin/contracts/access/AccessControl.sol\":6155:6471  function _grantRole(bytes32 role, address account) internal virtual returns (bool) {... */\ntag_12:\n  swap3\n  swap2\n  pop\n  pop\n  jump\t// out\n    /* \"@openzeppelin/contracts/access/AccessControl.sol\":2830:2966  function hasRole(bytes32 role, address account) public view virtual returns (bool) {... */\ntag_14:\n    /* \"@openzeppelin/contracts/access/AccessControl.sol\":2907:2911  bool */\n  0x00\n    /* \"@openzeppelin/contracts/access/AccessControl.sol\":2930:2936  _roles */\n  0x00\n    /* \"@openzeppelin/contracts/access/AccessControl.sol\":2930:2942  _roles[role] */\n  0x00\n    /* \"@openzeppelin/contracts/access/AccessControl.sol\":2937:2941  role */\n  dup5\n    /* \"@openzeppelin/contracts/access/AccessControl.sol\":2930:2942  _roles[role] */\n  dup2\n  mstore\n  0x20\n  add\n  swap1\n  dup2\n  mstore\n  0x20\n  add\n  0x00\n  keccak256\n    /* \"@openzeppelin/contracts/access/AccessControl.sol\":2930:2950  _roles[role].hasRole */\n  0x00\n  add\n    /* \"@openzeppelin/contracts/access/AccessControl.sol\":2930:2959  _roles[role].hasRole[account] */\n  0x00\n    /* \"@openzeppelin/contracts/access/AccessControl.sol\":2951:2958  account */\n  dup4\n    /* \"@openzeppelin/contracts/access/AccessControl.sol\":2930:2959  _roles[role].hasRole[account] */\n  0xffffffffffffffffffffffffffffffffffffffff\n  and\n  0xffffffffffffffffffffffffffffffffffffffff\n  and\n  dup2\n  mstore\n  0x20\n  add\n  swap1\n  dup2\n  mstore\n  0x20\n  add\n  0x00\n  keccak256\n  0x00\n  swap1\n  sload\n  swap1\n  0x0100\n  exp\n  swap1\n  div\n  0xff\n  and\n    /* \"@openzeppelin/contracts/access/AccessControl.sol\":2923:2959  return _roles[role].hasRole[account] */\n  swap1\n  pop\n    /* \"@openzeppelin/contracts/access/AccessControl.sol\":2830:2966  function hasRole(bytes32 role, address account) public view virtual returns (bool) {... */\n  swap3\n  swap2\n  pop\n  pop\n  jump\t// out\n    /* \"@openzeppelin/contracts/utils/Context.sol\":656:752  function _msgSender() internal view virtual returns (address) {... */\ntag_17:\n    /* \"@openzeppelin/contracts/utils/Context.sol\":709:716  address */\n  0x00\n    /* \"@openzeppelin/contracts/utils/Context.sol\":735:745  msg.sender */\n  caller\n    /* \"@openzeppelin/contracts/utils/Context.sol\":728:745  return msg.sender */\n  swap1\n  pop\n    /* \"@openzeppelin/contracts/utils/Context.sol\":656:752  function _msgSender() internal view virtual returns (address) {... */\n  swap1\n  jump\t// out\n    /* \"#utility.yul\":88:205   */\ntag_22:\n    /* \"#utility.yul\":197:198   */\n  0x00\n    /* \"#utility.yul\":194:195   */\n  0x00\n    /* \"#utility.yul\":187:199   */\n  revert\n    /* \"#utility.yul\":334:460   */\ntag_24:\n    /* \"#utility.yul\":371:378   */\n  0x00\n    /* \"#utility.yul\":411:453   */\n  0xffffffffffffffffffffffffffffffffffffffff\n    /* \"#utility.yul\":404:409   */\n  dup3\n    /* \"#utility.yul\":400:454   */\n  and\n    /* \"#utility.yul\":389:454   */\n  swap1\n  pop\n    /* \"#utility.yul\":334:460   */\n  swap2\n  swap1\n  pop\n  jump\t// out\n    /* \"#utility.yul\":466:562   */\ntag_25:\n    /* \"#utility.yul\":503:510   */\n  0x00\n    /* \"#utility.yul\":532:556   */\n  tag_34\n    /* \"#utility.yul\":550:555   */\n  dup3\n    /* \"#utility.yul\":532:556   */\n  tag_24\n  jump\t// in\ntag_34:\n    /* \"#utility.yul\":521:556   */\n  swap1\n  pop\n    /* \"#utility.yul\":466:562   */\n  swap2\n  swap1\n  pop\n  jump\t// out\n    /* \"#utility.yul\":568:690   */\ntag_26:\n    /* \"#utility.yul\":641:665   */\n  tag_36\n    /* \"#utility.yul\":659:664   */\n  dup2\n    /* \"#utility.yul\":641:665   */\n  tag_25\n  jump\t// in\ntag_36:\n    /* \"#utility.yul\":634:639   */\n  dup2\n    /* \"#utility.yul\":631:666   */\n  eq\n    /* \"#utility.yul\":621:684   */\n  tag_37\n  jumpi\n    /* \"#utility.yul\":680:681   */\n  0x00\n    /* \"#utility.yul\":677:678   */\n  0x00\n    /* \"#utility.yul\":670:682   */\n  revert\n    /* \"#utility.yul\":621:684   */\ntag_37:\n    /* \"#utility.yul\":568:690   */\n  pop\n  jump\t// out\n    /* \"#utility.yul\":696:839   */\ntag_27:\n    /* \"#utility.yul\":753:758   */\n  0x00\n    /* \"#utility.yul\":784:790   */\n  dup2\n    /* \"#utility.yul\":778:791   */\n  mload\n    /* \"#utility.yul\":769:791   */\n  swap1\n  pop\n    /* \"#utility.yul\":800:833   */\n  tag_39\n    /* \"#utility.yul\":827:832   */\n  dup2\n    /* \"#utility.yul\":800:833   */\n  tag_26\n  jump\t// in\ntag_39:\n    /* \"#utility.yul\":696:839   */\n  swap3\n  swap2\n  pop\n  pop\n  jump\t// out\n    /* \"#utility.yul\":845:1196   */\ntag_3:\n    /* \"#utility.yul\":915:921   */\n  0x00\n    /* \"#utility.yul\":964:966   */\n  0x20\n    /* \"#utility.yul\":952:961   */\n  dup3\n    /* \"#utility.yul\":943:950   */\n  dup5\n    /* \"#utility.yul\":939:962   */\n  sub\n    /* \"#utility.yul\":935:967   */\n  slt\n    /* \"#utility.yul\":932:1051   */\n  iszero\n  tag_41\n  jumpi\n    /* \"#utility.yul\":970:1049   */\n  tag_42\n  tag_22\n  jump\t// in\ntag_42:\n    /* \"#utility.yul\":932:1051   */\ntag_41:\n    /* \"#utility.yul\":1090:1091   */\n  0x00\n    /* \"#utility.yul\":1115:1179   */\n  tag_43\n    /* \"#utility.yul\":1171:1178   */\n  dup5\n    /* \"#utility.yul\":1162:1168   */\n  dup3\n    /* \"#utility.yul\":1151:1160   */\n  dup6\n    /* \"#utility.yul\":1147:1169   */\n  add\n    /* \"#utility.yul\":1115:1179   */\n  tag_27\n  jump\t// in\ntag_43:\n    /* \"#utility.yul\":1105:1179   */\n  swap2\n  pop\n    /* \"#utility.yul\":1061:1189   */\n  pop\n    /* \"#utility.yul\":845:1196   */\n  swap3\n  swap2\n  pop\n  pop\n  jump\t// out\n    /* \"contract/ComputeRewards.sol\":245:1720  contract ComputeRewards is AccessControl, ReentrancyGuard {... */\ntag_11:\n  mload(0x80)\n  codecopy(0x00, dataOffset(sub_0), dataSize(sub_0))\n  0x00\n  assignImmutable(\"0xadd35db6d9cbb4a93083ce00f6da825d590d67feeb3a24ddce512c81a6f977f2\")\n  return(0x00, dataSize(sub_0))\nstop\n\nsub_0: assembly {\n        /* \"contract/ComputeRewards.sol\":245:1720  contract ComputeRewards is AccessControl, ReentrancyGuard {... */\n      mstore(0x40, 0x80)\n      callvalue\n      dup1\n      iszero\n      tag_1\n      jumpi\n      revert(0x00, 0x00)\n    tag_1:\n      pop\n      jumpi(tag_2, lt(calldatasize, 0x04))\n      shr(0xe0, calldataload(0x00))\n      dup1\n      0x91d14854\n      gt\n      tag_16\n      jumpi\n      dup1\n      0xbf83f51f\n      gt\n      tag_17\n      jumpi\n      dup1\n      0xbf83f51f\n      eq\n      tag_12\n      jumpi\n      dup1\n      0xd547741f\n      eq\n      tag_13\n      jumpi\n      dup1\n      0xf7c618c1\n      eq\n      tag_14\n      jumpi\n      dup1\n      0xf854a27f\n      eq\n      tag_15\n      jumpi\n      jump(tag_2)\n    tag_17:\n      dup1\n      0x91d14854\n      eq\n      tag_9\n      jumpi\n      dup1\n      0xa217fddf\n      eq\n      tag_10\n      jumpi\n      dup1\n      0xb88a802f\n      eq\n      tag_11\n      jumpi\n      jump(tag_2)\n    tag_16:\n      dup1\n      0x01ffc9a7\n      eq\n      tag_3\n      jumpi\n      dup1\n      0x0700037d\n      eq\n      tag_4\n      jumpi\n      dup1\n      0x07e2cea5\n      eq\n      tag_5\n      jumpi\n      dup1\n      0x248a9ca3\n      eq\n      tag_6\n      jumpi\n      dup1\n      0x2f2ff15d\n      eq\n      tag_7\n      jumpi\n      dup1\n      0x36568abe\n      eq\n      tag_8\n      jumpi\n    tag_2:\n      revert(0x00, 0x00)\n        /* \"@openzeppelin/contracts/access/AccessControl.sol\":2541:2743  function supportsInterface(bytes4 interfaceId) public view virtual override returns (bool) {... */\n    tag_3:\n      tag_18\n      0x04\n      dup1\n      calldatasize\n      sub\n      dup2\n      add\n      swap1\n      tag_19\n      swap2\n      swap1\n      tag_20\n      jump\t// in\n    tag_19:\n      tag_21\n      jump\t// in\n    tag_18:\n      mload(0x40)\n      tag_22\n      swap2\n      swap1\n      tag_23\n      jump\t// in\n    tag_22:\n      mload(0x40)\n      dup1\n      swap2\n      sub\n      swap1\n      return\n        /* \"contract/ComputeRewards.sol\":433:475  mapping(address => uint256) public rewards */\n    tag_4:\n      tag_24\n      0x04\n      dup1\n      calldatasize\n      sub\n      dup2\n      add\n      swap1\n      tag_25\n      swap2\n      swap1\n      tag_26\n      jump\t// in\n    tag_25:\n      tag_27\n      jump\t// in\n    tag_24:\n      mload(0x40)\n      tag_28\n      swap2\n      swap1\n      tag_29\n      jump\t// in\n    tag_28:\n      mload(0x40)\n      dup1\n      swap2\n      sub\n      swap1\n      return\n        /* \"contract/ComputeRewards.sol\":362:424  bytes32 public constant ORACLE_ROLE = keccak256(\"ORACLE_ROLE\") */\n    tag_5:\n      tag_30\n      tag_31\n      jump\t// in\n    tag_30:\n      mload(0x40)\n      tag_32\n      swap2\n      swap1\n      tag_33\n      jump\t// in\n    tag_32:\n      mload(0x40)\n      dup1\n      swap2\n      sub\n      swap1\n      return\n        /* \"@openzeppelin/contracts/access/AccessControl.sol\":3786:3906  function getRoleAdmin(bytes32 role) public view virtual returns (bytes32) {... */\n    tag_6:\n      tag_34\n      0x04\n      dup1\n      calldatasize\n      sub\n      dup2\n      add\n      swap1\n      tag_35\n      swap2\n      swap1\n      tag_36\n      jump\t// in\n    tag_35:\n      tag_37\n      jump\t// in\n    tag_34:\n      mload(0x40)\n      tag_38\n      swap2\n      swap1\n      tag_33\n      jump\t// in\n    tag_38:\n      mload(0x40)\n      dup1\n      swap2\n      sub\n      swap1\n      return\n        /* \"@openzeppelin/contracts/access/AccessControl.sol\":4202:4338  function grantRole(bytes32 role, address account) public virtual onlyRole(getRoleAdmin(role)) {... */\n    tag_7:\n      tag_39\n      0x04\n      dup1\n      calldatasize\n      sub\n      dup2\n      add\n      swap1\n      tag_40\n      swap2\n      swap1\n      tag_41\n      jump\t// in\n    tag_40:\n      tag_42\n      jump\t// in\n    tag_39:\n      stop\n        /* \"@openzeppelin/contracts/access/AccessControl.sol\":5304:5549  function renounceRole(bytes32 role, address callerConfirmation) public virtual {... */\n    tag_8:\n      tag_43\n      0x04\n      dup1\n      calldatasize\n      sub\n      dup2\n      add\n      swap1\n      tag_44\n      swap2\n      swap1\n      tag_41\n      jump\t// in\n    tag_44:\n      tag_45\n      jump\t// in\n    tag_43:\n      stop\n        /* \"@openzeppelin/contracts/access/AccessControl.sol\":2830:2966  function hasRole(bytes32 role, address account) public view virtual returns (bool) {... */\n    tag_9:\n      tag_46\n      0x04\n      dup1\n      calldatasize\n      sub\n      dup2\n      add\n      swap1\n      tag_47\n      swap2\n      swap1\n      tag_41\n      jump\t// in\n    tag_47:\n      tag_48\n      jump\t// in\n    tag_46:\n      mload(0x40)\n      tag_49\n      swap2\n      swap1\n      tag_23\n      jump\t// in\n    tag_49:\n      mload(0x40)\n      dup1\n      swap2\n      sub\n      swap1\n      return\n        /* \"@openzeppelin/contracts/access/AccessControl.sol\":2196:2245  bytes32 public constant DEFAULT_ADMIN_ROLE = 0x00 */\n    tag_10:\n      tag_50\n      tag_51\n      jump\t// in\n    tag_50:\n      mload(0x40)\n      tag_52\n      swap2\n      swap1\n      tag_33\n      jump\t// in\n    tag_52:\n      mload(0x40)\n      dup1\n      swap2\n      sub\n      swap1\n      return\n        /* \"contract/ComputeRewards.sol\":1223:1596  function claimReward() external nonReentrant {... */\n    tag_11:\n      tag_53\n      tag_54\n      jump\t// in\n    tag_53:\n      stop\n        /* \"contract/ComputeRewards.sol\":825:1215  function allocateRewards(address[] calldata _users, uint256[] calldata _amounts) external onlyRole(ORACLE_ROLE) {... */\n    tag_12:\n      tag_55\n      0x04\n      dup1\n      calldatasize\n      sub\n      dup2\n      add\n      swap1\n      tag_56\n      swap2\n      swap1\n      tag_57\n      jump\t// in\n    tag_56:\n      tag_58\n      jump\t// in\n    tag_55:\n      stop\n        /* \"@openzeppelin/contracts/access/AccessControl.sol\":4618:4756  function revokeRole(bytes32 role, address account) public virtual onlyRole(getRoleAdmin(role)) {... */\n    tag_13:\n      tag_59\n      0x04\n      dup1\n      calldatasize\n      sub\n      dup2\n      add\n      swap1\n      tag_60\n      swap2\n      swap1\n      tag_41\n      jump\t// in\n    tag_60:\n      tag_61\n      jump\t// in\n    tag_59:\n      stop\n        /* \"contract/ComputeRewards.sol\":310:345  IERC20 public immutable rewardToken */\n    tag_14:\n      tag_62\n      tag_63\n      jump\t// in\n    tag_62:\n      mload(0x40)\n      tag_64\n      swap2\n      swap1\n      tag_65\n      jump\t// in\n    tag_64:\n      mload(0x40)\n      dup1\n      swap2\n      sub\n      swap1\n      return\n        /* \"contract/ComputeRewards.sol\":1604:1717  function availableRewards(address _user) external view returns (uint256) {... */\n    tag_15:\n      tag_66\n      0x04\n      dup1\n      calldatasize\n      sub\n      dup2\n      add\n      swap1\n      tag_67\n      swap2\n      swap1\n      tag_26\n      jump\t// in\n    tag_67:\n      tag_68\n      jump\t// in\n    tag_66:\n      mload(0x40)\n      tag_69\n      swap2\n      swap1\n      tag_29\n      jump\t// in\n    tag_69:\n      mload(0x40)\n      dup1\n      swap2\n      sub\n      swap1\n      return\n        /* \"@openzeppelin/contracts/access/AccessControl.sol\":2541:2743  function supportsInterface(bytes4 interfaceId) public view virtual override returns (bool) {... */\n    tag_21:\n        /* \"@openzeppelin/contracts/access/AccessControl.sol\":2626:2630  bool */\n      0x00\n        /* \"@openzeppelin/contracts/access/AccessControl.sol\":2664:2696  type(IAccessControl).interfaceId */\n      0x7965db0b00000000000000000000000000000000000000000000000000000000\n        /* \"@openzeppelin/contracts/access/AccessControl.sol\":2649:2696  interfaceId == type(IAccessControl).interfaceId */\n      not(0xffffffffffffffffffffffffffffffffffffffffffffffffffffffff)\n      and\n        /* \"@openzeppelin/contracts/access/AccessControl.sol\":2649:2660  interfaceId */\n      dup3\n        /* \"@openzeppelin/contracts/access/AccessControl.sol\":2649:2696  interfaceId == type(IAccessControl).interfaceId */\n      not(0xffffffffffffffffffffffffffffffffffffffffffffffffffffffff)\n      and\n      eq\n        /* \"@openzeppelin/contracts/access/AccessControl.sol\":2649:2736  interfaceId == type(IAccessControl).interfaceId || super.supportsInterface(interfaceId) */\n      dup1\n      tag_71\n      jumpi\n      pop\n        /* \"@openzeppelin/contracts/access/AccessControl.sol\":2700:2736  super.supportsInterface(interfaceId) */\n      tag_72\n        /* \"@openzeppelin/contracts/access/AccessControl.sol\":2724:2735  interfaceId */\n      dup3\n        /* \"@openzeppelin/contracts/access/AccessControl.sol\":2700:2723  super.supportsInterface */\n      tag_73\n        /* \"@openzeppelin/contracts/access/AccessControl.sol\":2700:2736  super.supportsInterface(interfaceId) */\n      jump\t// in\n    tag_72:\n        /* \"@openzeppelin/contracts/access/AccessControl.sol\":2649:2736  interfaceId == type(IAccessControl).interfaceId || super.supportsInterface(interfaceId) */\n    tag_71:\n        /* \"@openzeppelin/contracts/access/AccessControl.sol\":2642:2736  return interfaceId == type(IAccessControl).interfaceId || super.supportsInterface(interfaceId) */\n      swap1\n      pop\n        /* \"@openzeppelin/contracts/access/AccessControl.sol\":2541:2743  function supportsInterface(bytes4 interfaceId) public view virtual override returns (bool) {... */\n      swap2\n      swap1\n      pop\n      jump\t// out\n        /* \"contract/ComputeRewards.sol\":433:475  mapping(address => uint256) public rewards */\n    tag_27:\n      mstore(0x20, 0x02)\n      dup1\n      0x00\n      mstore\n      keccak256(0x00, 0x40)\n      0x00\n      swap2\n      pop\n      swap1\n      pop\n      sload\n      dup2\n      jump\t// out\n        /* \"contract/ComputeRewards.sol\":362:424  bytes32 public constant ORACLE_ROLE = keccak256(\"ORACLE_ROLE\") */\n    tag_31:\n        /* \"contract/ComputeRewards.sol\":400:424  keccak256(\"ORACLE_ROLE\") */\n      0x68e79a7bf1e0bc45d0a330c573bc367f9cf464fd326078812f301165fbda4ef1\n        /* \"contract/ComputeRewards.sol\":362:424  bytes32 public constant ORACLE_ROLE = keccak256(\"ORACLE_ROLE\") */\n      dup2\n      jump\t// out\n        /* \"@openzeppelin/contracts/access/AccessControl.sol\":3786:3906  function getRoleAdmin(bytes32 role) public view virtual returns (bytes32) {... */\n    tag_37:\n        /* \"@openzeppelin/contracts/access/AccessControl.sol\":3851:3858  bytes32 */\n      0x00\n        /* \"@openzeppelin/contracts/access/AccessControl.sol\":3877:3883  _roles */\n      0x00\n        /* \"@openzeppelin/contracts/access/AccessControl.sol\":3877:3889  _roles[role] */\n      0x00\n        /* \"@openzeppelin/contracts/access/AccessControl.sol\":3884:3888  role */\n      dup4\n        /* \"@openzeppelin/contracts/access/AccessControl.sol\":3877:3889  _roles[role] */\n      dup2\n      mstore\n      0x20\n      add\n      swap1\n      dup2\n      mstore\n      0x20\n      add\n      0x00\n      keccak256\n        /* \"@openzeppelin/contracts/access/AccessControl.sol\":3877:3899  _roles[role].adminRole */\n      0x01\n      add\n      sload\n        /* \"@openzeppelin/contracts/access/AccessControl.sol\":3870:3899  return _roles[role].adminRole */\n      swap1\n      pop\n        /* \"@openzeppelin/contracts/access/AccessControl.sol\":3786:3906  function getRoleAdmin(bytes32 role) public view virtual returns (bytes32) {... */\n      swap2\n      swap1\n      pop\n      jump\t// out\n        /* \"@openzeppelin/contracts/access/AccessControl.sol\":4202:4338  function grantRole(bytes32 role, address account) public virtual onlyRole(getRoleAdmin(role)) {... */\n    tag_42:\n        /* \"@openzeppelin/contracts/access/AccessControl.sol\":4276:4294  getRoleAdmin(role) */\n      tag_75\n        /* \"@openzeppelin/contracts/access/AccessControl.sol\":4289:4293  role */\n      dup3\n        /* \"@openzeppelin/contracts/access/AccessControl.sol\":4276:4288  getRoleAdmin */\n      tag_37\n        /* \"@openzeppelin/contracts/access/AccessControl.sol\":4276:4294  getRoleAdmin(role) */\n      jump\t// in\n    tag_75:\n        /* \"@openzeppelin/contracts/access/AccessControl.sol\":2473:2489  _checkRole(role) */\n      tag_77\n        /* \"@openzeppelin/contracts/access/AccessControl.sol\":2484:2488  role */\n      dup2\n        /* \"@openzeppelin/contracts/access/AccessControl.sol\":2473:2483  _checkRole */\n      tag_78\n        /* \"@openzeppelin/contracts/access/AccessControl.sol\":2473:2489  _checkRole(role) */\n      jump\t// in\n    tag_77:\n        /* \"@openzeppelin/contracts/access/AccessControl.sol\":4306:4331  _grantRole(role, account) */\n      tag_80\n        /* \"@openzeppelin/contracts/access/AccessControl.sol\":4317:4321  role */\n      dup4\n        /* \"@openzeppelin/contracts/access/AccessControl.sol\":4323:4330  account */\n      dup4\n        /* \"@openzeppelin/contracts/access/AccessControl.sol\":4306:4316  _grantRole */\n      tag_81\n        /* \"@openzeppelin/contracts/access/AccessControl.sol\":4306:4331  _grantRole(role, account) */\n      jump\t// in\n    tag_80:\n      pop\n        /* \"@openzeppelin/contracts/access/AccessControl.sol\":4202:4338  function grantRole(bytes32 role, address account) public virtual onlyRole(getRoleAdmin(role)) {... */\n      pop\n      pop\n      pop\n      jump\t// out\n        /* \"@openzeppelin/contracts/access/AccessControl.sol\":5304:5549  function renounceRole(bytes32 role, address callerConfirmation) public virtual {... */\n    tag_45:\n        /* \"@openzeppelin/contracts/access/AccessControl.sol\":5419:5431  _msgSender() */\n      tag_83\n        /* \"@openzeppelin/contracts/access/AccessControl.sol\":5419:5429  _msgSender */\n      tag_84\n        /* \"@openzeppelin/contracts/access/AccessControl.sol\":5419:5431  _msgSender() */\n      jump\t// in\n    tag_83:\n        /* \"@openzeppelin/contracts/access/AccessControl.sol\":5397:5431  callerConfirmation != _msgSender() */\n      0xffffffffffffffffffffffffffffffffffffffff\n      and\n        /* \"@openzeppelin/contracts/access/AccessControl.sol\":5397:5415  callerConfirmation */\n      dup2\n        /* \"@openzeppelin/contracts/access/AccessControl.sol\":5397:5431  callerConfirmation != _msgSender() */\n      0xffffffffffffffffffffffffffffffffffffffff\n      and\n      eq\n        /* \"@openzeppelin/contracts/access/AccessControl.sol\":5393:5495  if (callerConfirmation != _msgSender()) {... */\n      tag_85\n      jumpi\n        /* \"@openzeppelin/contracts/access/AccessControl.sol\":5454:5484  AccessControlBadConfirmation() */\n      mload(0x40)\n      0x6697b23200000000000000000000000000000000000000000000000000000000\n      dup2\n      mstore\n      0x04\n      add\n      mload(0x40)\n      dup1\n      swap2\n      sub\n      swap1\n      revert\n        /* \"@openzeppelin/contracts/access/AccessControl.sol\":5393:5495  if (callerConfirmation != _msgSender()) {... */\n    tag_85:\n        /* \"@openzeppelin/contracts/access/AccessControl.sol\":5505:5542  _revokeRole(role, callerConfirmation) */\n      tag_86\n        /* \"@openzeppelin/contracts/access/AccessControl.sol\":5517:5521  role */\n      dup3\n        /* \"@openzeppelin/contracts/access/AccessControl.sol\":5523:5541  callerConfirmation */\n      dup3\n        /* \"@openzeppelin/contracts/access/AccessControl.sol\":5505:5516  _revokeRole */\n      tag_87\n        /* \"@openzeppelin/contracts/access/AccessControl.sol\":5505:5542  _revokeRole(role, callerConfirmation) */\n      jump\t// in\n    tag_86:\n      pop\n        /* \"@openzeppelin/contracts/access/AccessControl.sol\":5304:5549  function renounceRole(bytes32 role, address callerConfirmation) public virtual {... */\n      pop\n      pop\n      jump\t// out\n        /* \"@openzeppelin/contracts/access/AccessControl.sol\":2830:2966  function hasRole(bytes32 role, address account) public view virtual returns (bool) {... */\n    tag_48:\n        /* \"@openzeppelin/contracts/access/AccessControl.sol\":2907:2911  bool */\n      0x00\n        /* \"@openzeppelin/contracts/access/AccessControl.sol\":2930:2936  _roles */\n      0x00\n        /* \"@openzeppelin/contracts/access/AccessControl.sol\":2930:2942  _roles[role] */\n      0x00\n        /* \"@openzeppelin/contracts/access/AccessControl.sol\":2937:2941  role */\n      dup5\n        /* \"@openzeppelin/contracts/access/AccessControl.sol\":2930:2942  _roles[role] */\n      dup2\n      mstore\n      0x20\n      add\n      swap1\n      dup2\n      mstore\n      0x20\n      add\n      0x00\n      keccak256\n        /* \"@openzeppelin/contracts/access/AccessControl.sol\":2930:2950  _roles[role].hasRole */\n      0x00\n      add\n        /* \"@openzeppelin/contracts/access/AccessControl.sol\":2930:2959  _roles[role].hasRole[account] */\n      0x00\n        /* \"@openzeppelin/contracts/access/AccessControl.sol\":2951:2958  account */\n      dup4\n        /* \"@openzeppelin/contracts/access/AccessControl.sol\":2930:2959  _roles[role].hasRole[account] */\n      0xffffffffffffffffffffffffffffffffffffffff\n      and\n      0xffffffffffffffffffffffffffffffffffffffff\n      and\n      dup2\n      mstore\n      0x20\n      add\n      swap1\n      dup2\n      mstore\n      0x20\n      add\n      0x00\n      keccak256\n      0x00\n      swap1\n      sload\n      swap1\n      0x0100\n      exp\n      swap1\n      div\n      0xff\n      and\n        /* \"@openzeppelin/contracts/access/AccessControl.sol\":2923:2959  return _roles[role].hasRole[account] */\n      swap1\n      pop\n        /* \"@openzeppelin/contracts/access/AccessControl.sol\":2830:2966  function hasRole(bytes32 role, address account) public view virtual returns (bool) {... */\n      swap3\n      swap2\n      pop\n      pop\n      jump\t// out\n        /* \"@openzeppelin/contracts/access/AccessControl.sol\":2196:2245  bytes32 public constant DEFAULT_ADMIN_ROLE = 0x00 */\n    tag_51:\n        /* \"@openzeppelin/contracts/access/AccessControl.sol\":2241:2245  0x00 */\n      0x00\n        /* \"@openzeppelin/contracts/access/AccessControl.sol\":2196:2245  bytes32 public constant DEFAULT_ADMIN_ROLE = 0x00 */\n      0x00\n      shl\n      dup2\n      jump\t// out\n        /* \"contract/ComputeRewards.sol\":1223:1596  function claimReward() external nonReentrant {... */\n    tag_54:\n        /* \"@openzeppelin/contracts/security/ReentrancyGuard.sol\":2261:2282  _nonReentrantBefore() */\n      tag_90\n        /* \"@openzeppelin/contracts/security/ReentrancyGuard.sol\":2261:2280  _nonReentrantBefore */\n      tag_91\n        /* \"@openzeppelin/contracts/security/ReentrancyGuard.sol\":2261:2282  _nonReentrantBefore() */\n      jump\t// in\n    tag_90:\n        /* \"contract/ComputeRewards.sol\":1279:1293  uint256 reward */\n      0x00\n        /* \"contract/ComputeRewards.sol\":1296:1303  rewards */\n      0x02\n        /* \"contract/ComputeRewards.sol\":1296:1315  rewards[msg.sender] */\n      0x00\n        /* \"contract/ComputeRewards.sol\":1304:1314  msg.sender */\n      caller\n        /* \"contract/ComputeRewards.sol\":1296:1315  rewards[msg.sender] */\n      0xffffffffffffffffffffffffffffffffffffffff\n      and\n      0xffffffffffffffffffffffffffffffffffffffff\n      and\n      dup2\n      mstore\n      0x20\n      add\n      swap1\n      dup2\n      mstore\n      0x20\n      add\n      0x00\n      keccak256\n      sload\n        /* \"contract/ComputeRewards.sol\":1279:1315  uint256 reward = rewards[msg.sender] */\n      swap1\n      pop\n        /* \"contract/ComputeRewards.sol\":1343:1344  0 */\n      0x00\n        /* \"contract/ComputeRewards.sol\":1334:1340  reward */\n      dup2\n        /* \"contract/ComputeRewards.sol\":1334:1344  reward > 0 */\n      gt\n        /* \"contract/ComputeRewards.sol\":1326:1384  require(reward > 0, \"ComputeRewards: No rewards to claim\") */\n      tag_93\n      jumpi\n      mload(0x40)\n      0x08c379a000000000000000000000000000000000000000000000000000000000\n      dup2\n      mstore\n      0x04\n      add\n      tag_94\n      swap1\n      tag_95\n      jump\t// in\n    tag_94:\n      mload(0x40)\n      dup1\n      swap2\n      sub\n      swap1\n      revert\n    tag_93:\n        /* \"contract/ComputeRewards.sol\":1427:1428  0 */\n      0x00\n        /* \"contract/ComputeRewards.sol\":1405:1412  rewards */\n      0x02\n        /* \"contract/ComputeRewards.sol\":1405:1424  rewards[msg.sender] */\n      0x00\n        /* \"contract/ComputeRewards.sol\":1413:1423  msg.sender */\n      caller\n        /* \"contract/ComputeRewards.sol\":1405:1424  rewards[msg.sender] */\n      0xffffffffffffffffffffffffffffffffffffffff\n      and\n      0xffffffffffffffffffffffffffffffffffffffff\n      and\n      dup2\n      mstore\n      0x20\n      add\n      swap1\n      dup2\n      mstore\n      0x20\n      add\n      0x00\n      keccak256\n        /* \"contract/ComputeRewards.sol\":1405:1428  rewards[msg.sender] = 0 */\n      dup2\n      swap1\n      sstore\n      pop\n        /* \"contract/ComputeRewards.sol\":1457:1468  rewardToken */\n      immutable(\"0xadd35db6d9cbb4a93083ce00f6da825d590d67feeb3a24ddce512c81a6f977f2\")\n        /* \"contract/ComputeRewards.sol\":1457:1477  rewardToken.transfer */\n      0xffffffffffffffffffffffffffffffffffffffff\n      and\n      0xa9059cbb\n        /* \"contract/ComputeRewards.sol\":1478:1488  msg.sender */\n      caller\n        /* \"contract/ComputeRewards.sol\":1490:1496  reward */\n      dup4\n        /* \"contract/ComputeRewards.sol\":1457:1497  rewardToken.transfer(msg.sender, reward) */\n      mload(0x40)\n      dup4\n      0xffffffff\n      and\n      0xe0\n      shl\n      dup2\n      mstore\n      0x04\n      add\n      tag_96\n      swap3\n      swap2\n      swap1\n      tag_97\n      jump\t// in\n    tag_96:\n      0x20\n      mload(0x40)\n      dup1\n      dup4\n      sub\n      dup2\n      0x00\n      dup8\n      gas\n      call\n      iszero\n      dup1\n      iszero\n      tag_99\n      jumpi\n      returndatacopy(0x00, 0x00, returndatasize)\n      revert(0x00, returndatasize)\n    tag_99:\n      pop\n      pop\n      pop\n      pop\n      mload(0x40)\n      returndatasize\n      not(0x1f)\n      0x1f\n      dup3\n      add\n      and\n      dup3\n      add\n      dup1\n      0x40\n      mstore\n      pop\n      dup2\n      add\n      swap1\n      tag_100\n      swap2\n      swap1\n      tag_101\n      jump\t// in\n    tag_100:\n        /* \"contract/ComputeRewards.sol\":1449:1539  require(rewardToken.transfer(msg.sender, reward), \"ComputeRewards: Token transfer failed\") */\n      tag_102\n      jumpi\n      mload(0x40)\n      0x08c379a000000000000000000000000000000000000000000000000000000000\n      dup2\n      mstore\n      0x04\n      add\n      tag_103\n      swap1\n      tag_104\n      jump\t// in\n    tag_103:\n      mload(0x40)\n      dup1\n      swap2\n      sub\n      swap1\n      revert\n    tag_102:\n        /* \"contract/ComputeRewards.sol\":1569:1579  msg.sender */\n      caller\n        /* \"contract/ComputeRewards.sol\":1555:1588  RewardClaimed(msg.sender, reward) */\n      0xffffffffffffffffffffffffffffffffffffffff\n      and\n      0x106f923f993c2149d49b4255ff723acafa1f2d94393f561d3eda32ae348f7241\n        /* \"contract/ComputeRewards.sol\":1581:1587  reward */\n      dup3\n        /* \"contract/ComputeRewards.sol\":1555:1588  RewardClaimed(msg.sender, reward) */\n      mload(0x40)\n      tag_105\n      swap2\n      swap1\n      tag_29\n      jump\t// in\n    tag_105:\n      mload(0x40)\n      dup1\n      swap2\n      sub\n      swap1\n      log2\n        /* \"contract/ComputeRewards.sol\":1268:1596  {... */\n      pop\n        /* \"@openzeppelin/contracts/security/ReentrancyGuard.sol\":2303:2323  _nonReentrantAfter() */\n      tag_106\n        /* \"@openzeppelin/contracts/security/ReentrancyGuard.sol\":2303:2321  _nonReentrantAfter */\n      tag_107\n        /* \"@openzeppelin/contracts/security/ReentrancyGuard.sol\":2303:2323  _nonReentrantAfter() */\n      jump\t// in\n    tag_106:\n        /* \"contract/ComputeRewards.sol\":1223:1596  function claimReward() external nonReentrant {... */\n      jump\t// out\n        /* \"contract/ComputeRewards.sol\":825:1215  function allocateRewards(address[] calldata _users, uint256[] calldata _amounts) external onlyRole(ORACLE_ROLE) {... */\n    tag_58:\n        /* \"contract/ComputeRewards.sol\":400:424  keccak256(\"ORACLE_ROLE\") */\n      0x68e79a7bf1e0bc45d0a330c573bc367f9cf464fd326078812f301165fbda4ef1\n        /* \"@openzeppelin/contracts/access/AccessControl.sol\":2473:2489  _checkRole(role) */\n      tag_109\n        /* \"@openzeppelin/contracts/access/AccessControl.sol\":2484:2488  role */\n      dup2\n        /* \"@openzeppelin/contracts/access/AccessControl.sol\":2473:2483  _checkRole */\n      tag_78\n        /* \"@openzeppelin/contracts/access/AccessControl.sol\":2473:2489  _checkRole(role) */\n      jump\t// in\n    tag_109:\n        /* \"contract/ComputeRewards.sol\":973:981  _amounts */\n      dup3\n      dup3\n        /* \"contract/ComputeRewards.sol\":973:988  _amounts.length */\n      swap1\n      pop\n        /* \"contract/ComputeRewards.sol\":956:962  _users */\n      dup6\n      dup6\n        /* \"contract/ComputeRewards.sol\":956:969  _users.length */\n      swap1\n      pop\n        /* \"contract/ComputeRewards.sol\":956:988  _users.length == _amounts.length */\n      eq\n        /* \"contract/ComputeRewards.sol\":948:1036  require(_users.length == _amounts.length, \"ComputeRewards: Input array length mismatch\") */\n      tag_111\n      jumpi\n      mload(0x40)\n      0x08c379a000000000000000000000000000000000000000000000000000000000\n      dup2\n      mstore\n      0x04\n      add\n      tag_112\n      swap1\n      tag_113\n      jump\t// in\n    tag_112:\n      mload(0x40)\n      dup1\n      swap2\n      sub\n      swap1\n      revert\n    tag_111:\n        /* \"contract/ComputeRewards.sol\":1052:1058  uint i */\n      0x00\n        /* \"contract/ComputeRewards.sol\":1061:1062  0 */\n      0x00\n        /* \"contract/ComputeRewards.sol\":1052:1062  uint i = 0 */\n      swap1\n      pop\n        /* \"contract/ComputeRewards.sol\":1047:1208  for (uint i = 0; i < _users.length; i++) {... */\n    tag_114:\n        /* \"contract/ComputeRewards.sol\":1068:1074  _users */\n      dup6\n      dup6\n        /* \"contract/ComputeRewards.sol\":1068:1081  _users.length */\n      swap1\n      pop\n        /* \"contract/ComputeRewards.sol\":1064:1065  i */\n      dup2\n        /* \"contract/ComputeRewards.sol\":1064:1081  i < _users.length */\n      lt\n        /* \"contract/ComputeRewards.sol\":1047:1208  for (uint i = 0; i < _users.length; i++) {... */\n      iszero\n      tag_115\n      jumpi\n        /* \"contract/ComputeRewards.sol\":1125:1133  _amounts */\n      dup4\n      dup4\n        /* \"contract/ComputeRewards.sol\":1134:1135  i */\n      dup3\n        /* \"contract/ComputeRewards.sol\":1125:1136  _amounts[i] */\n      dup2\n      dup2\n      lt\n      tag_117\n      jumpi\n      tag_118\n      tag_119\n      jump\t// in\n    tag_118:\n    tag_117:\n      swap1\n      pop\n      0x20\n      mul\n      add\n      calldataload\n        /* \"contract/ComputeRewards.sol\":1103:1110  rewards */\n      0x02\n        /* \"contract/ComputeRewards.sol\":1103:1121  rewards[_users[i]] */\n      0x00\n        /* \"contract/ComputeRewards.sol\":1111:1117  _users */\n      dup9\n      dup9\n        /* \"contract/ComputeRewards.sol\":1118:1119  i */\n      dup6\n        /* \"contract/ComputeRewards.sol\":1111:1120  _users[i] */\n      dup2\n      dup2\n      lt\n      tag_120\n      jumpi\n      tag_121\n      tag_119\n      jump\t// in\n    tag_121:\n    tag_120:\n      swap1\n      pop\n      0x20\n      mul\n      add\n      0x20\n      dup2\n      add\n      swap1\n      tag_122\n      swap2\n      swap1\n      tag_26\n      jump\t// in\n    tag_122:\n        /* \"contract/ComputeRewards.sol\":1103:1121  rewards[_users[i]] */\n      0xffffffffffffffffffffffffffffffffffffffff\n      and\n      0xffffffffffffffffffffffffffffffffffffffff\n      and\n      dup2\n      mstore\n      0x20\n      add\n      swap1\n      dup2\n      mstore\n      0x20\n      add\n      0x00\n      keccak256\n      0x00\n        /* \"contract/ComputeRewards.sol\":1103:1136  rewards[_users[i]] += _amounts[i] */\n      dup3\n      dup3\n      sload\n      tag_123\n      swap2\n      swap1\n      tag_124\n      jump\t// in\n    tag_123:\n      swap3\n      pop\n      pop\n      dup2\n      swap1\n      sstore\n      pop\n        /* \"contract/ComputeRewards.sol\":1173:1179  _users */\n      dup6\n      dup6\n        /* \"contract/ComputeRewards.sol\":1180:1181  i */\n      dup3\n        /* \"contract/ComputeRewards.sol\":1173:1182  _users[i] */\n      dup2\n      dup2\n      lt\n      tag_125\n      jumpi\n      tag_126\n      tag_119\n      jump\t// in\n    tag_126:\n    tag_125:\n      swap1\n      pop\n      0x20\n      mul\n      add\n      0x20\n      dup2\n      add\n      swap1\n      tag_127\n      swap2\n      swap1\n      tag_26\n      jump\t// in\n    tag_127:\n        /* \"contract/ComputeRewards.sol\":1156:1196  RewardsAllocated(_users[i], _amounts[i]) */\n      0xffffffffffffffffffffffffffffffffffffffff\n      and\n      0x560ef4f9524af91c8f006852a8707c3f256c238779f8cc088bbe202bb82e632e\n        /* \"contract/ComputeRewards.sol\":1184:1192  _amounts */\n      dup6\n      dup6\n        /* \"contract/ComputeRewards.sol\":1193:1194  i */\n      dup5\n        /* \"contract/ComputeRewards.sol\":1184:1195  _amounts[i] */\n      dup2\n      dup2\n      lt\n      tag_128\n      jumpi\n      tag_129\n      tag_119\n      jump\t// in\n    tag_129:\n    tag_128:\n      swap1\n      pop\n      0x20\n      mul\n      add\n      calldataload\n        /* \"contract/ComputeRewards.sol\":1156:1196  RewardsAllocated(_users[i], _amounts[i]) */\n      mload(0x40)\n      tag_130\n      swap2\n      swap1\n      tag_29\n      jump\t// in\n    tag_130:\n      mload(0x40)\n      dup1\n      swap2\n      sub\n      swap1\n      log2\n        /* \"contract/ComputeRewards.sol\":1083:1086  i++ */\n      dup1\n      dup1\n      0x01\n      add\n      swap2\n      pop\n      pop\n        /* \"contract/ComputeRewards.sol\":1047:1208  for (uint i = 0; i < _users.length; i++) {... */\n      jump(tag_114)\n    tag_115:\n      pop\n        /* \"contract/ComputeRewards.sol\":825:1215  function allocateRewards(address[] calldata _users, uint256[] calldata _amounts) external onlyRole(ORACLE_ROLE) {... */\n      pop\n      pop\n      pop\n      pop\n      pop\n      jump\t// out\n        /* \"@openzeppelin/contracts/access/AccessControl.sol\":4618:4756  function revokeRole(bytes32 role, address account) public virtual onlyRole(getRoleAdmin(role)) {... */\n    tag_61:\n        /* \"@openzeppelin/contracts/access/AccessControl.sol\":4693:4711  getRoleAdmin(role) */\n      tag_131\n        /* \"@openzeppelin/contracts/access/AccessControl.sol\":4706:4710  role */\n      dup3\n        /* \"@openzeppelin/contracts/access/AccessControl.sol\":4693:4705  getRoleAdmin */\n      tag_37\n        /* \"@openzeppelin/contracts/access/AccessControl.sol\":4693:4711  getRoleAdmin(role) */\n      jump\t// in\n    tag_131:\n        /* \"@openzeppelin/contracts/access/AccessControl.sol\":2473:2489  _checkRole(role) */\n      tag_133\n        /* \"@openzeppelin/contracts/access/AccessControl.sol\":2484:2488  role */\n      dup2\n        /* \"@openzeppelin/contracts/access/AccessControl.sol\":2473:2483  _checkRole */\n      tag_78\n        /* \"@openzeppelin/contracts/access/AccessControl.sol\":2473:2489  _checkRole(role) */\n      jump\t// in\n    tag_133:\n        /* \"@openzeppelin/contracts/access/AccessControl.sol\":4723:4749  _revokeRole(role, account) */\n      tag_135\n        /* \"@openzeppelin/contracts/access/AccessControl.sol\":4735:4739  role */\n      dup4\n        /* \"@openzeppelin/contracts/access/AccessControl.sol\":4741:4748  account */\n      dup4\n        /* \"@openzeppelin/contracts/access/AccessControl.sol\":4723:4734  _revokeRole */\n      tag_87\n        /* \"@openzeppelin/contracts/access/AccessControl.sol\":4723:4749  _revokeRole(role, account) */\n      jump\t// in\n    tag_135:\n      pop\n        /* \"@openzeppelin/contracts/access/AccessControl.sol\":4618:4756  function revokeRole(bytes32 role, address account) public virtual onlyRole(getRoleAdmin(role)) {... */\n      pop\n      pop\n      pop\n      jump\t// out\n        /* \"contract/ComputeRewards.sol\":310:345  IERC20 public immutable rewardToken */\n    tag_63:\n      immutable(\"0xadd35db6d9cbb4a93083ce00f6da825d590d67feeb3a24ddce512c81a6f977f2\")\n      dup2\n      jump\t// out\n        /* \"contract/ComputeRewards.sol\":1604:1717  function availableRewards(address _user) external view returns (uint256) {... */\n    tag_68:\n        /* \"contract/ComputeRewards.sol\":1668:1675  uint256 */\n      0x00\n        /* \"contract/ComputeRewards.sol\":1695:1702  rewards */\n      0x02\n        /* \"contract/ComputeRewards.sol\":1695:1709  rewards[_user] */\n      0x00\n        /* \"contract/ComputeRewards.sol\":1703:1708  _user */\n      dup4\n        /* \"contract/ComputeRewards.sol\":1695:1709  rewards[_user] */\n      0xffffffffffffffffffffffffffffffffffffffff\n      and\n      0xffffffffffffffffffffffffffffffffffffffff\n      and\n      dup2\n      mstore\n      0x20\n      add\n      swap1\n      dup2\n      mstore\n      0x20\n      add\n      0x00\n      keccak256\n      sload\n        /* \"contract/ComputeRewards.sol\":1688:1709  return rewards[_user] */\n      swap1\n      pop\n        /* \"contract/ComputeRewards.sol\":1604:1717  function availableRewards(address _user) external view returns (uint256) {... */\n      swap2\n      swap1\n      pop\n      jump\t// out\n        /* \"@openzeppelin/contracts/utils/introspection/ERC165.sol\":730:876  function supportsInterface(bytes4 interfaceId) public view virtual returns (bool) {... */\n    tag_73:\n        /* \"@openzeppelin/contracts/utils/introspection/ERC165.sol\":806:810  bool */\n      0x00\n        /* \"@openzeppelin/contracts/utils/introspection/ERC165.sol\":844:869  type(IERC165).interfaceId */\n      0x01ffc9a700000000000000000000000000000000000000000000000000000000\n        /* \"@openzeppelin/contracts/utils/introspection/ERC165.sol\":829:869  interfaceId == type(IERC165).interfaceId */\n      not(0xffffffffffffffffffffffffffffffffffffffffffffffffffffffff)\n      and\n        /* \"@openzeppelin/contracts/utils/introspection/ERC165.sol\":829:840  interfaceId */\n      dup3\n        /* \"@openzeppelin/contracts/utils/introspection/ERC165.sol\":829:869  interfaceId == type(IERC165).interfaceId */\n      not(0xffffffffffffffffffffffffffffffffffffffffffffffffffffffff)\n      and\n      eq\n        /* \"@openzeppelin/contracts/utils/introspection/ERC165.sol\":822:869  return interfaceId == type(IERC165).interfaceId */\n      swap1\n      pop\n        /* \"@openzeppelin/contracts/utils/introspection/ERC165.sol\":730:876  function supportsInterface(bytes4 interfaceId) public view virtual returns (bool) {... */\n      swap2\n      swap1\n      pop\n      jump\t// out\n        /* \"@openzeppelin/contracts/access/AccessControl.sol\":3175:3278  function _checkRole(bytes32 role) internal view virtual {... */\n    tag_78:\n        /* \"@openzeppelin/contracts/access/AccessControl.sol\":3241:3271  _checkRole(role, _msgSender()) */\n      tag_139\n        /* \"@openzeppelin/contracts/access/AccessControl.sol\":3252:3256  role */\n      dup2\n        /* \"@openzeppelin/contracts/access/AccessControl.sol\":3258:3270  _msgSender() */\n      tag_140\n        /* \"@openzeppelin/contracts/access/AccessControl.sol\":3258:3268  _msgSender */\n      tag_84\n        /* \"@openzeppelin/contracts/access/AccessControl.sol\":3258:3270  _msgSender() */\n      jump\t// in\n    tag_140:\n        /* \"@openzeppelin/contracts/access/AccessControl.sol\":3241:3251  _checkRole */\n      tag_141\n        /* \"@openzeppelin/contracts/access/AccessControl.sol\":3241:3271  _checkRole(role, _msgSender()) */\n      jump\t// in\n    tag_139:\n        /* \"@openzeppelin/contracts/access/AccessControl.sol\":3175:3278  function _checkRole(bytes32 role) internal view virtual {... */\n      pop\n      jump\t// out\n        /* \"@openzeppelin/contracts/access/AccessControl.sol\":6155:6471  function _grantRole(bytes32 role, address account) internal virtual returns (bool) {... */\n    tag_81:\n        /* \"@openzeppelin/contracts/access/AccessControl.sol\":6232:6236  bool */\n      0x00\n        /* \"@openzeppelin/contracts/access/AccessControl.sol\":6253:6275  hasRole(role, account) */\n      tag_143\n        /* \"@openzeppelin/contracts/access/AccessControl.sol\":6261:6265  role */\n      dup4\n        /* \"@openzeppelin/contracts/access/AccessControl.sol\":6267:6274  account */\n      dup4\n        /* \"@openzeppelin/contracts/access/AccessControl.sol\":6253:6260  hasRole */\n      tag_48\n        /* \"@openzeppelin/contracts/access/AccessControl.sol\":6253:6275  hasRole(role, account) */\n      jump\t// in\n    tag_143:\n        /* \"@openzeppelin/contracts/access/AccessControl.sol\":6248:6465  if (!hasRole(role, account)) {... */\n      tag_144\n      jumpi\n        /* \"@openzeppelin/contracts/access/AccessControl.sol\":6323:6327  true */\n      0x01\n        /* \"@openzeppelin/contracts/access/AccessControl.sol\":6291:6297  _roles */\n      0x00\n        /* \"@openzeppelin/contracts/access/AccessControl.sol\":6291:6303  _roles[role] */\n      0x00\n        /* \"@openzeppelin/contracts/access/AccessControl.sol\":6298:6302  role */\n      dup6\n        /* \"@openzeppelin/contracts/access/AccessControl.sol\":6291:6303  _roles[role] */\n      dup2\n      mstore\n      0x20\n      add\n      swap1\n      dup2\n      mstore\n      0x20\n      add\n      0x00\n      keccak256\n        /* \"@openzeppelin/contracts/access/AccessControl.sol\":6291:6311  _roles[role].hasRole */\n      0x00\n      add\n        /* \"@openzeppelin/contracts/access/AccessControl.sol\":6291:6320  _roles[role].hasRole[account] */\n      0x00\n        /* \"@openzeppelin/contracts/access/AccessControl.sol\":6312:6319  account */\n      dup5\n        /* \"@openzeppelin/contracts/access/AccessControl.sol\":6291:6320  _roles[role].hasRole[account] */\n      0xffffffffffffffffffffffffffffffffffffffff\n      and\n      0xffffffffffffffffffffffffffffffffffffffff\n      and\n      dup2\n      mstore\n      0x20\n      add\n      swap1\n      dup2\n      mstore\n      0x20\n      add\n      0x00\n      keccak256\n      0x00\n        /* \"@openzeppelin/contracts/access/AccessControl.sol\":6291:6327  _roles[role].hasRole[account] = true */\n      0x0100\n      exp\n      dup2\n      sload\n      dup2\n      0xff\n      mul\n      not\n      and\n      swap1\n      dup4\n      iszero\n      iszero\n      mul\n      or\n      swap1\n      sstore\n      pop\n        /* \"@openzeppelin/contracts/access/AccessControl.sol\":6373:6385  _msgSender() */\n      tag_145\n        /* \"@openzeppelin/contracts/access/AccessControl.sol\":6373:6383  _msgSender */\n      tag_84\n        /* \"@openzeppelin/contracts/access/AccessControl.sol\":6373:6385  _msgSender() */\n      jump\t// in\n    tag_145:\n        /* \"@openzeppelin/contracts/access/AccessControl.sol\":6346:6386  RoleGranted(role, account, _msgSender()) */\n      0xffffffffffffffffffffffffffffffffffffffff\n      and\n        /* \"@openzeppelin/contracts/access/AccessControl.sol\":6364:6371  account */\n      dup3\n        /* \"@openzeppelin/contracts/access/AccessControl.sol\":6346:6386  RoleGranted(role, account, _msgSender()) */\n      0xffffffffffffffffffffffffffffffffffffffff\n      and\n        /* \"@openzeppelin/contracts/access/AccessControl.sol\":6358:6362  role */\n      dup5\n        /* \"@openzeppelin/contracts/access/AccessControl.sol\":6346:6386  RoleGranted(role, account, _msgSender()) */\n      0x2f8788117e7eff1d82e926ec794901d17c78024a50270940304540a733656f0d\n      mload(0x40)\n      mload(0x40)\n      dup1\n      swap2\n      sub\n      swap1\n      log4\n        /* \"@openzeppelin/contracts/access/AccessControl.sol\":6407:6411  true */\n      0x01\n        /* \"@openzeppelin/contracts/access/AccessControl.sol\":6400:6411  return true */\n      swap1\n      pop\n      jump(tag_142)\n        /* \"@openzeppelin/contracts/access/AccessControl.sol\":6248:6465  if (!hasRole(role, account)) {... */\n    tag_144:\n        /* \"@openzeppelin/contracts/access/AccessControl.sol\":6449:6454  false */\n      0x00\n        /* \"@openzeppelin/contracts/access/AccessControl.sol\":6442:6454  return false */\n      swap1\n      pop\n        /* \"@openzeppelin/contracts/access/AccessControl.sol\":6155:6471  function _grantRole(bytes32 role, address account) internal virtual returns (bool) {... */\n    tag_142:\n      swap3\n      swap2\n      pop\n      pop\n      jump\t// out\n        /* \"@openzeppelin/contracts/utils/Context.sol\":656:752  function _msgSender() internal view virtual returns (address) {... */\n    tag_84:\n        /* \"@openzeppelin/contracts/utils/Context.sol\":709:716  address */\n      0x00\n        /* \"@openzeppelin/contracts/utils/Context.sol\":735:745  msg.sender */\n      caller\n        /* \"@openzeppelin/contracts/utils/Context.sol\":728:745  return msg.sender */\n      swap1\n      pop\n        /* \"@openzeppelin/contracts/utils/Context.sol\":656:752  function _msgSender() internal view virtual returns (address) {... */\n      swap1\n      jump\t// out\n        /* \"@openzeppelin/contracts/access/AccessControl.sol\":6708:7025  function _revokeRole(bytes32 role, address account) internal virtual returns (bool) {... */\n    tag_87:\n        /* \"@openzeppelin/contracts/access/AccessControl.sol\":6786:6790  bool */\n      0x00\n        /* \"@openzeppelin/contracts/access/AccessControl.sol\":6806:6828  hasRole(role, account) */\n      tag_149\n        /* \"@openzeppelin/contracts/access/AccessControl.sol\":6814:6818  role */\n      dup4\n        /* \"@openzeppelin/contracts/access/AccessControl.sol\":6820:6827  account */\n      dup4\n        /* \"@openzeppelin/contracts/access/AccessControl.sol\":6806:6813  hasRole */\n      tag_48\n        /* \"@openzeppelin/contracts/access/AccessControl.sol\":6806:6828  hasRole(role, account) */\n      jump\t// in\n    tag_149:\n        /* \"@openzeppelin/contracts/access/AccessControl.sol\":6802:7019  if (hasRole(role, account)) {... */\n      iszero\n      tag_150\n      jumpi\n        /* \"@openzeppelin/contracts/access/AccessControl.sol\":6876:6881  false */\n      0x00\n        /* \"@openzeppelin/contracts/access/AccessControl.sol\":6844:6850  _roles */\n      0x00\n        /* \"@openzeppelin/contracts/access/AccessControl.sol\":6844:6856  _roles[role] */\n      0x00\n        /* \"@openzeppelin/contracts/access/AccessControl.sol\":6851:6855  role */\n      dup6\n        /* \"@openzeppelin/contracts/access/AccessControl.sol\":6844:6856  _roles[role] */\n      dup2\n      mstore\n      0x20\n      add\n      swap1\n      dup2\n      mstore\n      0x20\n      add\n      0x00\n      keccak256\n        /* \"@openzeppelin/contracts/access/AccessControl.sol\":6844:6864  _roles[role].hasRole */\n      0x00\n      add\n        /* \"@openzeppelin/contracts/access/AccessControl.sol\":6844:6873  _roles[role].hasRole[account] */\n      0x00\n        /* \"@openzeppelin/contracts/access/AccessControl.sol\":6865:6872  account */\n      dup5\n        /* \"@openzeppelin/contracts/access/AccessControl.sol\":6844:6873  _roles[role].hasRole[account] */\n      0xffffffffffffffffffffffffffffffffffffffff\n      and\n      0xffffffffffffffffffffffffffffffffffffffff\n      and\n      dup2\n      mstore\n      0x20\n      add\n      swap1\n      dup2\n      mstore\n      0x20\n      add\n      0x00\n      keccak256\n      0x00\n        /* \"@openzeppelin/contracts/access/AccessControl.sol\":6844:6881  _roles[role].hasRole[account] = false */\n      0x0100\n      exp\n      dup2\n      sload\n      dup2\n      0xff\n      mul\n      not\n      and\n      swap1\n      dup4\n      iszero\n      iszero\n      mul\n      or\n      swap1\n      sstore\n      pop\n        /* \"@openzeppelin/contracts/access/AccessControl.sol\":6927:6939  _msgSender() */\n      tag_151\n        /* \"@openzeppelin/contracts/access/AccessControl.sol\":6927:6937  _msgSender */\n      tag_84\n        /* \"@openzeppelin/contracts/access/AccessControl.sol\":6927:6939  _msgSender() */\n      jump\t// in\n    tag_151:\n        /* \"@openzeppelin/contracts/access/AccessControl.sol\":6900:6940  RoleRevoked(role, account, _msgSender()) */\n      0xffffffffffffffffffffffffffffffffffffffff\n      and\n        /* \"@openzeppelin/contracts/access/AccessControl.sol\":6918:6925  account */\n      dup3\n        /* \"@openzeppelin/contracts/access/AccessControl.sol\":6900:6940  RoleRevoked(role, account, _msgSender()) */\n      0xffffffffffffffffffffffffffffffffffffffff\n      and\n        /* \"@openzeppelin/contracts/access/AccessControl.sol\":6912:6916  role */\n      dup5\n        /* \"@openzeppelin/contracts/access/AccessControl.sol\":6900:6940  RoleRevoked(role, account, _msgSender()) */\n      0xf6391f5c32d9c69d2a47ea670b442974b53935d1edc7fd64eb21e047a839171b\n      mload(0x40)\n      mload(0x40)\n      dup1\n      swap2\n      sub\n      swap1\n      log4\n        /* \"@openzeppelin/contracts/access/AccessControl.sol\":6961:6965  true */\n      0x01\n        /* \"@openzeppelin/contracts/access/AccessControl.sol\":6954:6965  return true */\n      swap1\n      pop\n      jump(tag_148)\n        /* \"@openzeppelin/contracts/access/AccessControl.sol\":6802:7019  if (hasRole(role, account)) {... */\n    tag_150:\n        /* \"@openzeppelin/contracts/access/AccessControl.sol\":7003:7008  false */\n      0x00\n        /* \"@openzeppelin/contracts/access/AccessControl.sol\":6996:7008  return false */\n      swap1\n      pop\n        /* \"@openzeppelin/contracts/access/AccessControl.sol\":6708:7025  function _revokeRole(bytes32 role, address account) internal virtual returns (bool) {... */\n    tag_148:\n      swap3\n      swap2\n      pop\n      pop\n      jump\t// out\n        /* \"@openzeppelin/contracts/security/ReentrancyGuard.sol\":2336:2623  function _nonReentrantBefore() private {... */\n    tag_91:\n        /* \"@openzeppelin/contracts/security/ReentrancyGuard.sol\":1759:1760  2 */\n      0x02\n        /* \"@openzeppelin/contracts/security/ReentrancyGuard.sol\":2468:2475  _status */\n      sload(0x01)\n        /* \"@openzeppelin/contracts/security/ReentrancyGuard.sol\":2468:2487  _status != _ENTERED */\n      sub\n        /* \"@openzeppelin/contracts/security/ReentrancyGuard.sol\":2460:2523  require(_status != _ENTERED, \"ReentrancyGuard: reentrant call\") */\n      tag_154\n      jumpi\n      mload(0x40)\n      0x08c379a000000000000000000000000000000000000000000000000000000000\n      dup2\n      mstore\n      0x04\n      add\n      tag_155\n      swap1\n      tag_156\n      jump\t// in\n    tag_155:\n      mload(0x40)\n      dup1\n      swap2\n      sub\n      swap1\n      revert\n    tag_154:\n        /* \"@openzeppelin/contracts/security/ReentrancyGuard.sol\":1759:1760  2 */\n      0x02\n        /* \"@openzeppelin/contracts/security/ReentrancyGuard.sol\":2598:2605  _status */\n      0x01\n        /* \"@openzeppelin/contracts/security/ReentrancyGuard.sol\":2598:2616  _status = _ENTERED */\n      dup2\n      swap1\n      sstore\n      pop\n        /* \"@openzeppelin/contracts/security/ReentrancyGuard.sol\":2336:2623  function _nonReentrantBefore() private {... */\n      jump\t// out\n        /* \"@openzeppelin/contracts/security/ReentrancyGuard.sol\":2629:2838  function _nonReentrantAfter() private {... */\n    tag_107:\n        /* \"@openzeppelin/contracts/security/ReentrancyGuard.sol\":1716:1717  1 */\n      0x01\n        /* \"@openzeppelin/contracts/security/ReentrancyGuard.sol\":2809:2816  _status */\n      dup1\n        /* \"@openzeppelin/contracts/security/ReentrancyGuard.sol\":2809:2831  _status = _NOT_ENTERED */\n      dup2\n      swap1\n      sstore\n      pop\n        /* \"@openzeppelin/contracts/security/ReentrancyGuard.sol\":2629:2838  function _nonReentrantAfter() private {... */\n      jump\t// out\n        /* \"@openzeppelin/contracts/access/AccessControl.sol\":3408:3605  function _checkRole(bytes32 role, address account) internal view virtual {... */\n    tag_141:\n        /* \"@openzeppelin/contracts/access/AccessControl.sol\":3496:3518  hasRole(role, account) */\n      tag_159\n        /* \"@openzeppelin/contracts/access/AccessControl.sol\":3504:3508  role */\n      dup3\n        /* \"@openzeppelin/contracts/access/AccessControl.sol\":3510:3517  account */\n      dup3\n        /* \"@openzeppelin/contracts/access/AccessControl.sol\":3496:3503  hasRole */\n      tag_48\n        /* \"@openzeppelin/contracts/access/AccessControl.sol\":3496:3518  hasRole(role, account) */\n      jump\t// in\n    tag_159:\n        /* \"@openzeppelin/contracts/access/AccessControl.sol\":3491:3599  if (!hasRole(role, account)) {... */\n      tag_160\n      jumpi\n        /* \"@openzeppelin/contracts/access/AccessControl.sol\":3574:3581  account */\n      dup1\n        /* \"@openzeppelin/contracts/access/AccessControl.sol\":3583:3587  role */\n      dup3\n        /* \"@openzeppelin/contracts/access/AccessControl.sol\":3541:3588  AccessControlUnauthorizedAccount(account, role) */\n      mload(0x40)\n      0xe2517d3f00000000000000000000000000000000000000000000000000000000\n      dup2\n      mstore\n      0x04\n      add\n      tag_161\n      swap3\n      swap2\n      swap1\n      tag_162\n      jump\t// in\n    tag_161:\n      mload(0x40)\n      dup1\n      swap2\n      sub\n      swap1\n      revert\n        /* \"@openzeppelin/contracts/access/AccessControl.sol\":3491:3599  if (!hasRole(role, account)) {... */\n    tag_160:\n        /* \"@openzeppelin/contracts/access/AccessControl.sol\":3408:3605  function _checkRole(bytes32 role, address account) internal view virtual {... */\n      pop\n      pop\n      jump\t// out\n        /* \"#utility.yul\":88:205   */\n    tag_164:\n        /* \"#utility.yul\":197:198   */\n      0x00\n        /* \"#utility.yul\":194:195   */\n      0x00\n        /* \"#utility.yul\":187:199   */\n      revert\n        /* \"#utility.yul\":211:328   */\n    tag_165:\n        /* \"#utility.yul\":320:321   */\n      0x00\n        /* \"#utility.yul\":317:318   */\n      0x00\n        /* \"#utility.yul\":310:322   */\n      revert\n        /* \"#utility.yul\":334:483   */\n    tag_166:\n        /* \"#utility.yul\":370:377   */\n      0x00\n        /* \"#utility.yul\":410:476   */\n      0xffffffff00000000000000000000000000000000000000000000000000000000\n        /* \"#utility.yul\":403:408   */\n      dup3\n        /* \"#utility.yul\":399:477   */\n      and\n        /* \"#utility.yul\":388:477   */\n      swap1\n      pop\n        /* \"#utility.yul\":334:483   */\n      swap2\n      swap1\n      pop\n      jump\t// out\n        /* \"#utility.yul\":489:609   */\n    tag_167:\n        /* \"#utility.yul\":561:584   */\n      tag_210\n        /* \"#utility.yul\":578:583   */\n      dup2\n        /* \"#utility.yul\":561:584   */\n      tag_166\n      jump\t// in\n    tag_210:\n        /* \"#utility.yul\":554:559   */\n      dup2\n        /* \"#utility.yul\":551:585   */\n      eq\n        /* \"#utility.yul\":541:603   */\n      tag_211\n      jumpi\n        /* \"#utility.yul\":599:600   */\n      0x00\n        /* \"#utility.yul\":596:597   */\n      0x00\n        /* \"#utility.yul\":589:601   */\n      revert\n        /* \"#utility.yul\":541:603   */\n    tag_211:\n        /* \"#utility.yul\":489:609   */\n      pop\n      jump\t// out\n        /* \"#utility.yul\":615:752   */\n    tag_168:\n        /* \"#utility.yul\":660:665   */\n      0x00\n        /* \"#utility.yul\":698:704   */\n      dup2\n        /* \"#utility.yul\":685:705   */\n      calldataload\n        /* \"#utility.yul\":676:705   */\n      swap1\n      pop\n        /* \"#utility.yul\":714:746   */\n      tag_213\n        /* \"#utility.yul\":740:745   */\n      dup2\n        /* \"#utility.yul\":714:746   */\n      tag_167\n      jump\t// in\n    tag_213:\n        /* \"#utility.yul\":615:752   */\n      swap3\n      swap2\n      pop\n      pop\n      jump\t// out\n        /* \"#utility.yul\":758:1085   */\n    tag_20:\n        /* \"#utility.yul\":816:822   */\n      0x00\n        /* \"#utility.yul\":865:867   */\n      0x20\n        /* \"#utility.yul\":853:862   */\n      dup3\n        /* \"#utility.yul\":844:851   */\n      dup5\n        /* \"#utility.yul\":840:863   */\n      sub\n        /* \"#utility.yul\":836:868   */\n      slt\n        /* \"#utility.yul\":833:952   */\n      iszero\n      tag_215\n      jumpi\n        /* \"#utility.yul\":871:950   */\n      tag_216\n      tag_164\n      jump\t// in\n    tag_216:\n        /* \"#utility.yul\":833:952   */\n    tag_215:\n        /* \"#utility.yul\":991:992   */\n      0x00\n        /* \"#utility.yul\":1016:1068   */\n      tag_217\n        /* \"#utility.yul\":1060:1067   */\n      dup5\n        /* \"#utility.yul\":1051:1057   */\n      dup3\n        /* \"#utility.yul\":1040:1049   */\n      dup6\n        /* \"#utility.yul\":1036:1058   */\n      add\n        /* \"#utility.yul\":1016:1068   */\n      tag_168\n      jump\t// in\n    tag_217:\n        /* \"#utility.yul\":1006:1068   */\n      swap2\n      pop\n        /* \"#utility.yul\":962:1078   */\n      pop\n        /* \"#utility.yul\":758:1085   */\n      swap3\n      swap2\n      pop\n      pop\n      jump\t// out\n        /* \"#utility.yul\":1091:1181   */\n    tag_169:\n        /* \"#utility.yul\":1125:1132   */\n      0x00\n        /* \"#utility.yul\":1168:1173   */\n      dup2\n        /* \"#utility.yul\":1161:1174   */\n      iszero\n        /* \"#utility.yul\":1154:1175   */\n      iszero\n        /* \"#utility.yul\":1143:1175   */\n      swap1\n      pop\n        /* \"#utility.yul\":1091:1181   */\n      swap2\n      swap1\n      pop\n      jump\t// out\n        /* \"#utility.yul\":1187:1296   */\n    tag_170:\n        /* \"#utility.yul\":1268:1289   */\n      tag_220\n        /* \"#utility.yul\":1283:1288   */\n      dup2\n        /* \"#utility.yul\":1268:1289   */\n      tag_169\n      jump\t// in\n    tag_220:\n        /* \"#utility.yul\":1263:1266   */\n      dup3\n        /* \"#utility.yul\":1256:1290   */\n      mstore\n        /* \"#utility.yul\":1187:1296   */\n      pop\n      pop\n      jump\t// out\n        /* \"#utility.yul\":1302:1512   */\n    tag_23:\n        /* \"#utility.yul\":1389:1393   */\n      0x00\n        /* \"#utility.yul\":1427:1429   */\n      0x20\n        /* \"#utility.yul\":1416:1425   */\n      dup3\n        /* \"#utility.yul\":1412:1430   */\n      add\n        /* \"#utility.yul\":1404:1430   */\n      swap1\n      pop\n        /* \"#utility.yul\":1440:1505   */\n      tag_222\n        /* \"#utility.yul\":1502:1503   */\n      0x00\n        /* \"#utility.yul\":1491:1500   */\n      dup4\n        /* \"#utility.yul\":1487:1504   */\n      add\n        /* \"#utility.yul\":1478:1484   */\n      dup5\n        /* \"#utility.yul\":1440:1505   */\n      tag_170\n      jump\t// in\n    tag_222:\n        /* \"#utility.yul\":1302:1512   */\n      swap3\n      swap2\n      pop\n      pop\n      jump\t// out\n        /* \"#utility.yul\":1518:1644   */\n    tag_171:\n        /* \"#utility.yul\":1555:1562   */\n      0x00\n        /* \"#utility.yul\":1595:1637   */\n      0xffffffffffffffffffffffffffffffffffffffff\n        /* \"#utility.yul\":1588:1593   */\n      dup3\n        /* \"#utility.yul\":1584:1638   */\n      and\n        /* \"#utility.yul\":1573:1638   */\n      swap1\n      pop\n        /* \"#utility.yul\":1518:1644   */\n      swap2\n      swap1\n      pop\n      jump\t// out\n        /* \"#utility.yul\":1650:1746   */\n    tag_172:\n        /* \"#utility.yul\":1687:1694   */\n      0x00\n        /* \"#utility.yul\":1716:1740   */\n      tag_225\n        /* \"#utility.yul\":1734:1739   */\n      dup3\n        /* \"#utility.yul\":1716:1740   */\n      tag_171\n      jump\t// in\n    tag_225:\n        /* \"#utility.yul\":1705:1740   */\n      swap1\n      pop\n        /* \"#utility.yul\":1650:1746   */\n      swap2\n      swap1\n      pop\n      jump\t// out\n        /* \"#utility.yul\":1752:1874   */\n    tag_173:\n        /* \"#utility.yul\":1825:1849   */\n      tag_227\n        /* \"#utility.yul\":1843:1848   */\n      dup2\n        /* \"#utility.yul\":1825:1849   */\n      tag_172\n      jump\t// in\n    tag_227:\n        /* \"#utility.yul\":1818:1823   */\n      dup2\n        /* \"#utility.yul\":1815:1850   */\n      eq\n        /* \"#utility.yul\":1805:1868   */\n      tag_228\n      jumpi\n        /* \"#utility.yul\":1864:1865   */\n      0x00\n        /* \"#utility.yul\":1861:1862   */\n      0x00\n        /* \"#utility.yul\":1854:1866   */\n      revert\n        /* \"#utility.yul\":1805:1868   */\n    tag_228:\n        /* \"#utility.yul\":1752:1874   */\n      pop\n      jump\t// out\n        /* \"#utility.yul\":1880:2019   */\n    tag_174:\n        /* \"#utility.yul\":1926:1931   */\n      0x00\n        /* \"#utility.yul\":1964:1970   */\n      dup2\n        /* \"#utility.yul\":1951:1971   */\n      calldataload\n        /* \"#utility.yul\":1942:1971   */\n      swap1\n      pop\n        /* \"#utility.yul\":1980:2013   */\n      tag_230\n        /* \"#utility.yul\":2007:2012   */\n      dup2\n        /* \"#utility.yul\":1980:2013   */\n      tag_173\n      jump\t// in\n    tag_230:\n        /* \"#utility.yul\":1880:2019   */\n      swap3\n      swap2\n      pop\n      pop\n      jump\t// out\n        /* \"#utility.yul\":2025:2354   */\n    tag_26:\n        /* \"#utility.yul\":2084:2090   */\n      0x00\n        /* \"#utility.yul\":2133:2135   */\n      0x20\n        /* \"#utility.yul\":2121:2130   */\n      dup3\n        /* \"#utility.yul\":2112:2119   */\n      dup5\n        /* \"#utility.yul\":2108:2131   */\n      sub\n        /* \"#utility.yul\":2104:2136   */\n      slt\n        /* \"#utility.yul\":2101:2220   */\n      iszero\n      tag_232\n      jumpi\n        /* \"#utility.yul\":2139:2218   */\n      tag_233\n      tag_164\n      jump\t// in\n    tag_233:\n        /* \"#utility.yul\":2101:2220   */\n    tag_232:\n        /* \"#utility.yul\":2259:2260   */\n      0x00\n        /* \"#utility.yul\":2284:2337   */\n      tag_234\n        /* \"#utility.yul\":2329:2336   */\n      dup5\n        /* \"#utility.yul\":2320:2326   */\n      dup3\n        /* \"#utility.yul\":2309:2318   */\n      dup6\n        /* \"#utility.yul\":2305:2327   */\n      add\n        /* \"#utility.yul\":2284:2337   */\n      tag_174\n      jump\t// in\n    tag_234:\n        /* \"#utility.yul\":2274:2337   */\n      swap2\n      pop\n        /* \"#utility.yul\":2230:2347   */\n      pop\n        /* \"#utility.yul\":2025:2354   */\n      swap3\n      swap2\n      pop\n      pop\n      jump\t// out\n        /* \"#utility.yul\":2360:2437   */\n    tag_175:\n        /* \"#utility.yul\":2397:2404   */\n      0x00\n        /* \"#utility.yul\":2426:2431   */\n      dup2\n        /* \"#utility.yul\":2415:2431   */\n      swap1\n      pop\n        /* \"#utility.yul\":2360:2437   */\n      swap2\n      swap1\n      pop\n      jump\t// out\n        /* \"#utility.yul\":2443:2561   */\n    tag_176:\n        /* \"#utility.yul\":2530:2554   */\n      tag_237\n        /* \"#utility.yul\":2548:2553   */\n      dup2\n        /* \"#utility.yul\":2530:2554   */\n      tag_175\n      jump\t// in\n    tag_237:\n        /* \"#utility.yul\":2525:2528   */\n      dup3\n        /* \"#utility.yul\":2518:2555   */\n      mstore\n        /* \"#utility.yul\":2443:2561   */\n      pop\n      pop\n      jump\t// out\n        /* \"#utility.yul\":2567:2789   */\n    tag_29:\n        /* \"#utility.yul\":2660:2664   */\n      0x00\n        /* \"#utility.yul\":2698:2700   */\n      0x20\n        /* \"#utility.yul\":2687:2696   */\n      dup3\n        /* \"#utility.yul\":2683:2701   */\n      add\n        /* \"#utility.yul\":2675:2701   */\n      swap1\n      pop\n        /* \"#utility.yul\":2711:2782   */\n      tag_239\n        /* \"#utility.yul\":2779:2780   */\n      0x00\n        /* \"#utility.yul\":2768:2777   */\n      dup4\n        /* \"#utility.yul\":2764:2781   */\n      add\n        /* \"#utility.yul\":2755:2761   */\n      dup5\n        /* \"#utility.yul\":2711:2782   */\n      tag_176\n      jump\t// in\n    tag_239:\n        /* \"#utility.yul\":2567:2789   */\n      swap3\n      swap2\n      pop\n      pop\n      jump\t// out\n        /* \"#utility.yul\":2795:2872   */\n    tag_177:\n        /* \"#utility.yul\":2832:2839   */\n      0x00\n        /* \"#utility.yul\":2861:2866   */\n      dup2\n        /* \"#utility.yul\":2850:2866   */\n      swap1\n      pop\n        /* \"#utility.yul\":2795:2872   */\n      swap2\n      swap1\n      pop\n      jump\t// out\n        /* \"#utility.yul\":2878:2996   */\n    tag_178:\n        /* \"#utility.yul\":2965:2989   */\n      tag_242\n        /* \"#utility.yul\":2983:2988   */\n      dup2\n        /* \"#utility.yul\":2965:2989   */\n      tag_177\n      jump\t// in\n    tag_242:\n        /* \"#utility.yul\":2960:2963   */\n      dup3\n        /* \"#utility.yul\":2953:2990   */\n      mstore\n        /* \"#utility.yul\":2878:2996   */\n      pop\n      pop\n      jump\t// out\n        /* \"#utility.yul\":3002:3224   */\n    tag_33:\n        /* \"#utility.yul\":3095:3099   */\n      0x00\n        /* \"#utility.yul\":3133:3135   */\n      0x20\n        /* \"#utility.yul\":3122:3131   */\n      dup3\n        /* \"#utility.yul\":3118:3136   */\n      add\n        /* \"#utility.yul\":3110:3136   */\n      swap1\n      pop\n        /* \"#utility.yul\":3146:3217   */\n      tag_244\n        /* \"#utility.yul\":3214:3215   */\n      0x00\n        /* \"#utility.yul\":3203:3212   */\n      dup4\n        /* \"#utility.yul\":3199:3216   */\n      add\n        /* \"#utility.yul\":3190:3196   */\n      dup5\n        /* \"#utility.yul\":3146:3217   */\n      tag_178\n      jump\t// in\n    tag_244:\n        /* \"#utility.yul\":3002:3224   */\n      swap3\n      swap2\n      pop\n      pop\n      jump\t// out\n        /* \"#utility.yul\":3230:3352   */\n    tag_179:\n        /* \"#utility.yul\":3303:3327   */\n      tag_246\n        /* \"#utility.yul\":3321:3326   */\n      dup2\n        /* \"#utility.yul\":3303:3327   */\n      tag_177\n      jump\t// in\n    tag_246:\n        /* \"#utility.yul\":3296:3301   */\n      dup2\n        /* \"#utility.yul\":3293:3328   */\n      eq\n        /* \"#utility.yul\":3283:3346   */\n      tag_247\n      jumpi\n        /* \"#utility.yul\":3342:3343   */\n      0x00\n        /* \"#utility.yul\":3339:3340   */\n      0x00\n        /* \"#utility.yul\":3332:3344   */\n      revert\n        /* \"#utility.yul\":3283:3346   */\n    tag_247:\n        /* \"#utility.yul\":3230:3352   */\n      pop\n      jump\t// out\n        /* \"#utility.yul\":3358:3497   */\n    tag_180:\n        /* \"#utility.yul\":3404:3409   */\n      0x00\n        /* \"#utility.yul\":3442:3448   */\n      dup2\n        /* \"#utility.yul\":3429:3449   */\n      calldataload\n        /* \"#utility.yul\":3420:3449   */\n      swap1\n      pop\n        /* \"#utility.yul\":3458:3491   */\n      tag_249\n        /* \"#utility.yul\":3485:3490   */\n      dup2\n        /* \"#utility.yul\":3458:3491   */\n      tag_179\n      jump\t// in\n    tag_249:\n        /* \"#utility.yul\":3358:3497   */\n      swap3\n      swap2\n      pop\n      pop\n      jump\t// out\n        /* \"#utility.yul\":3503:3832   */\n    tag_36:\n        /* \"#utility.yul\":3562:3568   */\n      0x00\n        /* \"#utility.yul\":3611:3613   */\n      0x20\n        /* \"#utility.yul\":3599:3608   */\n      dup3\n        /* \"#utility.yul\":3590:3597   */\n      dup5\n        /* \"#utility.yul\":3586:3609   */\n      sub\n        /* \"#utility.yul\":3582:3614   */\n      slt\n        /* \"#utility.yul\":3579:3698   */\n      iszero\n      tag_251\n      jumpi\n        /* \"#utility.yul\":3617:3696   */\n      tag_252\n      tag_164\n      jump\t// in\n    tag_252:\n        /* \"#utility.yul\":3579:3698   */\n    tag_251:\n        /* \"#utility.yul\":3737:3738   */\n      0x00\n        /* \"#utility.yul\":3762:3815   */\n      tag_253\n        /* \"#utility.yul\":3807:3814   */\n      dup5\n        /* \"#utility.yul\":3798:3804   */\n      dup3\n        /* \"#utility.yul\":3787:3796   */\n      dup6\n        /* \"#utility.yul\":3783:3805   */\n      add\n        /* \"#utility.yul\":3762:3815   */\n      tag_180\n      jump\t// in\n    tag_253:\n        /* \"#utility.yul\":3752:3815   */\n      swap2\n      pop\n        /* \"#utility.yul\":3708:3825   */\n      pop\n        /* \"#utility.yul\":3503:3832   */\n      swap3\n      swap2\n      pop\n      pop\n      jump\t// out\n        /* \"#utility.yul\":3838:4312   */\n    tag_41:\n        /* \"#utility.yul\":3906:3912   */\n      0x00\n        /* \"#utility.yul\":3914:3920   */\n      0x00\n        /* \"#utility.yul\":3963:3965   */\n      0x40\n        /* \"#utility.yul\":3951:3960   */\n      dup4\n        /* \"#utility.yul\":3942:3949   */\n      dup6\n        /* \"#utility.yul\":3938:3961   */\n      sub\n        /* \"#utility.yul\":3934:3966   */\n      slt\n        /* \"#utility.yul\":3931:4050   */\n      iszero\n      tag_255\n      jumpi\n        /* \"#utility.yul\":3969:4048   */\n      tag_256\n      tag_164\n      jump\t// in\n    tag_256:\n        /* \"#utility.yul\":3931:4050   */\n    tag_255:\n        /* \"#utility.yul\":4089:4090   */\n      0x00\n        /* \"#utility.yul\":4114:4167   */\n      tag_257\n        /* \"#utility.yul\":4159:4166   */\n      dup6\n        /* \"#utility.yul\":4150:4156   */\n      dup3\n        /* \"#utility.yul\":4139:4148   */\n      dup7\n        /* \"#utility.yul\":4135:4157   */\n      add\n        /* \"#utility.yul\":4114:4167   */\n      tag_180\n      jump\t// in\n    tag_257:\n        /* \"#utility.yul\":4104:4167   */\n      swap3\n      pop\n        /* \"#utility.yul\":4060:4177   */\n      pop\n        /* \"#utility.yul\":4216:4218   */\n      0x20\n        /* \"#utility.yul\":4242:4295   */\n      tag_258\n        /* \"#utility.yul\":4287:4294   */\n      dup6\n        /* \"#utility.yul\":4278:4284   */\n      dup3\n        /* \"#utility.yul\":4267:4276   */\n      dup7\n        /* \"#utility.yul\":4263:4285   */\n      add\n        /* \"#utility.yul\":4242:4295   */\n      tag_174\n      jump\t// in\n    tag_258:\n        /* \"#utility.yul\":4232:4295   */\n      swap2\n      pop\n        /* \"#utility.yul\":4187:4305   */\n      pop\n        /* \"#utility.yul\":3838:4312   */\n      swap3\n      pop\n      swap3\n      swap1\n      pop\n      jump\t// out\n        /* \"#utility.yul\":4318:4435   */\n    tag_181:\n        /* \"#utility.yul\":4427:4428   */\n      0x00\n        /* \"#utility.yul\":4424:4425   */\n      0x00\n        /* \"#utility.yul\":4417:4429   */\n      revert\n        /* \"#utility.yul\":4441:4558   */\n    tag_182:\n        /* \"#utility.yul\":4550:4551   */\n      0x00\n        /* \"#utility.yul\":4547:4548   */\n      0x00\n        /* \"#utility.yul\":4540:4552   */\n      revert\n        /* \"#utility.yul\":4564:4681   */\n    tag_183:\n        /* \"#utility.yul\":4673:4674   */\n      0x00\n        /* \"#utility.yul\":4670:4671   */\n      0x00\n        /* \"#utility.yul\":4663:4675   */\n      revert\n        /* \"#utility.yul\":4704:5272   */\n    tag_184:\n        /* \"#utility.yul\":4777:4785   */\n      0x00\n        /* \"#utility.yul\":4787:4793   */\n      0x00\n        /* \"#utility.yul\":4837:4840   */\n      dup4\n        /* \"#utility.yul\":4830:4834   */\n      0x1f\n        /* \"#utility.yul\":4822:4828   */\n      dup5\n        /* \"#utility.yul\":4818:4835   */\n      add\n        /* \"#utility.yul\":4814:4841   */\n      slt\n        /* \"#utility.yul\":4804:4926   */\n      tag_263\n      jumpi\n        /* \"#utility.yul\":4845:4924   */\n      tag_264\n      tag_181\n      jump\t// in\n    tag_264:\n        /* \"#utility.yul\":4804:4926   */\n    tag_263:\n        /* \"#utility.yul\":4958:4964   */\n      dup3\n        /* \"#utility.yul\":4945:4965   */\n      calldataload\n        /* \"#utility.yul\":4935:4965   */\n      swap1\n      pop\n        /* \"#utility.yul\":4988:5006   */\n      0xffffffffffffffff\n        /* \"#utility.yul\":4980:4986   */\n      dup2\n        /* \"#utility.yul\":4977:5007   */\n      gt\n        /* \"#utility.yul\":4974:5091   */\n      iszero\n      tag_265\n      jumpi\n        /* \"#utility.yul\":5010:5089   */\n      tag_266\n      tag_182\n      jump\t// in\n    tag_266:\n        /* \"#utility.yul\":4974:5091   */\n    tag_265:\n        /* \"#utility.yul\":5124:5128   */\n      0x20\n        /* \"#utility.yul\":5116:5122   */\n      dup4\n        /* \"#utility.yul\":5112:5129   */\n      add\n        /* \"#utility.yul\":5100:5129   */\n      swap2\n      pop\n        /* \"#utility.yul\":5178:5181   */\n      dup4\n        /* \"#utility.yul\":5170:5174   */\n      0x20\n        /* \"#utility.yul\":5162:5168   */\n      dup3\n        /* \"#utility.yul\":5158:5175   */\n      mul\n        /* \"#utility.yul\":5148:5156   */\n      dup4\n        /* \"#utility.yul\":5144:5176   */\n      add\n        /* \"#utility.yul\":5141:5182   */\n      gt\n        /* \"#utility.yul\":5138:5266   */\n      iszero\n      tag_267\n      jumpi\n        /* \"#utility.yul\":5185:5264   */\n      tag_268\n      tag_183\n      jump\t// in\n    tag_268:\n        /* \"#utility.yul\":5138:5266   */\n    tag_267:\n        /* \"#utility.yul\":4704:5272   */\n      swap3\n      pop\n      swap3\n      swap1\n      pop\n      jump\t// out\n        /* \"#utility.yul\":5295:5863   */\n    tag_185:\n        /* \"#utility.yul\":5368:5376   */\n      0x00\n        /* \"#utility.yul\":5378:5384   */\n      0x00\n        /* \"#utility.yul\":5428:5431   */\n      dup4\n        /* \"#utility.yul\":5421:5425   */\n      0x1f\n        /* \"#utility.yul\":5413:5419   */\n      dup5\n        /* \"#utility.yul\":5409:5426   */\n      add\n        /* \"#utility.yul\":5405:5432   */\n      slt\n        /* \"#utility.yul\":5395:5517   */\n      tag_270\n      jumpi\n        /* \"#utility.yul\":5436:5515   */\n      tag_271\n      tag_181\n      jump\t// in\n    tag_271:\n        /* \"#utility.yul\":5395:5517   */\n    tag_270:\n        /* \"#utility.yul\":5549:5555   */\n      dup3\n        /* \"#utility.yul\":5536:5556   */\n      calldataload\n        /* \"#utility.yul\":5526:5556   */\n      swap1\n      pop\n        /* \"#utility.yul\":5579:5597   */\n      0xffffffffffffffff\n        /* \"#utility.yul\":5571:5577   */\n      dup2\n        /* \"#utility.yul\":5568:5598   */\n      gt\n        /* \"#utility.yul\":5565:5682   */\n      iszero\n      tag_272\n      jumpi\n        /* \"#utility.yul\":5601:5680   */\n      tag_273\n      tag_182\n      jump\t// in\n    tag_273:\n        /* \"#utility.yul\":5565:5682   */\n    tag_272:\n        /* \"#utility.yul\":5715:5719   */\n      0x20\n        /* \"#utility.yul\":5707:5713   */\n      dup4\n        /* \"#utility.yul\":5703:5720   */\n      add\n        /* \"#utility.yul\":5691:5720   */\n      swap2\n      pop\n        /* \"#utility.yul\":5769:5772   */\n      dup4\n        /* \"#utility.yul\":5761:5765   */\n      0x20\n        /* \"#utility.yul\":5753:5759   */\n      dup3\n        /* \"#utility.yul\":5749:5766   */\n      mul\n        /* \"#utility.yul\":5739:5747   */\n      dup4\n        /* \"#utility.yul\":5735:5767   */\n      add\n        /* \"#utility.yul\":5732:5773   */\n      gt\n        /* \"#utility.yul\":5729:5857   */\n      iszero\n      tag_274\n      jumpi\n        /* \"#utility.yul\":5776:5855   */\n      tag_275\n      tag_183\n      jump\t// in\n    tag_275:\n        /* \"#utility.yul\":5729:5857   */\n    tag_274:\n        /* \"#utility.yul\":5295:5863   */\n      swap3\n      pop\n      swap3\n      swap1\n      pop\n      jump\t// out\n        /* \"#utility.yul\":5869:6803   */\n    tag_57:\n        /* \"#utility.yul\":5991:5997   */\n      0x00\n        /* \"#utility.yul\":5999:6005   */\n      0x00\n        /* \"#utility.yul\":6007:6013   */\n      0x00\n        /* \"#utility.yul\":6015:6021   */\n      0x00\n        /* \"#utility.yul\":6064:6066   */\n      0x40\n        /* \"#utility.yul\":6052:6061   */\n      dup6\n        /* \"#utility.yul\":6043:6050   */\n      dup8\n        /* \"#utility.yul\":6039:6062   */\n      sub\n        /* \"#utility.yul\":6035:6067   */\n      slt\n        /* \"#utility.yul\":6032:6151   */\n      iszero\n      tag_277\n      jumpi\n        /* \"#utility.yul\":6070:6149   */\n      tag_278\n      tag_164\n      jump\t// in\n    tag_278:\n        /* \"#utility.yul\":6032:6151   */\n    tag_277:\n        /* \"#utility.yul\":6218:6219   */\n      0x00\n        /* \"#utility.yul\":6207:6216   */\n      dup6\n        /* \"#utility.yul\":6203:6220   */\n      add\n        /* \"#utility.yul\":6190:6221   */\n      calldataload\n        /* \"#utility.yul\":6248:6266   */\n      0xffffffffffffffff\n        /* \"#utility.yul\":6240:6246   */\n      dup2\n        /* \"#utility.yul\":6237:6267   */\n      gt\n        /* \"#utility.yul\":6234:6351   */\n      iszero\n      tag_279\n      jumpi\n        /* \"#utility.yul\":6270:6349   */\n      tag_280\n      tag_165\n      jump\t// in\n    tag_280:\n        /* \"#utility.yul\":6234:6351   */\n    tag_279:\n        /* \"#utility.yul\":6383:6463   */\n      tag_281\n        /* \"#utility.yul\":6455:6462   */\n      dup8\n        /* \"#utility.yul\":6446:6452   */\n      dup3\n        /* \"#utility.yul\":6435:6444   */\n      dup9\n        /* \"#utility.yul\":6431:6453   */\n      add\n        /* \"#utility.yul\":6383:6463   */\n      tag_184\n      jump\t// in\n    tag_281:\n        /* \"#utility.yul\":6365:6463   */\n      swap5\n      pop\n      swap5\n      pop\n        /* \"#utility.yul\":6161:6473   */\n      pop\n        /* \"#utility.yul\":6540:6542   */\n      0x20\n        /* \"#utility.yul\":6529:6538   */\n      dup6\n        /* \"#utility.yul\":6525:6543   */\n      add\n        /* \"#utility.yul\":6512:6544   */\n      calldataload\n        /* \"#utility.yul\":6571:6589   */\n      0xffffffffffffffff\n        /* \"#utility.yul\":6563:6569   */\n      dup2\n        /* \"#utility.yul\":6560:6590   */\n      gt\n        /* \"#utility.yul\":6557:6674   */\n      iszero\n      tag_282\n      jumpi\n        /* \"#utility.yul\":6593:6672   */\n      tag_283\n      tag_165\n      jump\t// in\n    tag_283:\n        /* \"#utility.yul\":6557:6674   */\n    tag_282:\n        /* \"#utility.yul\":6706:6786   */\n      tag_284\n        /* \"#utility.yul\":6778:6785   */\n      dup8\n        /* \"#utility.yul\":6769:6775   */\n      dup3\n        /* \"#utility.yul\":6758:6767   */\n      dup9\n        /* \"#utility.yul\":6754:6776   */\n      add\n        /* \"#utility.yul\":6706:6786   */\n      tag_185\n      jump\t// in\n    tag_284:\n        /* \"#utility.yul\":6688:6786   */\n      swap3\n      pop\n      swap3\n      pop\n        /* \"#utility.yul\":6483:6796   */\n      pop\n        /* \"#utility.yul\":5869:6803   */\n      swap3\n      swap6\n      swap2\n      swap5\n      pop\n      swap3\n      pop\n      jump\t// out\n        /* \"#utility.yul\":6809:6869   */\n    tag_186:\n        /* \"#utility.yul\":6837:6840   */\n      0x00\n        /* \"#utility.yul\":6858:6863   */\n      dup2\n        /* \"#utility.yul\":6851:6863   */\n      swap1\n      pop\n        /* \"#utility.yul\":6809:6869   */\n      swap2\n      swap1\n      pop\n      jump\t// out\n        /* \"#utility.yul\":6875:7017   */\n    tag_187:\n        /* \"#utility.yul\":6925:6934   */\n      0x00\n        /* \"#utility.yul\":6958:7011   */\n      tag_287\n        /* \"#utility.yul\":6976:7010   */\n      tag_288\n        /* \"#utility.yul\":6985:7009   */\n      tag_289\n        /* \"#utility.yul\":7003:7008   */\n      dup5\n        /* \"#utility.yul\":6985:7009   */\n      tag_171\n      jump\t// in\n    tag_289:\n        /* \"#utility.yul\":6976:7010   */\n      tag_186\n      jump\t// in\n    tag_288:\n        /* \"#utility.yul\":6958:7011   */\n      tag_171\n      jump\t// in\n    tag_287:\n        /* \"#utility.yul\":6945:7011   */\n      swap1\n      pop\n        /* \"#utility.yul\":6875:7017   */\n      swap2\n      swap1\n      pop\n      jump\t// out\n        /* \"#utility.yul\":7023:7149   */\n    tag_188:\n        /* \"#utility.yul\":7073:7082   */\n      0x00\n        /* \"#utility.yul\":7106:7143   */\n      tag_291\n        /* \"#utility.yul\":7137:7142   */\n      dup3\n        /* \"#utility.yul\":7106:7143   */\n      tag_187\n      jump\t// in\n    tag_291:\n        /* \"#utility.yul\":7093:7143   */\n      swap1\n      pop\n        /* \"#utility.yul\":7023:7149   */\n      swap2\n      swap1\n      pop\n      jump\t// out\n        /* \"#utility.yul\":7155:7295   */\n    tag_189:\n        /* \"#utility.yul\":7219:7228   */\n      0x00\n        /* \"#utility.yul\":7252:7289   */\n      tag_293\n        /* \"#utility.yul\":7283:7288   */\n      dup3\n        /* \"#utility.yul\":7252:7289   */\n      tag_188\n      jump\t// in\n    tag_293:\n        /* \"#utility.yul\":7239:7289   */\n      swap1\n      pop\n        /* \"#utility.yul\":7155:7295   */\n      swap2\n      swap1\n      pop\n      jump\t// out\n        /* \"#utility.yul\":7301:7460   */\n    tag_190:\n        /* \"#utility.yul\":7402:7453   */\n      tag_295\n        /* \"#utility.yul\":7447:7452   */\n      dup2\n        /* \"#utility.yul\":7402:7453   */\n      tag_189\n      jump\t// in\n    tag_295:\n        /* \"#utility.yul\":7397:7400   */\n      dup3\n        /* \"#utility.yul\":7390:7454   */\n      mstore\n        /* \"#utility.yul\":7301:7460   */\n      pop\n      pop\n      jump\t// out\n        /* \"#utility.yul\":7466:7716   */\n    tag_65:\n        /* \"#utility.yul\":7573:7577   */\n      0x00\n        /* \"#utility.yul\":7611:7613   */\n      0x20\n        /* \"#utility.yul\":7600:7609   */\n      dup3\n        /* \"#utility.yul\":7596:7614   */\n      add\n        /* \"#utility.yul\":7588:7614   */\n      swap1\n      pop\n        /* \"#utility.yul\":7624:7709   */\n      tag_297\n        /* \"#utility.yul\":7706:7707   */\n      0x00\n        /* \"#utility.yul\":7695:7704   */\n      dup4\n        /* \"#utility.yul\":7691:7708   */\n      add\n        /* \"#utility.yul\":7682:7688   */\n      dup5\n        /* \"#utility.yul\":7624:7709   */\n      tag_190\n      jump\t// in\n    tag_297:\n        /* \"#utility.yul\":7466:7716   */\n      swap3\n      swap2\n      pop\n      pop\n      jump\t// out\n        /* \"#utility.yul\":7722:7891   */\n    tag_191:\n        /* \"#utility.yul\":7806:7817   */\n      0x00\n        /* \"#utility.yul\":7840:7846   */\n      dup3\n        /* \"#utility.yul\":7835:7838   */\n      dup3\n        /* \"#utility.yul\":7828:7847   */\n      mstore\n        /* \"#utility.yul\":7880:7884   */\n      0x20\n        /* \"#utility.yul\":7875:7878   */\n      dup3\n        /* \"#utility.yul\":7871:7885   */\n      add\n        /* \"#utility.yul\":7856:7885   */\n      swap1\n      pop\n        /* \"#utility.yul\":7722:7891   */\n      swap3\n      swap2\n      pop\n      pop\n      jump\t// out\n        /* \"#utility.yul\":7897:8119   */\n    tag_192:\n        /* \"#utility.yul\":8037:8071   */\n      0x436f6d70757465526577617264733a204e6f207265776172647320746f20636c\n        /* \"#utility.yul\":8033:8034   */\n      0x00\n        /* \"#utility.yul\":8025:8031   */\n      dup3\n        /* \"#utility.yul\":8021:8035   */\n      add\n        /* \"#utility.yul\":8014:8072   */\n      mstore\n        /* \"#utility.yul\":8106:8111   */\n      0x61696d0000000000000000000000000000000000000000000000000000000000\n        /* \"#utility.yul\":8101:8103   */\n      0x20\n        /* \"#utility.yul\":8093:8099   */\n      dup3\n        /* \"#utility.yul\":8089:8104   */\n      add\n        /* \"#utility.yul\":8082:8112   */\n      mstore\n        /* \"#utility.yul\":7897:8119   */\n      pop\n      jump\t// out\n        /* \"#utility.yul\":8125:8491   */\n    tag_193:\n        /* \"#utility.yul\":8267:8270   */\n      0x00\n        /* \"#utility.yul\":8288:8355   */\n      tag_301\n        /* \"#utility.yul\":8352:8354   */\n      0x23\n        /* \"#utility.yul\":8347:8350   */\n      dup4\n        /* \"#utility.yul\":8288:8355   */\n      tag_191\n      jump\t// in\n    tag_301:\n        /* \"#utility.yul\":8281:8355   */\n      swap2\n      pop\n        /* \"#utility.yul\":8364:8457   */\n      tag_302\n        /* \"#utility.yul\":8453:8456   */\n      dup3\n        /* \"#utility.yul\":8364:8457   */\n      tag_192\n      jump\t// in\n    tag_302:\n        /* \"#utility.yul\":8482:8484   */\n      0x40\n        /* \"#utility.yul\":8477:8480   */\n      dup3\n        /* \"#utility.yul\":8473:8485   */\n      add\n        /* \"#utility.yul\":8466:8485   */\n      swap1\n      pop\n        /* \"#utility.yul\":8125:8491   */\n      swap2\n      swap1\n      pop\n      jump\t// out\n        /* \"#utility.yul\":8497:8916   */\n    tag_95:\n        /* \"#utility.yul\":8663:8667   */\n      0x00\n        /* \"#utility.yul\":8701:8703   */\n      0x20\n        /* \"#utility.yul\":8690:8699   */\n      dup3\n        /* \"#utility.yul\":8686:8704   */\n      add\n        /* \"#utility.yul\":8678:8704   */\n      swap1\n      pop\n        /* \"#utility.yul\":8750:8759   */\n      dup2\n        /* \"#utility.yul\":8744:8748   */\n      dup2\n        /* \"#utility.yul\":8740:8760   */\n      sub\n        /* \"#utility.yul\":8736:8737   */\n      0x00\n        /* \"#utility.yul\":8725:8734   */\n      dup4\n        /* \"#utility.yul\":8721:8738   */\n      add\n        /* \"#utility.yul\":8714:8761   */\n      mstore\n        /* \"#utility.yul\":8778:8909   */\n      tag_304\n        /* \"#utility.yul\":8904:8908   */\n      dup2\n        /* \"#utility.yul\":8778:8909   */\n      tag_193\n      jump\t// in\n    tag_304:\n        /* \"#utility.yul\":8770:8909   */\n      swap1\n      pop\n        /* \"#utility.yul\":8497:8916   */\n      swap2\n      swap1\n      pop\n      jump\t// out\n        /* \"#utility.yul\":8922:9040   */\n    tag_194:\n        /* \"#utility.yul\":9009:9033   */\n      tag_306\n        /* \"#utility.yul\":9027:9032   */\n      dup2\n        /* \"#utility.yul\":9009:9033   */\n      tag_172\n      jump\t// in\n    tag_306:\n        /* \"#utility.yul\":9004:9007   */\n      dup3\n        /* \"#utility.yul\":8997:9034   */\n      mstore\n        /* \"#utility.yul\":8922:9040   */\n      pop\n      pop\n      jump\t// out\n        /* \"#utility.yul\":9046:9378   */\n    tag_97:\n        /* \"#utility.yul\":9167:9171   */\n      0x00\n        /* \"#utility.yul\":9205:9207   */\n      0x40\n        /* \"#utility.yul\":9194:9203   */\n      dup3\n        /* \"#utility.yul\":9190:9208   */\n      add\n        /* \"#utility.yul\":9182:9208   */\n      swap1\n      pop\n        /* \"#utility.yul\":9218:9289   */\n      tag_308\n        /* \"#utility.yul\":9286:9287   */\n      0x00\n        /* \"#utility.yul\":9275:9284   */\n      dup4\n        /* \"#utility.yul\":9271:9288   */\n      add\n        /* \"#utility.yul\":9262:9268   */\n      dup6\n        /* \"#utility.yul\":9218:9289   */\n      tag_194\n      jump\t// in\n    tag_308:\n        /* \"#utility.yul\":9299:9371   */\n      tag_309\n        /* \"#utility.yul\":9367:9369   */\n      0x20\n        /* \"#utility.yul\":9356:9365   */\n      dup4\n        /* \"#utility.yul\":9352:9370   */\n      add\n        /* \"#utility.yul\":9343:9349   */\n      dup5\n        /* \"#utility.yul\":9299:9371   */\n      tag_176\n      jump\t// in\n    tag_309:\n        /* \"#utility.yul\":9046:9378   */\n      swap4\n      swap3\n      pop\n      pop\n      pop\n      jump\t// out\n        /* \"#utility.yul\":9384:9500   */\n    tag_195:\n        /* \"#utility.yul\":9454:9475   */\n      tag_311\n        /* \"#utility.yul\":9469:9474   */\n      dup2\n        /* \"#utility.yul\":9454:9475   */\n      tag_169\n      jump\t// in\n    tag_311:\n        /* \"#utility.yul\":9447:9452   */\n      dup2\n        /* \"#utility.yul\":9444:9476   */\n      eq\n        /* \"#utility.yul\":9434:9494   */\n      tag_312\n      jumpi\n        /* \"#utility.yul\":9490:9491   */\n      0x00\n        /* \"#utility.yul\":9487:9488   */\n      0x00\n        /* \"#utility.yul\":9480:9492   */\n      revert\n        /* \"#utility.yul\":9434:9494   */\n    tag_312:\n        /* \"#utility.yul\":9384:9500   */\n      pop\n      jump\t// out\n        /* \"#utility.yul\":9506:9643   */\n    tag_196:\n        /* \"#utility.yul\":9560:9565   */\n      0x00\n        /* \"#utility.yul\":9591:9597   */\n      dup2\n        /* \"#utility.yul\":9585:9598   */\n      mload\n        /* \"#utility.yul\":9576:9598   */\n      swap1\n      pop\n        /* \"#utility.yul\":9607:9637   */\n      tag_314\n        /* \"#utility.yul\":9631:9636   */\n      dup2\n        /* \"#utility.yul\":9607:9637   */\n      tag_195\n      jump\t// in\n    tag_314:\n        /* \"#utility.yul\":9506:9643   */\n      swap3\n      swap2\n      pop\n      pop\n      jump\t// out\n        /* \"#utility.yul\":9649:9994   */\n    tag_101:\n        /* \"#utility.yul\":9716:9722   */\n      0x00\n        /* \"#utility.yul\":9765:9767   */\n      0x20\n        /* \"#utility.yul\":9753:9762   */\n      dup3\n        /* \"#utility.yul\":9744:9751   */\n      dup5\n        /* \"#utility.yul\":9740:9763   */\n      sub\n        /* \"#utility.yul\":9736:9768   */\n      slt\n        /* \"#utility.yul\":9733:9852   */\n      iszero\n      tag_316\n      jumpi\n        /* \"#utility.yul\":9771:9850   */\n      tag_317\n      tag_164\n      jump\t// in\n    tag_317:\n        /* \"#utility.yul\":9733:9852   */\n    tag_316:\n        /* \"#utility.yul\":9891:9892   */\n      0x00\n        /* \"#utility.yul\":9916:9977   */\n      tag_318\n        /* \"#utility.yul\":9969:9976   */\n      dup5\n        /* \"#utility.yul\":9960:9966   */\n      dup3\n        /* \"#utility.yul\":9949:9958   */\n      dup6\n        /* \"#utility.yul\":9945:9967   */\n      add\n        /* \"#utility.yul\":9916:9977   */\n      tag_196\n      jump\t// in\n    tag_318:\n        /* \"#utility.yul\":9906:9977   */\n      swap2\n      pop\n        /* \"#utility.yul\":9862:9987   */\n      pop\n        /* \"#utility.yul\":9649:9994   */\n      swap3\n      swap2\n      pop\n      pop\n      jump\t// out\n        /* \"#utility.yul\":10000:10224   */\n    tag_197:\n        /* \"#utility.yul\":10140:10174   */\n      0x436f6d70757465526577617264733a20546f6b656e207472616e736665722066\n        /* \"#utility.yul\":10136:10137   */\n      0x00\n        /* \"#utility.yul\":10128:10134   */\n      dup3\n        /* \"#utility.yul\":10124:10138   */\n      add\n        /* \"#utility.yul\":10117:10175   */\n      mstore\n        /* \"#utility.yul\":10209:10216   */\n      0x61696c6564000000000000000000000000000000000000000000000000000000\n        /* \"#utility.yul\":10204:10206   */\n      0x20\n        /* \"#utility.yul\":10196:10202   */\n      dup3\n        /* \"#utility.yul\":10192:10207   */\n      add\n        /* \"#utility.yul\":10185:10217   */\n      mstore\n        /* \"#utility.yul\":10000:10224   */\n      pop\n      jump\t// out\n        /* \"#utility.yul\":10230:10596   */\n    tag_198:\n        /* \"#utility.yul\":10372:10375   */\n      0x00\n        /* \"#utility.yul\":10393:10460   */\n      tag_321\n        /* \"#utility.yul\":10457:10459   */\n      0x25\n        /* \"#utility.yul\":10452:10455   */\n      dup4\n        /* \"#utility.yul\":10393:10460   */\n      tag_191\n      jump\t// in\n    tag_321:\n        /* \"#utility.yul\":10386:10460   */\n      swap2\n      pop\n        /* \"#utility.yul\":10469:10562   */\n      tag_322\n        /* \"#utility.yul\":10558:10561   */\n      dup3\n        /* \"#utility.yul\":10469:10562   */\n      tag_197\n      jump\t// in\n    tag_322:\n        /* \"#utility.yul\":10587:10589   */\n      0x40\n        /* \"#utility.yul\":10582:10585   */\n      dup3\n        /* \"#utility.yul\":10578:10590   */\n      add\n        /* \"#utility.yul\":10571:10590   */\n      swap1\n      pop\n        /* \"#utility.yul\":10230:10596   */\n      swap2\n      swap1\n      pop\n      jump\t// out\n        /* \"#utility.yul\":10602:11021   */\n    tag_104:\n        /* \"#utility.yul\":10768:10772   */\n      0x00\n        /* \"#utility.yul\":10806:10808   */\n      0x20\n        /* \"#utility.yul\":10795:10804   */\n      dup3\n        /* \"#utility.yul\":10791:10809   */\n      add\n        /* \"#utility.yul\":10783:10809   */\n      swap1\n      pop\n        /* \"#utility.yul\":10855:10864   */\n      dup2\n        /* \"#utility.yul\":10849:10853   */\n      dup2\n        /* \"#utility.yul\":10845:10865   */\n      sub\n        /* \"#utility.yul\":10841:10842   */\n      0x00\n        /* \"#utility.yul\":10830:10839   */\n      dup4\n        /* \"#utility.yul\":10826:10843   */\n      add\n        /* \"#utility.yul\":10819:10866   */\n      mstore\n        /* \"#utility.yul\":10883:11014   */\n      tag_324\n        /* \"#utility.yul\":11009:11013   */\n      dup2\n        /* \"#utility.yul\":10883:11014   */\n      tag_198\n      jump\t// in\n    tag_324:\n        /* \"#utility.yul\":10875:11014   */\n      swap1\n      pop\n        /* \"#utility.yul\":10602:11021   */\n      swap2\n      swap1\n      pop\n      jump\t// out\n        /* \"#utility.yul\":11027:11257   */\n    tag_199:\n        /* \"#utility.yul\":11167:11201   */\n      0x436f6d70757465526577617264733a20496e707574206172726179206c656e67\n        /* \"#utility.yul\":11163:11164   */\n      0x00\n        /* \"#utility.yul\":11155:11161   */\n      dup3\n        /* \"#utility.yul\":11151:11165   */\n      add\n        /* \"#utility.yul\":11144:11202   */\n      mstore\n        /* \"#utility.yul\":11236:11249   */\n      0x7468206d69736d61746368000000000000000000000000000000000000000000\n        /* \"#utility.yul\":11231:11233   */\n      0x20\n        /* \"#utility.yul\":11223:11229   */\n      dup3\n        /* \"#utility.yul\":11219:11234   */\n      add\n        /* \"#utility.yul\":11212:11250   */\n      mstore\n        /* \"#utility.yul\":11027:11257   */\n      pop\n      jump\t// out\n        /* \"#utility.yul\":11263:11629   */\n    tag_200:\n        /* \"#utility.yul\":11405:11408   */\n      0x00\n        /* \"#utility.yul\":11426:11493   */\n      tag_327\n        /* \"#utility.yul\":11490:11492   */\n      0x2b\n        /* \"#utility.yul\":11485:11488   */\n      dup4\n        /* \"#utility.yul\":11426:11493   */\n      tag_191\n      jump\t// in\n    tag_327:\n        /* \"#utility.yul\":11419:11493   */\n      swap2\n      pop\n        /* \"#utility.yul\":11502:11595   */\n      tag_328\n        /* \"#utility.yul\":11591:11594   */\n      dup3\n        /* \"#utility.yul\":11502:11595   */\n      tag_199\n      jump\t// in\n    tag_328:\n        /* \"#utility.yul\":11620:11622   */\n      0x40\n        /* \"#utility.yul\":11615:11618   */\n      dup3\n        /* \"#utility.yul\":11611:11623   */\n      add\n        /* \"#utility.yul\":11604:11623   */\n      swap1\n      pop\n        /* \"#utility.yul\":11263:11629   */\n      swap2\n      swap1\n      pop\n      jump\t// out\n        /* \"#utility.yul\":11635:12054   */\n    tag_113:\n        /* \"#utility.yul\":11801:11805   */\n      0x00\n        /* \"#utility.yul\":11839:11841   */\n      0x20\n        /* \"#utility.yul\":11828:11837   */\n      dup3\n        /* \"#utility.yul\":11824:11842   */\n      add\n        /* \"#utility.yul\":11816:11842   */\n      swap1\n      pop\n        /* \"#utility.yul\":11888:11897   */\n      dup2\n        /* \"#utility.yul\":11882:11886   */\n      dup2\n        /* \"#utility.yul\":11878:11898   */\n      sub\n        /* \"#utility.yul\":11874:11875   */\n      0x00\n        /* \"#utility.yul\":11863:11872   */\n      dup4\n        /* \"#utility.yul\":11859:11876   */\n      add\n        /* \"#utility.yul\":11852:11899   */\n      mstore\n        /* \"#utility.yul\":11916:12047   */\n      tag_330\n        /* \"#utility.yul\":12042:12046   */\n      dup2\n        /* \"#utility.yul\":11916:12047   */\n      tag_200\n      jump\t// in\n    tag_330:\n        /* \"#utility.yul\":11908:12047   */\n      swap1\n      pop\n        /* \"#utility.yul\":11635:12054   */\n      swap2\n      swap1\n      pop\n      jump\t// out\n        /* \"#utility.yul\":12060:12240   */\n    tag_119:\n        /* \"#utility.yul\":12108:12185   */\n      0x4e487b7100000000000000000000000000000000000000000000000000000000\n        /* \"#utility.yul\":12105:12106   */\n      0x00\n        /* \"#utility.yul\":12098:12186   */\n      mstore\n        /* \"#utility.yul\":12205:12209   */\n      0x32\n        /* \"#utility.yul\":12202:12203   */\n      0x04\n        /* \"#utility.yul\":12195:12210   */\n      mstore\n        /* \"#utility.yul\":12229:12233   */\n      0x24\n        /* \"#utility.yul\":12226:12227   */\n      0x00\n        /* \"#utility.yul\":12219:12234   */\n      revert\n        /* \"#utility.yul\":12246:12426   */\n    tag_201:\n        /* \"#utility.yul\":12294:12371   */\n      0x4e487b7100000000000000000000000000000000000000000000000000000000\n        /* \"#utility.yul\":12291:12292   */\n      0x00\n        /* \"#utility.yul\":12284:12372   */\n      mstore\n        /* \"#utility.yul\":12391:12395   */\n      0x11\n        /* \"#utility.yul\":12388:12389   */\n      0x04\n        /* \"#utility.yul\":12381:12396   */\n      mstore\n        /* \"#utility.yul\":12415:12419   */\n      0x24\n        /* \"#utility.yul\":12412:12413   */\n      0x00\n        /* \"#utility.yul\":12405:12420   */\n      revert\n        /* \"#utility.yul\":12432:12623   */\n    tag_124:\n        /* \"#utility.yul\":12472:12475   */\n      0x00\n        /* \"#utility.yul\":12491:12511   */\n      tag_334\n        /* \"#utility.yul\":12509:12510   */\n      dup3\n        /* \"#utility.yul\":12491:12511   */\n      tag_175\n      jump\t// in\n    tag_334:\n        /* \"#utility.yul\":12486:12511   */\n      swap2\n      pop\n        /* \"#utility.yul\":12525:12545   */\n      tag_335\n        /* \"#utility.yul\":12543:12544   */\n      dup4\n        /* \"#utility.yul\":12525:12545   */\n      tag_175\n      jump\t// in\n    tag_335:\n        /* \"#utility.yul\":12520:12545   */\n      swap3\n      pop\n        /* \"#utility.yul\":12568:12569   */\n      dup3\n        /* \"#utility.yul\":12565:12566   */\n      dup3\n        /* \"#utility.yul\":12561:12570   */\n      add\n        /* \"#utility.yul\":12554:12570   */\n      swap1\n      pop\n        /* \"#utility.yul\":12589:12592   */\n      dup1\n        /* \"#utility.yul\":12586:12587   */\n      dup3\n        /* \"#utility.yul\":12583:12593   */\n      gt\n        /* \"#utility.yul\":12580:12616   */\n      iszero\n      tag_336\n      jumpi\n        /* \"#utility.yul\":12596:12614   */\n      tag_337\n      tag_201\n      jump\t// in\n    tag_337:\n        /* \"#utility.yul\":12580:12616   */\n    tag_336:\n        /* \"#utility.yul\":12432:12623   */\n      swap3\n      swap2\n      pop\n      pop\n      jump\t// out\n        /* \"#utility.yul\":12629:12810   */\n    tag_202:\n        /* \"#utility.yul\":12769:12802   */\n      0x5265656e7472616e637947756172643a207265656e7472616e742063616c6c00\n        /* \"#utility.yul\":12765:12766   */\n      0x00\n        /* \"#utility.yul\":12757:12763   */\n      dup3\n        /* \"#utility.yul\":12753:12767   */\n      add\n        /* \"#utility.yul\":12746:12803   */\n      mstore\n        /* \"#utility.yul\":12629:12810   */\n      pop\n      jump\t// out\n        /* \"#utility.yul\":12816:13182   */\n    tag_203:\n        /* \"#utility.yul\":12958:12961   */\n      0x00\n        /* \"#utility.yul\":12979:13046   */\n      tag_340\n        /* \"#utility.yul\":13043:13045   */\n      0x1f\n        /* \"#utility.yul\":13038:13041   */\n      dup4\n        /* \"#utility.yul\":12979:13046   */\n      tag_191\n      jump\t// in\n    tag_340:\n        /* \"#utility.yul\":12972:13046   */\n      swap2\n      pop\n        /* \"#utility.yul\":13055:13148   */\n      tag_341\n        /* \"#utility.yul\":13144:13147   */\n      dup3\n        /* \"#utility.yul\":13055:13148   */\n      tag_202\n      jump\t// in\n    tag_341:\n        /* \"#utility.yul\":13173:13175   */\n      0x20\n        /* \"#utility.yul\":13168:13171   */\n      dup3\n        /* \"#utility.yul\":13164:13176   */\n      add\n        /* \"#utility.yul\":13157:13176   */\n      swap1\n      pop\n        /* \"#utility.yul\":12816:13182   */\n      swap2\n      swap1\n      pop\n      jump\t// out\n        /* \"#utility.yul\":13188:13607   */\n    tag_156:\n        /* \"#utility.yul\":13354:13358   */\n      0x00\n        /* \"#utility.yul\":13392:13394   */\n      0x20\n        /* \"#utility.yul\":13381:13390   */\n      dup3\n        /* \"#utility.yul\":13377:13395   */\n      add\n        /* \"#utility.yul\":13369:13395   */\n      swap1\n      pop\n        /* \"#utility.yul\":13441:13450   */\n      dup2\n        /* \"#utility.yul\":13435:13439   */\n      dup2\n        /* \"#utility.yul\":13431:13451   */\n      sub\n        /* \"#utility.yul\":13427:13428   */\n      0x00\n        /* \"#utility.yul\":13416:13425   */\n      dup4\n        /* \"#utility.yul\":13412:13429   */\n      add\n        /* \"#utility.yul\":13405:13452   */\n      mstore\n        /* \"#utility.yul\":13469:13600   */\n      tag_343\n        /* \"#utility.yul\":13595:13599   */\n      dup2\n        /* \"#utility.yul\":13469:13600   */\n      tag_203\n      jump\t// in\n    tag_343:\n        /* \"#utility.yul\":13461:13600   */\n      swap1\n      pop\n        /* \"#utility.yul\":13188:13607   */\n      swap2\n      swap1\n      pop\n      jump\t// out\n        /* \"#utility.yul\":13613:13945   */\n    tag_162:\n        /* \"#utility.yul\":13734:13738   */\n      0x00\n        /* \"#utility.yul\":13772:13774   */\n      0x40\n        /* \"#utility.yul\":13761:13770   */\n      dup3\n        /* \"#utility.yul\":13757:13775   */\n      add\n        /* \"#utility.yul\":13749:13775   */\n      swap1\n      pop\n        /* \"#utility.yul\":13785:13856   */\n      tag_345\n        /* \"#utility.yul\":13853:13854   */\n      0x00\n        /* \"#utility.yul\":13842:13851   */\n      dup4\n        /* \"#utility.yul\":13838:13855   */\n      add\n        /* \"#utility.yul\":13829:13835   */\n      dup6\n        /* \"#utility.yul\":13785:13856   */\n      tag_194\n      jump\t// in\n    tag_345:\n        /* \"#utility.yul\":13866:13938   */\n      tag_346\n        /* \"#utility.yul\":13934:13936   */\n      0x20\n        /* \"#utility.yul\":13923:13932   */\n      dup4\n        /* \"#utility.yul\":13919:13937   */\n      add\n        /* \"#utility.yul\":13910:13916   */\n      dup5\n        /* \"#utility.yul\":13866:13938   */\n      tag_178\n      jump\t// in\n    tag_346:\n        /* \"#utility.yul\":13613:13945   */\n      swap4\n      swap3\n      pop\n      pop\n      pop\n      jump\t// out\n\n    auxdata: 0xa2646970667358221220b8b842027f78ad89ae9e4a02fef229f1fda4b8982435982c67120fc5dc278be364736f6c634300081e0033\n}\n",
				"bytecode": {
					"linkReferences": {},
					"object": "60a060405234801561000f575f5ffd5b506040516115dd3803806115dd83398181016040528101906100319190610273565b600180819055508073ffffffffffffffffffffffffffffffffffffffff1660808173ffffffffffffffffffffffffffffffffffffffff168152505061007e5f5f1b336100b660201b60201c565b506100af7f68e79a7bf1e0bc45d0a330c573bc367f9cf464fd326078812f301165fbda4ef1336100b660201b60201c565b505061029e565b5f6100c783836101ab60201b60201c565b6101a15760015f5f8581526020019081526020015f205f015f8473ffffffffffffffffffffffffffffffffffffffff1673ffffffffffffffffffffffffffffffffffffffff1681526020019081526020015f205f6101000a81548160ff02191690831515021790555061013e61020e60201b60201c565b73ffffffffffffffffffffffffffffffffffffffff168273ffffffffffffffffffffffffffffffffffffffff16847f2f8788117e7eff1d82e926ec794901d17c78024a50270940304540a733656f0d60405160405180910390a4600190506101a5565b5f90505b92915050565b5f5f5f8481526020019081526020015f205f015f8373ffffffffffffffffffffffffffffffffffffffff1673ffffffffffffffffffffffffffffffffffffffff1681526020019081526020015f205f9054906101000a900460ff16905092915050565b5f33905090565b5f5ffd5b5f73ffffffffffffffffffffffffffffffffffffffff82169050919050565b5f61024282610219565b9050919050565b61025281610238565b811461025c575f5ffd5b50565b5f8151905061026d81610249565b92915050565b5f6020828403121561028857610287610215565b5b5f6102958482850161025f565b91505092915050565b6080516113206102bd5f395f8181610538015261084501526113205ff3fe608060405234801561000f575f5ffd5b50600436106100cd575f3560e01c806391d148541161008a578063bf83f51f11610064578063bf83f51f1461020f578063d547741f1461022b578063f7c618c114610247578063f854a27f14610265576100cd565b806391d14854146101b7578063a217fddf146101e7578063b88a802f14610205576100cd565b806301ffc9a7146100d15780630700037d1461010157806307e2cea514610131578063248a9ca31461014f5780632f2ff15d1461017f57806336568abe1461019b575b5f5ffd5b6100eb60048036038101906100e69190610c09565b610295565b6040516100f89190610c4e565b60405180910390f35b61011b60048036038101906101169190610cc1565b61030e565b6040516101289190610d04565b60405180910390f35b610139610323565b6040516101469190610d35565b60405180910390f35b61016960048036038101906101649190610d78565b610347565b6040516101769190610d35565b60405180910390f35b61019960048036038101906101949190610da3565b610363565b005b6101b560048036038101906101b09190610da3565b610385565b005b6101d160048036038101906101cc9190610da3565b610400565b6040516101de9190610c4e565b60405180910390f35b6101ef610463565b6040516101fc9190610d35565b60405180910390f35b61020d610469565b005b61022960048036038101906102249190610e97565b610669565b005b61024560048036038101906102409190610da3565b610821565b005b61024f610843565b60405161025c9190610f70565b60405180910390f35b61027f600480360381019061027a9190610cc1565b610867565b60405161028c9190610d04565b60405180910390f35b5f7f7965db0b000000000000000000000000000000000000000000000000000000007bffffffffffffffffffffffffffffffffffffffffffffffffffffffff1916827bffffffffffffffffffffffffffffffffffffffffffffffffffffffff191614806103075750610306826108ad565b5b9050919050565b6002602052805f5260405f205f915090505481565b7f68e79a7bf1e0bc45d0a330c573bc367f9cf464fd326078812f301165fbda4ef181565b5f5f5f8381526020019081526020015f20600101549050919050565b61036c82610347565b61037581610916565b61037f838361092a565b50505050565b61038d610a13565b73ffffffffffffffffffffffffffffffffffffffff168173ffffffffffffffffffffffffffffffffffffffff16146103f1576040517f6697b23200000000000000000000000000000000000000000000000000000000815260040160405180910390fd5b6103fb8282610a1a565b505050565b5f5f5f8481526020019081526020015f205f015f8373ffffffffffffffffffffffffffffffffffffffff1673ffffffffffffffffffffffffffffffffffffffff1681526020019081526020015f205f9054906101000a900460ff16905092915050565b5f5f1b81565b610471610b03565b5f60025f3373ffffffffffffffffffffffffffffffffffffffff1673ffffffffffffffffffffffffffffffffffffffff1681526020019081526020015f205490505f81116104f4576040517f08c379a00000000000000000000000000000000000000000000000000000000081526004016104eb90611009565b60405180910390fd5b5f60025f3373ffffffffffffffffffffffffffffffffffffffff1673ffffffffffffffffffffffffffffffffffffffff1681526020019081526020015f20819055507f000000000000000000000000000000000000000000000000000000000000000073ffffffffffffffffffffffffffffffffffffffff1663a9059cbb33836040518363ffffffff1660e01b8152600401610591929190611036565b6020604051808303815f875af11580156105ad573d5f5f3e3d5ffd5b505050506040513d601f19601f820116820180604052508101906105d19190611087565b610610576040517f08c379a000000000000000000000000000000000000000000000000000000000815260040161060790611122565b60405180910390fd5b3373ffffffffffffffffffffffffffffffffffffffff167f106f923f993c2149d49b4255ff723acafa1f2d94393f561d3eda32ae348f7241826040516106569190610d04565b60405180910390a250610667610b52565b565b7f68e79a7bf1e0bc45d0a330c573bc367f9cf464fd326078812f301165fbda4ef161069381610916565b8282905085859050146106db576040517f08c379a00000000000000000000000000000000000000000000000000000000081526004016106d2906111b0565b60405180910390fd5b5f5f90505b85859050811015610819578383828181106106fe576106fd6111ce565b5b9050602002013560025f88888581811061071b5761071a6111ce565b5b90506020020160208101906107309190610cc1565b73ffffffffffffffffffffffffffffffffffffffff1673ffffffffffffffffffffffffffffffffffffffff1681526020019081526020015f205f8282546107779190611228565b92505081905550858582818110610791576107906111ce565b5b90506020020160208101906107a69190610cc1565b73ffffffffffffffffffffffffffffffffffffffff167f560ef4f9524af91c8f006852a8707c3f256c238779f8cc088bbe202bb82e632e8585848181106107f0576107ef6111ce565b5b905060200201356040516108049190610d04565b60405180910390a280806001019150506106e0565b505050505050565b61082a82610347565b61083381610916565b61083d8383610a1a565b50505050565b7f000000000000000000000000000000000000000000000000000000000000000081565b5f60025f8373ffffffffffffffffffffffffffffffffffffffff1673ffffffffffffffffffffffffffffffffffffffff1681526020019081526020015f20549050919050565b5f7f01ffc9a7000000000000000000000000000000000000000000000000000000007bffffffffffffffffffffffffffffffffffffffffffffffffffffffff1916827bffffffffffffffffffffffffffffffffffffffffffffffffffffffff1916149050919050565b61092781610922610a13565b610b5b565b50565b5f6109358383610400565b610a095760015f5f8581526020019081526020015f205f015f8473ffffffffffffffffffffffffffffffffffffffff1673ffffffffffffffffffffffffffffffffffffffff1681526020019081526020015f205f6101000a81548160ff0219169083151502179055506109a6610a13565b73ffffffffffffffffffffffffffffffffffffffff168273ffffffffffffffffffffffffffffffffffffffff16847f2f8788117e7eff1d82e926ec794901d17c78024a50270940304540a733656f0d60405160405180910390a460019050610a0d565b5f90505b92915050565b5f33905090565b5f610a258383610400565b15610af9575f5f5f8581526020019081526020015f205f015f8473ffffffffffffffffffffffffffffffffffffffff1673ffffffffffffffffffffffffffffffffffffffff1681526020019081526020015f205f6101000a81548160ff021916908315150217905550610a96610a13565b73ffffffffffffffffffffffffffffffffffffffff168273ffffffffffffffffffffffffffffffffffffffff16847ff6391f5c32d9c69d2a47ea670b442974b53935d1edc7fd64eb21e047a839171b60405160405180910390a460019050610afd565b5f90505b92915050565b600260015403610b48576040517f08c379a0000000000000000000000000000000000000000000000000000000008152600401610b3f906112a5565b60405180910390fd5b6002600181905550565b60018081905550565b610b658282610400565b610ba85780826040517fe2517d3f000000000000000000000000000000000000000000000000000000008152600401610b9f9291906112c3565b60405180910390fd5b5050565b5f5ffd5b5f5ffd5b5f7fffffffff0000000000000000000000000000000000000000000000000000000082169050919050565b610be881610bb4565b8114610bf2575f5ffd5b50565b5f81359050610c0381610bdf565b92915050565b5f60208284031215610c1e57610c1d610bac565b5b5f610c2b84828501610bf5565b91505092915050565b5f8115159050919050565b610c4881610c34565b82525050565b5f602082019050610c615f830184610c3f565b92915050565b5f73ffffffffffffffffffffffffffffffffffffffff82169050919050565b5f610c9082610c67565b9050919050565b610ca081610c86565b8114610caa575f5ffd5b50565b5f81359050610cbb81610c97565b92915050565b5f60208284031215610cd657610cd5610bac565b5b5f610ce384828501610cad565b91505092915050565b5f819050919050565b610cfe81610cec565b82525050565b5f602082019050610d175f830184610cf5565b92915050565b5f819050919050565b610d2f81610d1d565b82525050565b5f602082019050610d485f830184610d26565b92915050565b610d5781610d1d565b8114610d61575f5ffd5b50565b5f81359050610d7281610d4e565b92915050565b5f60208284031215610d8d57610d8c610bac565b5b5f610d9a84828501610d64565b91505092915050565b5f5f60408385031215610db957610db8610bac565b5b5f610dc685828601610d64565b9250506020610dd785828601610cad565b9150509250929050565b5f5ffd5b5f5ffd5b5f5ffd5b5f5f83601f840112610e0257610e01610de1565b5b8235905067ffffffffffffffff811115610e1f57610e1e610de5565b5b602083019150836020820283011115610e3b57610e3a610de9565b5b9250929050565b5f5f83601f840112610e5757610e56610de1565b5b8235905067ffffffffffffffff811115610e7457610e73610de5565b5b602083019150836020820283011115610e9057610e8f610de9565b5b9250929050565b5f5f5f5f60408587031215610eaf57610eae610bac565b5b5f85013567ffffffffffffffff811115610ecc57610ecb610bb0565b5b610ed887828801610ded565b9450945050602085013567ffffffffffffffff811115610efb57610efa610bb0565b5b610f0787828801610e42565b925092505092959194509250565b5f819050919050565b5f610f38610f33610f2e84610c67565b610f15565b610c67565b9050919050565b5f610f4982610f1e565b9050919050565b5f610f5a82610f3f565b9050919050565b610f6a81610f50565b82525050565b5f602082019050610f835f830184610f61565b92915050565b5f82825260208201905092915050565b7f436f6d70757465526577617264733a204e6f207265776172647320746f20636c5f8201527f61696d0000000000000000000000000000000000000000000000000000000000602082015250565b5f610ff3602383610f89565b9150610ffe82610f99565b604082019050919050565b5f6020820190508181035f83015261102081610fe7565b9050919050565b61103081610c86565b82525050565b5f6040820190506110495f830185611027565b6110566020830184610cf5565b9392505050565b61106681610c34565b8114611070575f5ffd5b50565b5f815190506110818161105d565b92915050565b5f6020828403121561109c5761109b610bac565b5b5f6110a984828501611073565b91505092915050565b7f436f6d70757465526577617264733a20546f6b656e207472616e7366657220665f8201527f61696c6564000000000000000000000000000000000000000000000000000000602082015250565b5f61110c602583610f89565b9150611117826110b2565b604082019050919050565b5f6020820190508181035f83015261113981611100565b9050919050565b7f436f6d70757465526577617264733a20496e707574206172726179206c656e675f8201527f7468206d69736d61746368000000000000000000000000000000000000000000602082015250565b5f61119a602b83610f89565b91506111a582611140565b604082019050919050565b5f6020820190508181035f8301526111c78161118e565b9050919050565b7f4e487b71000000000000000000000000000000000000000000000000000000005f52603260045260245ffd5b7f4e487b71000000000000000000000000000000000000000000000000000000005f52601160045260245ffd5b5f61123282610cec565b915061123d83610cec565b9250828201905080821115611255576112546111fb565b5b92915050565b7f5265656e7472616e637947756172643a207265656e7472616e742063616c6c005f82015250565b5f61128f601f83610f89565b915061129a8261125b565b602082019050919050565b5f6020820190508181035f8301526112bc81611283565b9050919050565b5f6040820190506112d65f830185611027565b6112e36020830184610d26565b939250505056fea2646970667358221220b8b842027f78ad89ae9e4a02fef229f1fda4b8982435982c67120fc5dc278be364736f6c634300081e0033",
					"opcodes": "PUSH1 0xA0 PUSH1 0x40 MSTORE CALLVALUE DUP1 ISZERO PUSH2 0xF JUMPI PUSH0 PUSH0 REVERT JUMPDEST POP PUSH1 0x40 MLOAD PUSH2 0x15DD CODESIZE SUB DUP1 PUSH2 0x15DD DUP4 CODECOPY DUP2 DUP2 ADD PUSH1 0x40 MSTORE DUP2 ADD SWAP1 PUSH2 0x31 SWAP2 SWAP1 PUSH2 0x273 JUMP JUMPDEST PUSH1 0x1 DUP1 DUP2 SWAP1 SSTORE POP DUP1 PUSH20 0xFFFFFFFFFFFFFFFFFFFFFFFFFFFFFFFFFFFFFFFF AND PUSH1 0x80 DUP2 PUSH20 0xFFFFFFFFFFFFFFFFFFFFFFFFFFFFFFFFFFFFFFFF AND DUP2 MSTORE POP POP PUSH2 0x7E PUSH0 PUSH0 SHL CALLER PUSH2 0xB6 PUSH1 0x20 SHL PUSH1 0x20 SHR JUMP JUMPDEST POP PUSH2 0xAF PUSH32 0x68E79A7BF1E0BC45D0A330C573BC367F9CF464FD326078812F301165FBDA4EF1 CALLER PUSH2 0xB6 PUSH1 0x20 SHL PUSH1 0x20 SHR JUMP JUMPDEST POP POP PUSH2 0x29E JUMP JUMPDEST PUSH0 PUSH2 0xC7 DUP4 DUP4 PUSH2 0x1AB PUSH1 0x20 SHL PUSH1 0x20 SHR JUMP JUMPDEST PUSH2 0x1A1 JUMPI PUSH1 0x1 PUSH0 PUSH0 DUP6 DUP2 MSTORE PUSH1 0x20 ADD SWAP1 DUP2 MSTORE PUSH1 0x20 ADD PUSH0 KECCAK256 PUSH0 ADD PUSH0 DUP5 PUSH20 0xFFFFFFFFFFFFFFFFFFFFFFFFFFFFFFFFFFFFFFFF AND PUSH20 0xFFFFFFFFFFFFFFFFFFFFFFFFFFFFFFFFFFFFFFFF AND DUP2 MSTORE PUSH1 0x20 ADD SWAP1 DUP2 MSTORE PUSH1 0x20 ADD PUSH0 KECCAK256 PUSH0 PUSH2 0x100 EXP DUP2 SLOAD DUP2 PUSH1 0xFF MUL NOT AND SWAP1 DUP4 ISZERO ISZERO MUL OR SWAP1 SSTORE POP PUSH2 0x13E PUSH2 0x20E PUSH1 0x20 SHL PUSH1 0x20 SHR JUMP JUMPDEST PUSH20 0xFFFFFFFFFFFFFFFFFFFFFFFFFFFFFFFFFFFFFFFF AND DUP3 PUSH20 0xFFFFFFFFFFFFFFFFFFFFFFFFFFFFFFFFFFFFFFFF AND DUP5 PUSH32 0x2F8788117E7EFF1D82E926EC794901D17C78024A50270940304540A733656F0D PUSH1 0x40 MLOAD PUSH1 0x40 MLOAD DUP1 SWAP2 SUB SWAP1 LOG4 PUSH1 0x1 SWAP1 POP PUSH2 0x1A5 JUMP JUMPDEST PUSH0 SWAP1 POP JUMPDEST SWAP3 SWAP2 POP POP JUMP JUMPDEST PUSH0 PUSH0 PUSH0 DUP5 DUP2 MSTORE PUSH1 0x20 ADD SWAP1 DUP2 MSTORE PUSH1 0x20 ADD PUSH0 KECCAK256 PUSH0 ADD PUSH0 DUP4 PUSH20 0xFFFFFFFFFFFFFFFFFFFFFFFFFFFFFFFFFFFFFFFF AND PUSH20 0xFFFFFFFFFFFFFFFFFFFFFFFFFFFFFFFFFFFFFFFF AND DUP2 MSTORE PUSH1 0x20 ADD SWAP1 DUP2 MSTORE PUSH1 0x20 ADD PUSH0 KECCAK256 PUSH0 SWAP1 SLOAD SWAP1 PUSH2 0x100 EXP SWAP1 DIV PUSH1 0xFF AND SWAP1 POP SWAP3 SWAP2 POP POP JUMP JUMPDEST PUSH0 CALLER SWAP1 POP SWAP1 JUMP JUMPDEST PUSH0 PUSH0 REVERT JUMPDEST PUSH0 PUSH20 0xFFFFFFFFFFFFFFFFFFFFFFFFFFFFFFFFFFFFFFFF DUP3 AND SWAP1 POP SWAP2 SWAP1 POP JUMP JUMPDEST PUSH0 PUSH2 0x242 DUP3 PUSH2 0x219 JUMP JUMPDEST SWAP1 POP SWAP2 SWAP1 POP JUMP JUMPDEST PUSH2 0x252 DUP2 PUSH2 0x238 JUMP JUMPDEST DUP2 EQ PUSH2 0x25C JUMPI PUSH0 PUSH0 REVERT JUMPDEST POP JUMP JUMPDEST PUSH0 DUP2 MLOAD SWAP1 POP PUSH2 0x26D DUP2 PUSH2 0x249 JUMP JUMPDEST SWAP3 SWAP2 POP POP JUMP JUMPDEST PUSH0 PUSH1 0x20 DUP3 DUP5 SUB SLT ISZERO PUSH2 0x288 JUMPI PUSH2 0x287 PUSH2 0x215 JUMP JUMPDEST JUMPDEST PUSH0 PUSH2 0x295 DUP5 DUP3 DUP6 ADD PUSH2 0x25F JUMP JUMPDEST SWAP2 POP POP SWAP3 SWAP2 POP POP JUMP JUMPDEST PUSH1 0x80 MLOAD PUSH2 0x1320 PUSH2 0x2BD PUSH0 CODECOPY PUSH0 DUP2 DUP2 PUSH2 0x538 ADD MSTORE PUSH2 0x845 ADD MSTORE PUSH2 0x1320 PUSH0 RETURN INVALID PUSH1 0x80 PUSH1 0x40 MSTORE CALLVALUE DUP1 ISZERO PUSH2 0xF JUMPI PUSH0 PUSH0 REVERT JUMPDEST POP PUSH1 0x4 CALLDATASIZE LT PUSH2 0xCD JUMPI PUSH0 CALLDATALOAD PUSH1 0xE0 SHR DUP1 PUSH4 0x91D14854 GT PUSH2 0x8A JUMPI DUP1 PUSH4 0xBF83F51F GT PUSH2 0x64 JUMPI DUP1 PUSH4 0xBF83F51F EQ PUSH2 0x20F JUMPI DUP1 PUSH4 0xD547741F EQ PUSH2 0x22B JUMPI DUP1 PUSH4 0xF7C618C1 EQ PUSH2 0x247 JUMPI DUP1 PUSH4 0xF854A27F EQ PUSH2 0x265 JUMPI PUSH2 0xCD JUMP JUMPDEST DUP1 PUSH4 0x91D14854 EQ PUSH2 0x1B7 JUMPI DUP1 PUSH4 0xA217FDDF EQ PUSH2 0x1E7 JUMPI DUP1 PUSH4 0xB88A802F EQ PUSH2 0x205 JUMPI PUSH2 0xCD JUMP JUMPDEST DUP1 PUSH4 0x1FFC9A7 EQ PUSH2 0xD1 JUMPI DUP1 PUSH4 0x700037D EQ PUSH2 0x101 JUMPI DUP1 PUSH4 0x7E2CEA5 EQ PUSH2 0x131 JUMPI DUP1 PUSH4 0x248A9CA3 EQ PUSH2 0x14F JUMPI DUP1 PUSH4 0x2F2FF15D EQ PUSH2 0x17F JUMPI DUP1 PUSH4 0x36568ABE EQ PUSH2 0x19B JUMPI JUMPDEST PUSH0 PUSH0 REVERT JUMPDEST PUSH2 0xEB PUSH1 0x4 DUP1 CALLDATASIZE SUB DUP2 ADD SWAP1 PUSH2 0xE6 SWAP2 SWAP1 PUSH2 0xC09 JUMP JUMPDEST PUSH2 0x295 JUMP JUMPDEST PUSH1 0x40 MLOAD PUSH2 0xF8 SWAP2 SWAP1 PUSH2 0xC4E JUMP JUMPDEST PUSH1 0x40 MLOAD DUP1 SWAP2 SUB SWAP1 RETURN JUMPDEST PUSH2 0x11B PUSH1 0x4 DUP1 CALLDATASIZE SUB DUP2 ADD SWAP1 PUSH2 0x116 SWAP2 SWAP1 PUSH2 0xCC1 JUMP JUMPDEST PUSH2 0x30E JUMP JUMPDEST PUSH1 0x40 MLOAD PUSH2 0x128 SWAP2 SWAP1 PUSH2 0xD04 JUMP JUMPDEST PUSH1 0x40 MLOAD DUP1 SWAP2 SUB SWAP1 RETURN JUMPDEST PUSH2 0x139 PUSH2 0x323 JUMP JUMPDEST PUSH1 0x40 MLOAD PUSH2 0x146 SWAP2 SWAP1 PUSH2 0xD35 JUMP JUMPDEST PUSH1 0x40 MLOAD DUP1 SWAP2 SUB SWAP1 RETURN JUMPDEST PUSH2 0x169 PUSH1 0x4 DUP1 CALLDATASIZE SUB DUP2 ADD SWAP1 PUSH2 0x164 SWAP2 SWAP1 PUSH2 0xD78 JUMP JUMPDEST PUSH2 0x347 JUMP JUMPDEST PUSH1 0x40 MLOAD PUSH2 0x176 SWAP2 SWAP1 PUSH2 0xD35 JUMP JUMPDEST PUSH1 0x40 MLOAD DUP1 SWAP2 SUB SWAP1 RETURN JUMPDEST PUSH2 0x199 PUSH1 0x4 DUP1 CALLDATASIZE SUB DUP2 ADD SWAP1 PUSH2 0x194 SWAP2 SWAP1 PUSH2 0xDA3 JUMP JUMPDEST PUSH2 0x363 JUMP JUMPDEST STOP JUMPDEST PUSH2 0x1B5 PUSH1 0x4 DUP1 CALLDATASIZE SUB DUP2 ADD SWAP1 PUSH2 0x1B0 SWAP2 SWAP1 PUSH2 0xDA3 JUMP JUMPDEST PUSH2 0x385 JUMP JUMPDEST STOP JUMPDEST PUSH2 0x1D1 PUSH1 0x4 DUP1 CALLDATASIZE SUB DUP2 ADD SWAP1 PUSH2 0x1CC SWAP2 SWAP1 PUSH2 0xDA3 JUMP JUMPDEST PUSH2 0x400 JUMP JUMPDEST PUSH1 0x40 MLOAD PUSH2 0x1DE SWAP2 SWAP1 PUSH2 0xC4E JUMP JUMPDEST PUSH1 0x40 MLOAD DUP1 SWAP2 SUB SWAP1 RETURN JUMPDEST PUSH2 0x1EF PUSH2 0x463 JUMP JUMPDEST PUSH1 0x40 MLOAD PUSH2 0x1FC SWAP2 SWAP1 PUSH2 0xD35 JUMP JUMPDEST PUSH1 0x40 MLOAD DUP1 SWAP2 SUB SWAP1 RETURN JUMPDEST PUSH2 0x20D PUSH2 0x469 JUMP JUMPDEST STOP JUMPDEST PUSH2 0x229 PUSH1 0x4 DUP1 CALLDATASIZE SUB DUP2 ADD SWAP1 PUSH2 0x224 SWAP2 SWAP1 PUSH2 0xE97 JUMP JUMPDEST PUSH2 0x669 JUMP JUMPDEST STOP JUMPDEST PUSH2 0x245 PUSH1 0x4 DUP1 CALLDATASIZE SUB DUP2 ADD SWAP1 PUSH2 0x240 SWAP2 SWAP1 PUSH2 0xDA3 JUMP JUMPDEST PUSH2 0x821 JUMP JUMPDEST STOP JUMPDEST PUSH2 0x24F PUSH2 0x843 JUMP JUMPDEST PUSH1 0x40 MLOAD PUSH2 0x25C SWAP2 SWAP1 PUSH2 0xF70 JUMP JUMPDEST PUSH1 0x40 MLOAD DUP1 SWAP2 SUB SWAP1 RETURN JUMPDEST PUSH2 0x27F PUSH1 0x4 DUP1 CALLDATASIZE SUB DUP2 ADD SWAP1 PUSH2 0x27A SWAP2 SWAP1 PUSH2 0xCC1 JUMP JUMPDEST PUSH2 0x867 JUMP JUMPDEST PUSH1 0x40 MLOAD PUSH2 0x28C SWAP2 SWAP1 PUSH2 0xD04 JUMP JUMPDEST PUSH1 0x40 MLOAD DUP1 SWAP2 SUB SWAP1 RETURN JUMPDEST PUSH0 PUSH32 0x7965DB0B00000000000000000000000000000000000000000000000000000000 PUSH28 0xFFFFFFFFFFFFFFFFFFFFFFFFFFFFFFFFFFFFFFFFFFFFFFFFFFFFFFFF NOT AND DUP3 PUSH28 0xFFFFFFFFFFFFFFFFFFFFFFFFFFFFFFFFFFFFFFFFFFFFFFFFFFFFFFFF NOT AND EQ DUP1 PUSH2 0x307 JUMPI POP PUSH2 0x306 DUP3 PUSH2 0x8AD JUMP JUMPDEST JUMPDEST SWAP1 POP SWAP2 SWAP1 POP JUMP JUMPDEST PUSH1 0x2 PUSH1 0x20 MSTORE DUP1 PUSH0 MSTORE PUSH1 0x40 PUSH0 KECCAK256 PUSH0 SWAP2 POP SWAP1 POP SLOAD DUP2 JUMP JUMPDEST PUSH32 0x68E79A7BF1E0BC45D0A330C573BC367F9CF464FD326078812F301165FBDA4EF1 DUP2 JUMP JUMPDEST PUSH0 PUSH0 PUSH0 DUP4 DUP2 MSTORE PUSH1 0x20 ADD SWAP1 DUP2 MSTORE PUSH1 0x20 ADD PUSH0 KECCAK256 PUSH1 0x1 ADD SLOAD SWAP1 POP SWAP2 SWAP1 POP JUMP JUMPDEST PUSH2 0x36C DUP3 PUSH2 0x347 JUMP JUMPDEST PUSH2 0x375 DUP2 PUSH2 0x916 JUMP JUMPDEST PUSH2 0x37F DUP4 DUP4 PUSH2 0x92A JUMP JUMPDEST POP POP POP POP JUMP JUMPDEST PUSH2 0x38D PUSH2 0xA13 JUMP JUMPDEST PUSH20 0xFFFFFFFFFFFFFFFFFFFFFFFFFFFFFFFFFFFFFFFF AND DUP2 PUSH20 0xFFFFFFFFFFFFFFFFFFFFFFFFFFFFFFFFFFFFFFFF AND EQ PUSH2 0x3F1 JUMPI PUSH1 0x40 MLOAD PUSH32 0x6697B23200000000000000000000000000000000000000000000000000000000 DUP2 MSTORE PUSH1 0x4 ADD PUSH1 0x40 MLOAD DUP1 SWAP2 SUB SWAP1 REVERT JUMPDEST PUSH2 0x3FB DUP3 DUP3 PUSH2 0xA1A JUMP JUMPDEST POP POP POP JUMP JUMPDEST PUSH0 PUSH0 PUSH0 DUP5 DUP2 MSTORE PUSH1 0x20 ADD SWAP1 DUP2 MSTORE PUSH1 0x20 ADD PUSH0 KECCAK256 PUSH0 ADD PUSH0 DUP4 PUSH20 0xFFFFFFFFFFFFFFFFFFFFFFFFFFFFFFFFFFFFFFFF AND PUSH20 0xFFFFFFFFFFFFFFFFFFFFFFFFFFFFFFFFFFFFFFFF AND DUP2 MSTORE PUSH1 0x20 ADD SWAP1 DUP2 MSTORE PUSH1 0x20 ADD PUSH0 KECCAK256 PUSH0 SWAP1 SLOAD SWAP1 PUSH2 0x100 EXP SWAP1 DIV PUSH1 0xFF AND SWAP1 POP SWAP3 SWAP2 POP POP JUMP JUMPDEST PUSH0 PUSH0 SHL DUP2 JUMP JUMPDEST PUSH2 0x471 PUSH2 0xB03 JUMP JUMPDEST PUSH0 PUSH1 0x2 PUSH0 CALLER PUSH20 0xFFFFFFFFFFFFFFFFFFFFFFFFFFFFFFFFFFFFFFFF AND PUSH20 0xFFFFFFFFFFFFFFFFFFFFFFFFFFFFFFFFFFFFFFFF AND DUP2 MSTORE PUSH1 0x20 ADD SWAP1 DUP2 MSTORE PUSH1 0x20 ADD PUSH0 KECCAK256 SLOAD SWAP1 POP PUSH0 DUP2 GT PUSH2 0x4F4 JUMPI PUSH1 0x40 MLOAD PUSH32 0x8C379A000000000000000000000000000000000000000000000000000000000 DUP2 MSTORE PUSH1 0x4 ADD PUSH2 0x4EB SWAP1 PUSH2 0x1009 JUMP JUMPDEST PUSH1 0x40 MLOAD DUP1 SWAP2 SUB SWAP1 REVERT JUMPDEST PUSH0 PUSH1 0x2 PUSH0 CALLER PUSH20 0xFFFFFFFFFFFFFFFFFFFFFFFFFFFFFFFFFFFFFFFF AND PUSH20 0xFFFFFFFFFFFFFFFFFFFFFFFFFFFFFFFFFFFFFFFF AND DUP2 MSTORE PUSH1 0x20 ADD SWAP1 DUP2 MSTORE PUSH1 0x20 ADD PUSH0 KECCAK256 DUP2 SWAP1 SSTORE POP PUSH32 0x0 PUSH20 0xFFFFFFFFFFFFFFFFFFFFFFFFFFFFFFFFFFFFFFFF AND PUSH4 0xA9059CBB CALLER DUP4 PUSH1 0x40 MLOAD DUP4 PUSH4 0xFFFFFFFF AND PUSH1 0xE0 SHL DUP2 MSTORE PUSH1 0x4 ADD PUSH2 0x591 SWAP3 SWAP2 SWAP1 PUSH2 0x1036 JUMP JUMPDEST PUSH1 0x20 PUSH1 0x40 MLOAD DUP1 DUP4 SUB DUP2 PUSH0 DUP8 GAS CALL ISZERO DUP1 ISZERO PUSH2 0x5AD JUMPI RETURNDATASIZE PUSH0 PUSH0 RETURNDATACOPY RETURNDATASIZE PUSH0 REVERT JUMPDEST POP POP POP POP PUSH1 0x40 MLOAD RETURNDATASIZE PUSH1 0x1F NOT PUSH1 0x1F DUP3 ADD AND DUP3 ADD DUP1 PUSH1 0x40 MSTORE POP DUP2 ADD SWAP1 PUSH2 0x5D1 SWAP2 SWAP1 PUSH2 0x1087 JUMP JUMPDEST PUSH2 0x610 JUMPI PUSH1 0x40 MLOAD PUSH32 0x8C379A000000000000000000000000000000000000000000000000000000000 DUP2 MSTORE PUSH1 0x4 ADD PUSH2 0x607 SWAP1 PUSH2 0x1122 JUMP JUMPDEST PUSH1 0x40 MLOAD DUP1 SWAP2 SUB SWAP1 REVERT JUMPDEST CALLER PUSH20 0xFFFFFFFFFFFFFFFFFFFFFFFFFFFFFFFFFFFFFFFF AND PUSH32 0x106F923F993C2149D49B4255FF723ACAFA1F2D94393F561D3EDA32AE348F7241 DUP3 PUSH1 0x40 MLOAD PUSH2 0x656 SWAP2 SWAP1 PUSH2 0xD04 JUMP JUMPDEST PUSH1 0x40 MLOAD DUP1 SWAP2 SUB SWAP1 LOG2 POP PUSH2 0x667 PUSH2 0xB52 JUMP JUMPDEST JUMP JUMPDEST PUSH32 0x68E79A7BF1E0BC45D0A330C573BC367F9CF464FD326078812F301165FBDA4EF1 PUSH2 0x693 DUP2 PUSH2 0x916 JUMP JUMPDEST DUP3 DUP3 SWAP1 POP DUP6 DUP6 SWAP1 POP EQ PUSH2 0x6DB JUMPI PUSH1 0x40 MLOAD PUSH32 0x8C379A000000000000000000000000000000000000000000000000000000000 DUP2 MSTORE PUSH1 0x4 ADD PUSH2 0x6D2 SWAP1 PUSH2 0x11B0 JUMP JUMPDEST PUSH1 0x40 MLOAD DUP1 SWAP2 SUB SWAP1 REVERT JUMPDEST PUSH0 PUSH0 SWAP1 POP JUMPDEST DUP6 DUP6 SWAP1 POP DUP2 LT ISZERO PUSH2 0x819 JUMPI DUP4 DUP4 DUP3 DUP2 DUP2 LT PUSH2 0x6FE JUMPI PUSH2 0x6FD PUSH2 0x11CE JUMP JUMPDEST JUMPDEST SWAP1 POP PUSH1 0x20 MUL ADD CALLDATALOAD PUSH1 0x2 PUSH0 DUP9 DUP9 DUP6 DUP2 DUP2 LT PUSH2 0x71B JUMPI PUSH2 0x71A PUSH2 0x11CE JUMP JUMPDEST JUMPDEST SWAP1 POP PUSH1 0x20 MUL ADD PUSH1 0x20 DUP2 ADD SWAP1 PUSH2 0x730 SWAP2 SWAP1 PUSH2 0xCC1 JUMP JUMPDEST PUSH20 0xFFFFFFFFFFFFFFFFFFFFFFFFFFFFFFFFFFFFFFFF AND PUSH20 0xFFFFFFFFFFFFFFFFFFFFFFFFFFFFFFFFFFFFFFFF AND DUP2 MSTORE PUSH1 0x20 ADD SWAP1 DUP2 MSTORE PUSH1 0x20 ADD PUSH0 KECCAK256 PUSH0 DUP3 DUP3 SLOAD PUSH2 0x777 SWAP2 SWAP1 PUSH2 0x1228 JUMP JUMPDEST SWAP3 POP POP DUP2 SWAP1 SSTORE POP DUP6 DUP6 DUP3 DUP2 DUP2 LT PUSH2 0x791 JUMPI PUSH2 0x790 PUSH2 0x11CE JUMP JUMPDEST JUMPDEST SWAP1 POP PUSH1 0x20 MUL ADD PUSH1 0x20 DUP2 ADD SWAP1 PUSH2 0x7A6 SWAP2 SWAP1 PUSH2 0xCC1 JUMP JUMPDEST PUSH20 0xFFFFFFFFFFFFFFFFFFFFFFFFFFFFFFFFFFFFFFFF AND PUSH32 0x560EF4F9524AF91C8F006852A8707C3F256C238779F8CC088BBE202BB82E632E DUP6 DUP6 DUP5 DUP2 DUP2 LT PUSH2 0x7F0 JUMPI PUSH2 0x7EF PUSH2 0x11CE JUMP JUMPDEST JUMPDEST SWAP1 POP PUSH1 0x20 MUL ADD CALLDATALOAD PUSH1 0x40 MLOAD PUSH2 0x804 SWAP2 SWAP1 PUSH2 0xD04 JUMP JUMPDEST PUSH1 0x40 MLOAD DUP1 SWAP2 SUB SWAP1 LOG2 DUP1 DUP1 PUSH1 0x1 ADD SWAP2 POP POP PUSH2 0x6E0 JUMP JUMPDEST POP POP POP POP POP POP JUMP JUMPDEST PUSH2 0x82A DUP3 PUSH2 0x347 JUMP JUMPDEST PUSH2 0x833 DUP2 PUSH2 0x916 JUMP JUMPDEST PUSH2 0x83D DUP4 DUP4 PUSH2 0xA1A JUMP JUMPDEST POP POP POP POP JUMP JUMPDEST PUSH32 0x0 DUP2 JUMP JUMPDEST PUSH0 PUSH1 0x2 PUSH0 DUP4 PUSH20 0xFFFFFFFFFFFFFFFFFFFFFFFFFFFFFFFFFFFFFFFF AND PUSH20 0xFFFFFFFFFFFFFFFFFFFFFFFFFFFFFFFFFFFFFFFF AND DUP2 MSTORE PUSH1 0x20 ADD SWAP1 DUP2 MSTORE PUSH1 0x20 ADD PUSH0 KECCAK256 SLOAD SWAP1 POP SWAP2 SWAP1 POP JUMP JUMPDEST PUSH0 PUSH32 0x1FFC9A700000000000000000000000000000000000000000000000000000000 PUSH28 0xFFFFFFFFFFFFFFFFFFFFFFFFFFFFFFFFFFFFFFFFFFFFFFFFFFFFFFFF NOT AND DUP3 PUSH28 0xFFFFFFFFFFFFFFFFFFFFFFFFFFFFFFFFFFFFFFFFFFFFFFFFFFFFFFFF NOT AND EQ SWAP1 POP SWAP2 SWAP1 POP JUMP JUMPDEST PUSH2 0x927 DUP2 PUSH2 0x922 PUSH2 0xA13 JUMP JUMPDEST PUSH2 0xB5B JUMP JUMPDEST POP JUMP JUMPDEST PUSH0 PUSH2 0x935 DUP4 DUP4 PUSH2 0x400 JUMP JUMPDEST PUSH2 0xA09 JUMPI PUSH1 0x1 PUSH0 PUSH0 DUP6 DUP2 MSTORE PUSH1 0x20 ADD SWAP1 DUP2 MSTORE PUSH1 0x20 ADD PUSH0 KECCAK256 PUSH0 ADD PUSH0 DUP5 PUSH20 0xFFFFFFFFFFFFFFFFFFFFFFFFFFFFFFFFFFFFFFFF AND PUSH20 0xFFFFFFFFFFFFFFFFFFFFFFFFFFFFFFFFFFFFFFFF AND DUP2 MSTORE PUSH1 0x20 ADD SWAP1 DUP2 MSTORE PUSH1 0x20 ADD PUSH0 KECCAK256 PUSH0 PUSH2 0x100 EXP DUP2 SLOAD DUP2 PUSH1 0xFF MUL NOT AND SWAP1 DUP4 ISZERO ISZERO MUL OR SWAP1 SSTORE POP PUSH2 0x9A6 PUSH2 0xA13 JUMP JUMPDEST PUSH20 0xFFFFFFFFFFFFFFFFFFFFFFFFFFFFFFFFFFFFFFFF AND DUP3 PUSH20 0xFFFFFFFFFFFFFFFFFFFFFFFFFFFFFFFFFFFFFFFF AND DUP5 PUSH32 0x2F8788117E7EFF1D82E926EC794901D17C78024A50270940304540A733656F0D PUSH1 0x40 MLOAD PUSH1 0x40 MLOAD DUP1 SWAP2 SUB SWAP1 LOG4 PUSH1 0x1 SWAP1 POP PUSH2 0xA0D JUMP JUMPDEST PUSH0 SWAP1 POP JUMPDEST SWAP3 SWAP2 POP POP JUMP JUMPDEST PUSH0 CALLER SWAP1 POP SWAP1 JUMP JUMPDEST PUSH0 PUSH2 0xA25 DUP4 DUP4 PUSH2 0x400 JUMP JUMPDEST ISZERO PUSH2 0xAF9 JUMPI PUSH0 PUSH0 PUSH0 DUP6 DUP2 MSTORE PUSH1 0x20 ADD SWAP1 DUP2 MSTORE PUSH1 0x20 ADD PUSH0 KECCAK256 PUSH0 ADD PUSH0 DUP5 PUSH20 0xFFFFFFFFFFFFFFFFFFFFFFFFFFFFFFFFFFFFFFFF AND PUSH20 0xFFFFFFFFFFFFFFFFFFFFFFFFFFFFFFFFFFFFFFFF AND DUP2 MSTORE PUSH1 0x20 ADD SWAP1 DUP2 MSTORE PUSH1 0x20 ADD PUSH0 KECCAK256 PUSH0 PUSH2 0x100 EXP DUP2 SLOAD DUP2 PUSH1 0xFF MUL NOT AND SWAP1 DUP4 ISZERO ISZERO MUL OR SWAP1 SSTORE POP PUSH2 0xA96 PUSH2 0xA13 JUMP JUMPDEST PUSH20 0xFFFFFFFFFFFFFFFFFFFFFFFFFFFFFFFFFFFFFFFF AND DUP3 PUSH20 0xFFFFFFFFFFFFFFFFFFFFFFFFFFFFFFFFFFFFFFFF AND DUP5 PUSH32 0xF6391F5C32D9C69D2A47EA670B442974B53935D1EDC7FD64EB21E047A839171B PUSH1 0x40 MLOAD PUSH1 0x40 MLOAD DUP1 SWAP2 SUB SWAP1 LOG4 PUSH1 0x1 SWAP1 POP PUSH2 0xAFD JUMP JUMPDEST PUSH0 SWAP1 POP JUMPDEST SWAP3 SWAP2 POP POP JUMP JUMPDEST PUSH1 0x2 PUSH1 0x1 SLOAD SUB PUSH2 0xB48 JUMPI PUSH1 0x40 MLOAD PUSH32 0x8C379A000000000000000000000000000000000000000000000000000000000 DUP2 MSTORE PUSH1 0x4 ADD PUSH2 0xB3F SWAP1 PUSH2 0x12A5 JUMP JUMPDEST PUSH1 0x40 MLOAD DUP1 SWAP2 SUB SWAP1 REVERT JUMPDEST PUSH1 0x2 PUSH1 0x1 DUP2 SWAP1 SSTORE POP JUMP JUMPDEST PUSH1 0x1 DUP1 DUP2 SWAP1 SSTORE POP JUMP JUMPDEST PUSH2 0xB65 DUP3 DUP3 PUSH2 0x400 JUMP JUMPDEST PUSH2 0xBA8 JUMPI DUP1 DUP3 PUSH1 0x40 MLOAD PUSH32 0xE2517D3F00000000000000000000000000000000000000000000000000000000 DUP2 MSTORE PUSH1 0x4 ADD PUSH2 0xB9F SWAP3 SWAP2 SWAP1 PUSH2 0x12C3 JUMP JUMPDEST PUSH1 0x40 MLOAD DUP1 SWAP2 SUB SWAP1 REVERT JUMPDEST POP POP JUMP JUMPDEST PUSH0 PUSH0 REVERT JUMPDEST PUSH0 PUSH0 REVERT JUMPDEST PUSH0 PUSH32 0xFFFFFFFF00000000000000000000000000000000000000000000000000000000 DUP3 AND SWAP1 POP SWAP2 SWAP1 POP JUMP JUMPDEST PUSH2 0xBE8 DUP2 PUSH2 0xBB4 JUMP JUMPDEST DUP2 EQ PUSH2 0xBF2 JUMPI PUSH0 PUSH0 REVERT JUMPDEST POP JUMP JUMPDEST PUSH0 DUP2 CALLDATALOAD SWAP1 POP PUSH2 0xC03 DUP2 PUSH2 0xBDF JUMP JUMPDEST SWAP3 SWAP2 POP POP JUMP JUMPDEST PUSH0 PUSH1 0x20 DUP3 DUP5 SUB SLT ISZERO PUSH2 0xC1E JUMPI PUSH2 0xC1D PUSH2 0xBAC JUMP JUMPDEST JUMPDEST PUSH0 PUSH2 0xC2B DUP5 DUP3 DUP6 ADD PUSH2 0xBF5 JUMP JUMPDEST SWAP2 POP POP SWAP3 SWAP2 POP POP JUMP JUMPDEST PUSH0 DUP2 ISZERO ISZERO SWAP1 POP SWAP2 SWAP1 POP JUMP JUMPDEST PUSH2 0xC48 DUP2 PUSH2 0xC34 JUMP JUMPDEST DUP3 MSTORE POP POP JUMP JUMPDEST PUSH0 PUSH1 0x20 DUP3 ADD SWAP1 POP PUSH2 0xC61 PUSH0 DUP4 ADD DUP5 PUSH2 0xC3F JUMP JUMPDEST SWAP3 SWAP2 POP POP JUMP JUMPDEST PUSH0 PUSH20 0xFFFFFFFFFFFFFFFFFFFFFFFFFFFFFFFFFFFFFFFF DUP3 AND SWAP1 POP SWAP2 SWAP1 POP JUMP JUMPDEST PUSH0 PUSH2 0xC90 DUP3 PUSH2 0xC67 JUMP JUMPDEST SWAP1 POP SWAP2 SWAP1 POP JUMP JUMPDEST PUSH2 0xCA0 DUP2 PUSH2 0xC86 JUMP JUMPDEST DUP2 EQ PUSH2 0xCAA JUMPI PUSH0 PUSH0 REVERT JUMPDEST POP JUMP JUMPDEST PUSH0 DUP2 CALLDATALOAD SWAP1 POP PUSH2 0xCBB DUP2 PUSH2 0xC97 JUMP JUMPDEST SWAP3 SWAP2 POP POP JUMP JUMPDEST PUSH0 PUSH1 0x20 DUP3 DUP5 SUB SLT ISZERO PUSH2 0xCD6 JUMPI PUSH2 0xCD5 PUSH2 0xBAC JUMP JUMPDEST JUMPDEST PUSH0 PUSH2 0xCE3 DUP5 DUP3 DUP6 ADD PUSH2 0xCAD JUMP JUMPDEST SWAP2 POP POP SWAP3 SWAP2 POP POP JUMP JUMPDEST PUSH0 DUP2 SWAP1 POP SWAP2 SWAP1 POP JUMP JUMPDEST PUSH2 0xCFE DUP2 PUSH2 0xCEC JUMP JUMPDEST DUP3 MSTORE POP POP JUMP JUMPDEST PUSH0 PUSH1 0x20 DUP3 ADD SWAP1 POP PUSH2 0xD17 PUSH0 DUP4 ADD DUP5 PUSH2 0xCF5 JUMP JUMPDEST SWAP3 SWAP2 POP POP JUMP JUMPDEST PUSH0 DUP2 SWAP1 POP SWAP2 SWAP1 POP JUMP JUMPDEST PUSH2 0xD2F DUP2 PUSH2 0xD1D JUMP JUMPDEST DUP3 MSTORE POP POP JUMP JUMPDEST PUSH0 PUSH1 0x20 DUP3 ADD SWAP1 POP PUSH2 0xD48 PUSH0 DUP4 ADD DUP5 PUSH2 0xD26 JUMP JUMPDEST SWAP3 SWAP2 POP POP JUMP JUMPDEST PUSH2 0xD57 DUP2 PUSH2 0xD1D JUMP JUMPDEST DUP2 EQ PUSH2 0xD61 JUMPI PUSH0 PUSH0 REVERT JUMPDEST POP JUMP JUMPDEST PUSH0 DUP2 CALLDATALOAD SWAP1 POP PUSH2 0xD72 DUP2 PUSH2 0xD4E JUMP JUMPDEST SWAP3 SWAP2 POP POP JUMP JUMPDEST PUSH0 PUSH1 0x20 DUP3 DUP5 SUB SLT ISZERO PUSH2 0xD8D JUMPI PUSH2 0xD8C PUSH2 0xBAC JUMP JUMPDEST JUMPDEST PUSH0 PUSH2 0xD9A DUP5 DUP3 DUP6 ADD PUSH2 0xD64 JUMP JUMPDEST SWAP2 POP POP SWAP3 SWAP2 POP POP JUMP JUMPDEST PUSH0 PUSH0 PUSH1 0x40 DUP4 DUP6 SUB SLT ISZERO PUSH2 0xDB9 JUMPI PUSH2 0xDB8 PUSH2 0xBAC JUMP JUMPDEST JUMPDEST PUSH0 PUSH2 0xDC6 DUP6 DUP3 DUP7 ADD PUSH2 0xD64 JUMP JUMPDEST SWAP3 POP POP PUSH1 0x20 PUSH2 0xDD7 DUP6 DUP3 DUP7 ADD PUSH2 0xCAD JUMP JUMPDEST SWAP2 POP POP SWAP3 POP SWAP3 SWAP1 POP JUMP JUMPDEST PUSH0 PUSH0 REVERT JUMPDEST PUSH0 PUSH0 REVERT JUMPDEST PUSH0 PUSH0 REVERT JUMPDEST PUSH0 PUSH0 DUP4 PUSH1 0x1F DUP5 ADD SLT PUSH2 0xE02 JUMPI PUSH2 0xE01 PUSH2 0xDE1 JUMP JUMPDEST JUMPDEST DUP3 CALLDATALOAD SWAP1 POP PUSH8 0xFFFFFFFFFFFFFFFF DUP2 GT ISZERO PUSH2 0xE1F JUMPI PUSH2 0xE1E PUSH2 0xDE5 JUMP JUMPDEST JUMPDEST PUSH1 0x20 DUP4 ADD SWAP2 POP DUP4 PUSH1 0x20 DUP3 MUL DUP4 ADD GT ISZERO PUSH2 0xE3B JUMPI PUSH2 0xE3A PUSH2 0xDE9 JUMP JUMPDEST JUMPDEST SWAP3 POP SWAP3 SWAP1 POP JUMP JUMPDEST PUSH0 PUSH0 DUP4 PUSH1 0x1F DUP5 ADD SLT PUSH2 0xE57 JUMPI PUSH2 0xE56 PUSH2 0xDE1 JUMP JUMPDEST JUMPDEST DUP3 CALLDATALOAD SWAP1 POP PUSH8 0xFFFFFFFFFFFFFFFF DUP2 GT ISZERO PUSH2 0xE74 JUMPI PUSH2 0xE73 PUSH2 0xDE5 JUMP JUMPDEST JUMPDEST PUSH1 0x20 DUP4 ADD SWAP2 POP DUP4 PUSH1 0x20 DUP3 MUL DUP4 ADD GT ISZERO PUSH2 0xE90 JUMPI PUSH2 0xE8F PUSH2 0xDE9 JUMP JUMPDEST JUMPDEST SWAP3 POP SWAP3 SWAP1 POP JUMP JUMPDEST PUSH0 PUSH0 PUSH0 PUSH0 PUSH1 0x40 DUP6 DUP8 SUB SLT ISZERO PUSH2 0xEAF JUMPI PUSH2 0xEAE PUSH2 0xBAC JUMP JUMPDEST JUMPDEST PUSH0 DUP6 ADD CALLDATALOAD PUSH8 0xFFFFFFFFFFFFFFFF DUP2 GT ISZERO PUSH2 0xECC JUMPI PUSH2 0xECB PUSH2 0xBB0 JUMP JUMPDEST JUMPDEST PUSH2 0xED8 DUP8 DUP3 DUP9 ADD PUSH2 0xDED JUMP JUMPDEST SWAP5 POP SWAP5 POP POP PUSH1 0x20 DUP6 ADD CALLDATALOAD PUSH8 0xFFFFFFFFFFFFFFFF DUP2 GT ISZERO PUSH2 0xEFB JUMPI PUSH2 0xEFA PUSH2 0xBB0 JUMP JUMPDEST JUMPDEST PUSH2 0xF07 DUP8 DUP3 DUP9 ADD PUSH2 0xE42 JUMP JUMPDEST SWAP3 POP SWAP3 POP POP SWAP3 SWAP6 SWAP2 SWAP5 POP SWAP3 POP JUMP JUMPDEST PUSH0 DUP2 SWAP1 POP SWAP2 SWAP1 POP JUMP JUMPDEST PUSH0 PUSH2 0xF38 PUSH2 0xF33 PUSH2 0xF2E DUP5 PUSH2 0xC67 JUMP JUMPDEST PUSH2 0xF15 JUMP JUMPDEST PUSH2 0xC67 JUMP JUMPDEST SWAP1 POP SWAP2 SWAP1 POP JUMP JUMPDEST PUSH0 PUSH2 0xF49 DUP3 PUSH2 0xF1E JUMP JUMPDEST SWAP1 POP SWAP2 SWAP1 POP JUMP JUMPDEST PUSH0 PUSH2 0xF5A DUP3 PUSH2 0xF3F JUMP JUMPDEST SWAP1 POP SWAP2 SWAP1 POP JUMP JUMPDEST PUSH2 0xF6A DUP2 PUSH2 0xF50 JUMP JUMPDEST DUP3 MSTORE POP POP JUMP JUMPDEST PUSH0 PUSH1 0x20 DUP3 ADD SWAP1 POP PUSH2 0xF83 PUSH0 DUP4 ADD DUP5 PUSH2 0xF61 JUMP JUMPDEST SWAP3 SWAP2 POP POP JUMP JUMPDEST PUSH0 DUP3 DUP3 MSTORE PUSH1 0x20 DUP3 ADD SWAP1 POP SWAP3 SWAP2 POP POP JUMP JUMPDEST PUSH32 0x436F6D70757465526577617264733A204E6F207265776172647320746F20636C PUSH0 DUP3 ADD MSTORE PUSH32 0x61696D0000000000000000000000000000000000000000000000000000000000 PUSH1 0x20 DUP3 ADD MSTORE POP JUMP JUMPDEST PUSH0 PUSH2 0xFF3 PUSH1 0x23 DUP4 PUSH2 0xF89 JUMP JUMPDEST SWAP2 POP PUSH2 0xFFE DUP3 PUSH2 0xF99 JUMP JUMPDEST PUSH1 0x40 DUP3 ADD SWAP1 POP SWAP2 SWAP1 POP JUMP JUMPDEST PUSH0 PUSH1 0x20 DUP3 ADD SWAP1 POP DUP2 DUP2 SUB PUSH0 DUP4 ADD MSTORE PUSH2 0x1020 DUP2 PUSH2 0xFE7 JUMP JUMPDEST SWAP1 POP SWAP2 SWAP1 POP JUMP JUMPDEST PUSH2 0x1030 DUP2 PUSH2 0xC86 JUMP JUMPDEST DUP3 MSTORE POP POP JUMP JUMPDEST PUSH0 PUSH1 0x40 DUP3 ADD SWAP1 POP PUSH2 0x1049 PUSH0 DUP4 ADD DUP6 PUSH2 0x1027 JUMP JUMPDEST PUSH2 0x1056 PUSH1 0x20 DUP4 ADD DUP5 PUSH2 0xCF5 JUMP JUMPDEST SWAP4 SWAP3 POP POP POP JUMP JUMPDEST PUSH2 0x1066 DUP2 PUSH2 0xC34 JUMP JUMPDEST DUP2 EQ PUSH2 0x1070 JUMPI PUSH0 PUSH0 REVERT JUMPDEST POP JUMP JUMPDEST PUSH0 DUP2 MLOAD SWAP1 POP PUSH2 0x1081 DUP2 PUSH2 0x105D JUMP JUMPDEST SWAP3 SWAP2 POP POP JUMP JUMPDEST PUSH0 PUSH1 0x20 DUP3 DUP5 SUB SLT ISZERO PUSH2 0x109C JUMPI PUSH2 0x109B PUSH2 0xBAC JUMP JUMPDEST JUMPDEST PUSH0 PUSH2 0x10A9 DUP5 DUP3 DUP6 ADD PUSH2 0x1073 JUMP JUMPDEST SWAP2 POP POP SWAP3 SWAP2 POP POP JUMP JUMPDEST PUSH32 0x436F6D70757465526577617264733A20546F6B656E207472616E736665722066 PUSH0 DUP3 ADD MSTORE PUSH32 0x61696C6564000000000000000000000000000000000000000000000000000000 PUSH1 0x20 DUP3 ADD MSTORE POP JUMP JUMPDEST PUSH0 PUSH2 0x110C PUSH1 0x25 DUP4 PUSH2 0xF89 JUMP JUMPDEST SWAP2 POP PUSH2 0x1117 DUP3 PUSH2 0x10B2 JUMP JUMPDEST PUSH1 0x40 DUP3 ADD SWAP1 POP SWAP2 SWAP1 POP JUMP JUMPDEST PUSH0 PUSH1 0x20 DUP3 ADD SWAP1 POP DUP2 DUP2 SUB PUSH0 DUP4 ADD MSTORE PUSH2 0x1139 DUP2 PUSH2 0x1100 JUMP JUMPDEST SWAP1 POP SWAP2 SWAP1 POP JUMP JUMPDEST PUSH32 0x436F6D70757465526577617264733A20496E707574206172726179206C656E67 PUSH0 DUP3 ADD MSTORE PUSH32 0x7468206D69736D61746368000000000000000000000000000000000000000000 PUSH1 0x20 DUP3 ADD MSTORE POP JUMP JUMPDEST PUSH0 PUSH2 0x119A PUSH1 0x2B DUP4 PUSH2 0xF89 JUMP JUMPDEST SWAP2 POP PUSH2 0x11A5 DUP3 PUSH2 0x1140 JUMP JUMPDEST PUSH1 0x40 DUP3 ADD SWAP1 POP SWAP2 SWAP1 POP JUMP JUMPDEST PUSH0 PUSH1 0x20 DUP3 ADD SWAP1 POP DUP2 DUP2 SUB PUSH0 DUP4 ADD MSTORE PUSH2 0x11C7 DUP2 PUSH2 0x118E JUMP JUMPDEST SWAP1 POP SWAP2 SWAP1 POP JUMP JUMPDEST PUSH32 0x4E487B7100000000000000000000000000000000000000000000000000000000 PUSH0 MSTORE PUSH1 0x32 PUSH1 0x4 MSTORE PUSH1 0x24 PUSH0 REVERT JUMPDEST PUSH32 0x4E487B7100000000000000000000000000000000000000000000000000000000 PUSH0 MSTORE PUSH1 0x11 PUSH1 0x4 MSTORE PUSH1 0x24 PUSH0 REVERT JUMPDEST PUSH0 PUSH2 0x1232 DUP3 PUSH2 0xCEC JUMP JUMPDEST SWAP2 POP PUSH2 0x123D DUP4 PUSH2 0xCEC JUMP JUMPDEST SWAP3 POP DUP3 DUP3 ADD SWAP1 POP DUP1 DUP3 GT ISZERO PUSH2 0x1255 JUMPI PUSH2 0x1254 PUSH2 0x11FB JUMP JUMPDEST JUMPDEST SWAP3 SWAP2 POP POP JUMP JUMPDEST PUSH32 0x5265656E7472616E637947756172643A207265656E7472616E742063616C6C00 PUSH0 DUP3 ADD MSTORE POP JUMP JUMPDEST PUSH0 PUSH2 0x128F PUSH1 0x1F DUP4 PUSH2 0xF89 JUMP JUMPDEST SWAP2 POP PUSH2 0x129A DUP3 PUSH2 0x125B JUMP JUMPDEST PUSH1 0x20 DUP3 ADD SWAP1 POP SWAP2 SWAP1 POP JUMP JUMPDEST PUSH0 PUSH1 0x20 DUP3 ADD SWAP1 POP DUP2 DUP2 SUB PUSH0 DUP4 ADD MSTORE PUSH2 0x12BC DUP2 PUSH2 0x1283 JUMP JUMPDEST SWAP1 POP SWAP2 SWAP1 POP JUMP JUMPDEST PUSH0 PUSH1 0x40 DUP3 ADD SWAP1 POP PUSH2 0x12D6 PUSH0 DUP4 ADD DUP6 PUSH2 0x1027 JUMP JUMPDEST PUSH2 0x12E3 PUSH1 0x20 DUP4 ADD DUP5 PUSH2 0xD26 JUMP JUMPDEST SWAP4 SWAP3 POP POP POP JUMP INVALID LOG2 PUSH5 0x6970667358 0x22 SLT KECCAK256 0xB8 0xB8 TIMESTAMP MUL PUSH32 0x78AD89AE9E4A02FEF229F1FDA4B8982435982C67120FC5DC278BE364736F6C63 NUMBER STOP ADDMOD 0x1E STOP CALLER "
				},
				"gasEstimates": {
					"creation": {
						"codeDepositCost": "979200",
						"executionCost": "infinite",
						"totalCost": "infinite"
					},
					"external": {
						"DEFAULT_ADMIN_ROLE()": "374",
						"ORACLE_ROLE()": "370",
						"allocateRewards(address[],uint256[])": "infinite",
						"availableRewards(address)": "2917",
						"claimReward()": "infinite",
						"getRoleAdmin(bytes32)": "infinite",
						"grantRole(bytes32,address)": "infinite",
						"hasRole(bytes32,address)": "3143",
						"renounceRole(bytes32,address)": "infinite",
						"revokeRole(bytes32,address)": "infinite",
						"rewardToken()": "infinite",
						"rewards(address)": "2825",
						"supportsInterface(bytes4)": "718"
					}
				},
				"methodIdentifiers": {
					"DEFAULT_ADMIN_ROLE()": "a217fddf",
					"ORACLE_ROLE()": "07e2cea5",
					"allocateRewards(address[],uint256[])": "bf83f51f",
					"availableRewards(address)": "f854a27f",
					"claimReward()": "b88a802f",
					"getRoleAdmin(bytes32)": "248a9ca3",
					"grantRole(bytes32,address)": "2f2ff15d",
					"hasRole(bytes32,address)": "91d14854",
					"renounceRole(bytes32,address)": "36568abe",
					"revokeRole(bytes32,address)": "d547741f",
					"rewardToken()": "f7c618c1",
					"rewards(address)": "0700037d",
					"supportsInterface(bytes4)": "01ffc9a7"
				}
			},
			"storageLayout": {
				"storage": [
					{
						"astId": 27,
						"contract": "contract/ComputeRewards.sol:ComputeRewards",
						"label": "_roles",
						"offset": 0,
						"slot": "0",
						"type": "t_mapping(t_bytes32,t_struct(RoleData)22_storage)"
					},
					{
						"astId": 390,
						"contract": "contract/ComputeRewards.sol:ComputeRewards",
						"label": "_status",
						"offset": 0,
						"slot": "1",
						"type": "t_uint256"
					},
					{
						"astId": 609,
						"contract": "contract/ComputeRewards.sol:ComputeRewards",
						"label": "rewards",
						"offset": 0,
						"slot": "2",
						"type": "t_mapping(t_address,t_uint256)"
					}
				],
				"types": {
					"t_address": {
						"encoding": "inplace",
						"label": "address",
						"numberOfBytes": "20"
					},
					"t_bool": {
						"encoding": "inplace",
						"label": "bool",
						"numberOfBytes": "1"
					},
					"t_bytes32": {
						"encoding": "inplace",
						"label": "bytes32",
						"numberOfBytes": "32"
					},
					"t_mapping(t_address,t_bool)": {
						"encoding": "mapping",
						"key": "t_address",
						"label": "mapping(address => bool)",
						"numberOfBytes": "32",
						"value": "t_bool"
					},
					"t_mapping(t_address,t_uint256)": {
						"encoding": "mapping",
						"key": "t_address",
						"label": "mapping(address => uint256)",
						"numberOfBytes": "32",
						"value": "t_uint256"
					},
					"t_mapping(t_bytes32,t_struct(RoleData)22_storage)": {
						"encoding": "mapping",
						"key": "t_bytes32",
						"label": "mapping(bytes32 => struct AccessControl.RoleData)",
						"numberOfBytes": "32",
						"value": "t_struct(RoleData)22_storage"
					},
					"t_struct(RoleData)22_storage": {
						"encoding": "inplace",
						"label": "struct AccessControl.RoleData",
						"members": [
							{
								"astId": 19,
								"contract": "contract/ComputeRewards.sol:ComputeRewards",
								"label": "hasRole",
								"offset": 0,
								"slot": "0",
								"type": "t_mapping(t_address,t_bool)"
							},
							{
								"astId": 21,
								"contract": "contract/ComputeRewards.sol:ComputeRewards",
								"label": "adminRole",
								"offset": 0,
								"slot": "1",
								"type": "t_bytes32"
							}
						],
						"numberOfBytes": "64"
					},
					"t_uint256": {
						"encoding": "inplace",
						"label": "uint256",
						"numberOfBytes": "32"
					}
				}
			},
			"userdoc": {
				"kind": "user",
				"methods": {},
				"version": 1
			}
		}
	}
}